:020000040800F2
:10000000280B00202982000855810008578100082C
:10001000598100085B8100085D8100080000000034
:100020000000000000000000000000005F810008E8
:1000300061810008000000006381000865810008FC
:100040005182000855820008598200085D8200082C
:100050006182000865820008698200086D820008DC
:100060007182000875820008798200087D8200088C
:100070008182000885820008898200088D8200083C
:100080009182000895820008998200089D820008EC
:10009000A1820008A5820008A9820008AD8200089C
:1000A000B1820008B5820008B9820008BD8200084C
:1000B000C1820008C5820008C9820008CD820008FC
:1000C000D1820008D5820008D9820008DD820008AC
:1000D000E18200086D810008E5820008E9820008DD
:1000E000ED820008F1820008F58200082DE9FE4348
:1000F0000400CDE900120293DDE90001029A070035
:100100000B001500002000900020019000200290BC
:100110003800DFF8281602F057FC1AD93800002101
:1001200002F066FC15D3DFF818261800110002F063
:100130004BFC0ED91800002102F05AFC09D328000C
:10014000110002F041FC04D92800002102F050FC0B
:1001500005D26B4693E8070084E80700AEE018007C
:10016000DFF8CC1802F058FC80462800DFF8C018F1
:1001700002F052FC06004046310002F0D9FC0500B6
:1001800000225FF0804390469946380002F03CFD23
:100190000022DFF8B03502F05BFD42464B4602F02C
:1001A0008FFE02F061FF0100DFF89C0502F090FF76
:1001B00002001000002102F007FC01D992F0004279
:1001C0005FF07E50110002F0F3FF290002F0B0FC56
:1001D00080463000290002F0EBFF060038000021C5
:1001E00002F0F2FB0AD83800DFF8601502F000FCDC
:1001F00004D2280047465FF0000841E03800DFF8ED
:100200004C1502F0E1FB0AD83800DFF8441502F083
:10021000EFFB04D240462F005FF0000830E03800CA
:10022000DFF82C1502F0D0FB08D83800DFF82415D1
:1002300002F0DEFB02D200202F0021E03800DFF8C0
:10024000141502F0C1FB09D83800DFF80C1502F0D4
:10025000CFFB03D200204746A84611E03800DFF864
:10026000F81402F0B1FB09D83800DFF8F01402F0FE
:10027000BFFB03D240460027A84601E02800002724
:10028000DFF8DC54310002F023FF290002F050FCBB
:1002900000903800310002F01BFF290002F048FCFA
:1002A00001904046310002F013FF290002F040FCAB
:1002B00002906B4693E8070084E80700BDE8F783E7
:1002C0000021016300214163002181635FF07E51C1
:1002D000C163016441648164C164016500214165B9
:1002E000002181650021C165002101660021416670
:1002F0000021816670470FB41FB51B9C4FF47A70C4
:100300000290012001900DF10D0000900123752253
:100310002000010089B206A803F03EF99DF80D0007
:10032000682846D100208DF80C004FF47A700290B6
:100330000120019003A8009001236B2220000100FE
:1003400089B206A803F074F807208DF80C004FF46A
:100350007A7002900120019003A8009001231922D5
:100360002000010089B206A803F062F800208DF891
:100370000C004FF47A7002900120019003A80090C5
:1003800001231C222000010089B206A803F050F8C6
:1003900000208DF80C004FF47A700290012001903B
:1003A00003A8009001231B22210089B206A803F0B4
:1003B0003FF81FBC5DF814FB2DE9F84185B007003C
:1003C0000C001500DFF89C834FF47A700290062031
:1003D000019003A8009001233B22D021404603F066
:1003E000DBF803AE9DF80C10707850EA012000B2E3
:1003F00003F068FD3860B178F07850EA012000B26F
:1004000003F060FD78603179707950EA012000B224
:1004100003F058FDB860386802F0F6FB0022D24BBA
:1004200002F016FC02F020FEB861786802F0ECFBE6
:100430000022CD4B02F00CFC02F016FEF861B86809
:1004400002F0E2FB0022C84B02F002FC02F00CFEBC
:1004500038624FF47A7002900620019003A8009051
:1004600001233B22D021C14803F096F89DF80C10DF
:10047000707850EA012000B203F024FD2060B178CA
:10048000F07850EA012000B203F01CFD6060317981
:10049000707950EA012000B203F014FDA0602068DA
:1004A00002F0B2FB0022B04B02F0D2FB02F0DCFD06
:1004B000A061606802F0A8FB0022AB4B02F0C8FB11
:1004C00002F0D2FDE061A06802F09EFB0022A64B84
:1004D00002F0BEFB02F0C8FD20624FF47A70029079
:1004E0000620019003A8009001233B22D221404620
:1004F00003F052F89DF80C10707850EA012000B219
:1005000003F0E0FC2860B178F07850EA012000B2F6
:1005100003F0D8FC68603179707950EA012000B2AC
:1005200003F0D0FCA860286802F06EFB00228E4B1E
:1005300002F08EFB02F098FDA861686802F064FB8F
:100540000022894B02F084FB02F08EFDE861A8686E
:1005500002F05AFB0022844B02F07AFB02F084FD89
:10056000286206B0BDE8F0812DE9F84185B00700AA
:100570000C001500DFF8EC814FF47A700290062031
:10058000019003A8009001234322D021404603F0AC
:1005900003F803AE9DF80C10707850EA012000B209
:1005A00003F090FCF860B178F07850EA012000B2D6
:1005B00003F088FC38613179707950EA012000B28B
:1005C00003F080FC7861786A3863B86A7863F86A07
:1005D000B863F86802F018FB0022654B02F038FBA4
:1005E00002F042FD7862386902F00EFB0022604B97
:1005F00002F02EFB02F038FDB862786902F004FBCD
:1006000000225B4B02F024FB02F02EFDF8624FF457
:100610007A7002900620019003A8009001234322E3
:10062000D021524802F0B8FF9DF80C10707850EAC3
:10063000012000B203F046FCE060B178F07850EAA7
:10064000012000B203F03EFC20613179707950EA5C
:10065000012000B203F036FC6061606A2063A06A8A
:100660006063E06AA063E06802F0CEFA0022404BCB
:1006700002F0EEFA02F0F8FC6062206902F0C4FABF
:1006800000223B4B02F0E4FA02F0EEFCA06260694B
:1006900002F0BAFA0022364B02F0DAFA02F0E4FC79
:1006A000E0624FF47A7002900620019003A8009057
:1006B00001234322D221404602F06EFF9DF80C1028
:1006C000707850EA012000B203F0FCFBE860B178DA
:1006D000F07850EA012000B203F0F4FB2861317990
:1006E000707950EA012000B203F0ECFB6861686A9F
:1006F0002863A86A6863E86AA863E86802F084FA75
:1007000000221B4B02F0A4FA02F0AEFC68622869DA
:1007100002F07AFA0022164B02F09AFA02F0A4FCD8
:10072000A862686902F070FA0022114B02F090FA98
:1007300002F09AFCE86206B0BDE8F0810100B44323
:100740000100C84200004E40000080BF000070421F
:100750000000F04200003443000070430000964364
:1007600000007F43E40000200000D040380100205A
:10077000006060402DE9F84FADF5407D00205190BC
:10078000AC49086850F0807008600021DFF8480824
:100790000160A949086850F001000860DFF83C08D2
:1007A0000168A64801600020659000206490002048
:1007B0002090A34858905790A2486390A248629016
:1007C0009B486190A1495391A1496091A1495F91D2
:1007D000A1495E91A1495D91A14952910021569193
:1007E0000021002155919F4909685A915B905C90C6
:1007F00000201F9000201E90002000200020549018
:100800000020002003F070FB01F015FE02F040F81C
:1008100002F01FF801F046FE01F082FE01F008FF31
:1008200001F0BDFF01F079FF01F05BFE00218E4871
:1008300003F0DAFB04218C4803F0D6FB08218A4838
:1008400003F0D2FB0C21884803F0CEFB002187483F
:1008500003F0CAFB0C21854803F0C6FB0021844845
:1008600003F0C2FB3C21834803F08EFC642003F0BC
:100870002DFF814CD0201190210084B06846542275
:1008800003F048FF0FBCFFF736FDD2201190210086
:1008900084B06846542203F03DFF0FBCFFF72BFDE8
:1008A000D0201190754984B06846542203F032FF7D
:1008B0000FBCFFF720FD40F6B83003F007FFA2A8F9
:1008C000FFF7FEFC84A8FFF7FBFC66A8FFF7F8FC27
:1008D00000216448016066AA84A9A2A8FFF76CFD04
:1008E000A898B79902F064FCB19902F021F94490FC
:1008F000A998B89902F05CFCB29902F019F94590F8
:10090000AA98B99902F054FCB39902F011F94690F3
:100910008A98999902F04CFC939902F009F9349065
:100920008B989A9902F044FC949902F001F9359061
:100930008C989B9902F03CFC959902F0F9F836905E
:100940006C987B9902F034FC759902F0F1F82490D0
:100950006D987C9902F02CFC769902F0E9F82590CC
:100960006E987D9902F024FC779902F0E1F82690C8
:1009700066AA84A9A2A8FFF71FFDA898B79902F05C
:1009800017FCB19902F0D4F84190A998B89902F0F7
:100990000FFCB29902F0CCF84290AA98B99902F0F3
:1009A00007FCB39902F0C4F843908A98999902F031
:1009B000FFFB939902F0BCF831908B989A9902F062
:1009C000F7FB949902F0B4F832908C989B9902F05E
:1009D000EFFB959902F0ACF833906C987B9902F09C
:1009E000E7FB759902F0A4F821906D987C9902F0CC
:1009F000DFFB769902F09CF822906E987D9902F0C8
:100A0000D7FB779902F094F8239000204E900020B5
:100A10004F900020509000203E9000203F900020FA
:100A2000409000202E9000202F9000203090ADE0CC
:100A30000000C842FCED00E0001000E008030020C8
:100A4000CDCCCC3D00007A4400004842000020415B
:100A50000040CE4400002F44AE47E13D0000F0428C
:100A60000000344210030020D40100208C0100203B
:100A7000640200201C020020E40000203801002055
:100A8000DFF85C050068012864D1DFF85845DFF81D
:100A90005805006802F0B8F8CDE91C01DFF84C05F4
:100AA000006802F0B1F8CDE91A011E9802F0ACF826
:100AB000CDE918011F9802F0A7F8CDE91601D8F882
:100AC000000002F0A1F8CDE91401DBF8000002F00B
:100AD0009BF8CDE91201D9F8000002F095F8CDE9B4
:100AE0001001239802F090F8CDE90E01229802F04F
:100AF0008BF8CDE90C01219802F086F8CDE90A01C6
:100B0000339802F081F8CDE90801329802F07CF8C0
:100B1000CDE90601319802F077F8CDE90401439858
:100B200002F072F8CDE90201429802F06DF8CDE9C9
:100B30000001419802F068F802000B00DFF8B014E1
:100B4000200003F02BFEA023A0222100DFF8A40444
:100B500003F081FEDFF8840400682860DFF8780481
:100B600000685999401ADFF8804404F0B5F902F0A2
:100B70004BF80022DFF8803402F06AF802F074FAD1
:100B800020605198216802F0A3FA5190DFF84804E0
:100B90000068599066AA84A9A2A8FFF70DFC66AA6E
:100BA00084A9A2A8FFF7E0FCA898B79902F000FB7F
:100BB000B19901F0BDFF4790A998B89902F0F8FAF1
:100BC000B29901F0B5FF4890AA98B99902F0F0FAED
:100BD000B39901F0ADFF49908A98999902F0E8FA2B
:100BE000939901F0A5FF37908B989A9902F0E0FA5B
:100BF000949901F09DFF38908C989B9902F0D8FA57
:100C0000959901F095FF39906C987B9902F0D0FA94
:100C1000759901F08DFF27906D987C9902F0C8FAC4
:100C2000769901F085FF28906E987D9902F0C0FAC0
:100C3000779901F07DFF2990A898A89901F078FF95
:100C40000400A998A99901F073FF210002F040FA6D
:100C50000400AA98AA9901F06BFF210002F038FA6B
:100C600001F0D2FF04F046F902F0FEF94D904D98E4
:100C7000DFF8441F01F0A8FE05D94D98DFF83C1FAE
:100C800001F0B6FE0ED247984D9901F0C5FE47908F
:100C900048984D9901F0C0FE489049984D9901F04F
:100CA000BBFE49908A988A9901F042FF04008B9814
:100CB0008B9901F03DFF210002F00AFA04008C98A4
:100CC0008C9901F035FF210002F002FA01F09CFF3F
:100CD00004F010F902F0C8F93D903D98DFF8D81EF5
:100CE00001F072FE05D93D98DFF8D01E01F080FEBC
:100CF0000ED237983D9901F08FFE379038983D9984
:100D000001F08AFE389039983D9901F085FE3990BE
:100D10006C986C9901F00CFF04006D986D9901F0CE
:100D200007FF210002F0D4F904006E986E9901F0DB
:100D3000FFFE210002F0CCF901F066FF04F0DAF8C2
:100D400002F092F92D902D98DFF86C1E01F03CFE18
:100D500005D92D98DFF8641E01F04AFE0ED22798BF
:100D60002D9901F059FE279028982D9901F054FEF5
:100D7000289029982D9901F04FFE2990DFF8404ED8
:100D800020689A49096801F0D3FE0600AE98BA9926
:100D900002F00EFAB49901F0CBFE0500AB98BA99B7
:100DA00002F006FAB49901F0C3FE290002F090F9AE
:100DB000310001F0BDFE01F027FF00225FF080430B
:100DC00001F046FF02F050F94E902068874909680B
:100DD00001F0AEFE0600AF98BB9902F0E9F9B599B3
:100DE00001F0A6FE0500AC98BB9902F0E1F9B599B7
:100DF00001F09EFE290002F06BF9310001F098FE2F
:100E000001F002FF00225FF0804301F021FF02F0B9
:100E10002BF94F9020687549096801F089FE05009B
:100E2000B098BC9902F0C4F9B69901F081FE0600B1
:100E3000AD98BC9902F0BCF9B69901F079FE310089
:100E400002F046F9290001F073FE01F0DDFE0022F8
:100E50005FF0804301F0FCFE02F006F9509020683C
:100E60006249096801F064FE050090989C9902F0BF
:100E70009FF9969901F05CFE06008D989C9902F00E
:100E800097F9969901F054FE310002F021F92900FA
:100E900001F04EFE01F0B8FE00225FF0804301F049
:100EA000D7FE02F0E1F83E9020685049096801F051
:100EB0003FFE050091989D9902F07AF9979901F00B
:100EC00037FE06008E989D9902F072F9979901F00D
:100ED0002FFE310002F0FCF8290001F029FE01F09C
:100EE00093FE00225FF0804301F0B2FE02F0BCF8F6
:100EF0003F9020683D49096801F01AFE050092986C
:100F00009E9902F055F9989901F012FE06008F980B
:100F10009E9902F04DF9989901F00AFE310002F015
:100F2000D7F8290001F004FE01F06EFE00225FF008
:100F3000804301F08DFE02F097F8409020682B4925
:100F4000096801F0F5FD050072987E9902F030F90C
:100F5000789901F0EDFD06006F987E9902F028F96E
:100F6000789901F0E5FD310002F0B2F8290001F0B6
:100F7000DFFD01F049FE00225FF0804301F068FED2
:100F800002F072F82E9020681849096801F0D0FD2F
:100F9000050073987F9902F00BF9799901F0C8FD6B
:100FA000060070987F9902F003F9799901F0C0FD6D
:100FB000310002F08DF8290001F0BAFD01F024FEA5
:100FC00000225FF0804301F043FE02F04DF82F90C5
:100FD0002068064912E000BF041000E040820008CB
:100FE0000C03002044000020F8020020F40200203E
:100FF000747F0008AC020020882A9141096801F042
:1010000097FD05007498809902F0D2F87A9901F062
:101010008FFD04007198809902F0CAF87A9901F066
:1010200087FD210002F054F8290001F081FD01F054
:10103000EBFD00225FF0804301F00AFE02F014F89D
:101040003090509801F0E0FD04F0D2F904000D005A
:101050004F9801F0D9FD04F0CBF9CDE9000150988B
:1010600001F0D2FD04F0C4F9CDE90E014F9801F072
:10107000CBFD04F0BFF9CDE90C014E9801F0C4FDA1
:1010800004F0B8F9CDE90A01509801F0BDFD04F073
:10109000B1F982468B464E9801F0B6FD04F0A8F9EE
:1010A000CDE90801509801F0AFFD04F0A1F98046A8
:1010B00089464F9801F0A8FD04F09CF9CDE906019E
:1010C0004E9801F0A1FD04F093F9CDE90401509888
:1010D00001F09AFD04F08EF906000F004E9801F021
:1010E00093FD04F087F9CDE90201DDE9000122005A
:1010F0002B0004F081F904000D00449801F084FDF8
:1011000022002B0004F078F9CDE90001DDE90E01A1
:10111000DDE90C2304F070F9DDE90A2304F06CF931
:1011200004000D00459801F06FFD22002B0004F033
:1011300063F9DDE9002304F035FACDE90001DDE9CA
:10114000080152465B4604F057F904000D0045982B
:1011500001F05AFD22002B0004F04EF902000B00B2
:10116000DDE9000104F0DCFA82468B46DDE9060188
:1011700042464B4604F040F9DDE9042304F03CF913
:1011800004000D00469801F03FFD22002B0004F002
:1011900033F952465B4604F005FA04000D00DDE920
:1011A000020132003B0004F027F906000F004698C8
:1011B00001F02AFD32003B0004F01EF922002B0052
:1011C00004F0F0F901F050FF4A90509801F01CFD36
:1011D00004F010F904000D004F9801F015FD04F023
:1011E00007F9CDE90001509801F00EFD04F002F975
:1011F000CDE90E014F9801F007FD04F0FBF8CDE9B1
:101200000C014E9801F000FD04F0F4F8CDE90A015C
:10121000509801F0F9FC04F0EBF882468B464E98AA
:1012200001F0F2FC04F0E4F8CDE90801509801F077
:10123000EBFC04F0DFF8804689464F9801F0E4FCAF
:1012400004F0D8F8CDE906014E9801F0DDFC04F079
:10125000CFF8CDE90401509801F0D6FC04F0C8F8AD
:1012600006000F004E9801F0CFFC04F0C3F8CDE962
:101270000201DDE9000122002B0004F0BDF80400AA
:101280000D00449801F0C0FC22002B0004F0B4F8DB
:10129000CDE90001DDE90E01DDE90C2304F0ACF835
:1012A000DDE90A2304F0A8F804000D00459801F0D8
:1012B000ABFC22002B0004F09FF8DDE9002304F0D2
:1012C00071F9CDE90001DDE9080152465B4604F001
:1012D00093F804000D00459801F096FC22002B00C5
:1012E00004F08AF8DDE9002304F05CF982468B46BD
:1012F000DDE9060142464B4604F07EF8DDE90423B1
:1013000004F07AF804000D00469801F07DFC2200FC
:101310002B0004F071F852465B4604F043F90400D8
:101320000D00DDE9020132003B0004F065F8060023
:101330000F00469801F068FC32003B0004F05CF8B6
:1013400002000B002000290004F0EAF901F08CFEF5
:101350004B904F9801F058FC04F04CF882468B46B5
:101360004F9801F051FC04F043F806000F004E982E
:1013700001F04AFC04F03EF8CDE900014F9801F07D
:1013800043FC04F035F804000D004E9801F03CFCDD
:1013900004F02EF880468946449801F035FC9BF015
:1013A000004B52465B4604F027F882468B46DDE947
:1013B000000132003B0004F01FF806000F004598C2
:1013C00001F022FC32003B0004F016F852465B4666
:1013D00004F0E8F806000F0042464B4620002900C2
:1013E00004F00AF804000D00469801F00DFC2200FC
:1013F0002B0004F001F832003B0004F0D3F801F0B8
:1014000033FE4C90409801F0FFFB03F0F1FF040025
:101410000D003F9801F0F8FB03F0EAFFCDE9000171
:10142000409801F0F1FB03F0E3FFCDE90E013F9896
:1014300001F0EAFB03F0DEFFCDE90C013E9801F07C
:10144000E3FB03F0D7FFCDE90A01409801F0DCFB94
:1014500003F0D0FF82468B463E9801F0D5FB03F0A7
:10146000C7FFCDE90801409801F0CEFB03F0C0FFB3
:10147000804689463F9801F0C7FB03F0BBFFCDE9EA
:1014800006013E9801F0C0FB03F0B2FFCDE9040174
:10149000409801F0B9FB03F0ADFF06000F003E9845
:1014A00001F0B2FB03F0A6FFCDE90201DDE9000186
:1014B00022002B0003F0A0FF04000D00349801F07F
:1014C000A3FB22002B0003F097FFCDE90001DDE92B
:1014D0000E01DDE90C2303F08FFFDDE90A2303F0A1
:1014E0008BFF04000D00359801F08EFB22002B00CD
:1014F00003F082FFDDE9002304F054F8CDE9000198
:10150000DDE9080152465B4603F076FF04000D005A
:10151000359801F079FB22002B0003F06DFF0200EB
:101520000B00DDE9000104F0FBF882468B46DDE9A3
:10153000060142464B4603F05FFFDDE9042303F05A
:101540005BFF04000D00369801F05EFB22002B00CB
:1015500003F052FF52465B4604F024F804000D00ED
:10156000DDE9020132003B0003F046FF06000F00F8
:10157000369801F049FB32003B0003F03DFF2200AA
:101580002B0004F00FF801F06FFD3A90409801F045
:101590003BFB03F02FFF04000D003F9801F034FBEC
:1015A00003F026FFCDE90001409801F02DFB03F088
:1015B00021FFCDE90E013F9801F026FB03F01AFF51
:1015C000CDE90C013E9801F01FFB03F013FFCDE9BC
:1015D0000A01409801F018FB03F00AFF82468B468F
:1015E0003E9801F011FB03F003FFCDE9080140989C
:1015F00001F00AFB03F0FEFE804689463F9801F0A9
:1016000003FB03F0F7FECDE906013E9801F0FCFA7A
:1016100003F0EEFECDE90401409801F0F5FA03F085
:10162000E7FE06000F003E9801F0EEFA03F0E2FE3E
:10163000CDE90201DDE9000122002B0003F0DCFE10
:1016400004000D00349801F0DFFA22002B0003F0B3
:10165000D3FECDE90001DDE90E01DDE90C2303F045
:10166000CBFEDDE90A2303F0C7FE04000D00359828
:1016700001F0CAFA22002B0003F0BEFEDDE90023D0
:1016800003F090FFCDE90001DDE9080152465B4619
:1016900003F0B2FE04000D00359801F0B5FA220007
:1016A0002B0003F0A9FEDDE9002303F07BFF824657
:1016B0008B46DDE9060142464B4603F09DFEDDE91F
:1016C000042303F099FE04000D00369801F09CFA03
:1016D00022002B0003F090FE52465B4603F062FFAF
:1016E00004000D00DDE9020132003B0003F084FE3E
:1016F00006000F00369801F087FA32003B0003F035
:101700007BFE02000B002000290004F009F801F024
:10171000ABFC3B903F9801F077FA03F06BFE8246FA
:101720008B463F9801F070FA03F062FE06000F004E
:101730003E9801F069FA03F05DFECDE900013F98A3
:1017400001F062FA03F054FE04000D003E9801F02F
:101750005BFA03F04DFE80468946349801F054FA56
:101760009BF0004B52465B4603F046FE82468B469A
:10177000DDE9000132003B0003F03EFE06000F00F1
:10178000359801F041FA32003B0003F035FE524635
:101790005B4603F007FF06000F0042464B46200061
:1017A000290003F029FE04000D00369801F02CFA00
:1017B00022002B0003F020FE32003B0003F0F2FE7B
:1017C00001F052FC3C90309801F01EFA03F010FE3C
:1017D00004000D002F9801F017FA03F009FECDE97F
:1017E0000001309801F010FA03F002FECDE90E017D
:1017F0002F9801F009FA03F0FDFDCDE90C012E98B8
:1018000001F002FA03F0F6FDCDE90A01309801F08B
:10181000FBF903F0EFFD82468B462E9801F0F4F9B8
:1018200003F0E6FDCDE90801309801F0EDF903F091
:10183000DFFD804689462F9801F0E6F903F0DAFDD6
:10184000CDE906012E9801F0DFF903F0D1FDCDE9D5
:101850000401309801F0D8F903F0CCFD06000F0028
:101860002E9801F0D1F903F0C5FDCDE90201DDE9C3
:10187000000122002B0003F0BFFD04000D0024989E
:1018800001F0C2F922002B0003F0B6FDCDE9000102
:10189000DDE90E01DDE90C2303F0AEFDDDE90A23ED
:1018A00003F0AAFD04000D00259801F0ADF9220017
:1018B0002B0003F0A1FDDDE9002303F073FECDE969
:1018C0000001DDE9080152465B4603F095FD040086
:1018D0000D00259801F098F922002B0003F08CFDF3
:1018E00002000B00DDE9000103F01AFF82468B467F
:1018F000DDE9060142464B4603F07EFDDDE90423A7
:1019000003F07AFD04000D00269801F07DF9220015
:101910002B0003F071FD52465B4603F043FE0400CA
:101920000D00DDE9020132003B0003F065FD060019
:101930000F00269801F068F932003B0003F05CFDCF
:1019400022002B0003F02EFE01F08EFB2A9030982F
:1019500001F05AF903F04EFD04000D002F9801F03C
:1019600053F903F045FDCDE90001309801F04CF941
:1019700003F040FDCDE90E012F9801F045F903F089
:1019800039FDCDE90C012E9801F03EF903F032FD4E
:10199000CDE90A01309801F037F903F029FD8246BC
:1019A0008B462E9801F030F903F022FDCDE90801B5
:1019B000309801F029F903F01DFD804689462F98E3
:1019C00001F022F903F016FDCDE906012E9801F091
:1019D0001BF903F00DFDCDE90401309801F014F975
:1019E00003F006FD06000F002E9801F00DF903F03C
:1019F00001FDCDE90201DDE9000122002B0003F029
:101A0000FBFC04000D00249801F0FEF822002B00DE
:101A100003F0F2FCCDE90001DDE90E01DDE90C2364
:101A200003F0EAFCDDE90A2303F0E6FC04000D0004
:101A3000259801F0E9F822002B0003F0DDFCDDE938
:101A4000002303F0AFFDCDE90001DDE908015246B6
:101A50005B4603F0D1FC04000D00259801F0D4F89A
:101A600022002B0003F0C8FCDDE9002303F09AFDFF
:101A700082468B46DDE9060142464B4603F0BCFC3C
:101A8000DDE9042303F0B8FC04000D00269801F002
:101A9000BBF822002B0003F0AFFC52465B4603F07C
:101AA00081FD04000D00DDE9020132003B0003F07E
:101AB000A3FC06000F00269801F0A6F832003B00B8
:101AC00003F09AFC02000B002000290003F028FE1E
:101AD00001F0CAFA2B902F9801F096F803F08AFCD7
:101AE00082468B462F9801F08FF803F081FC0600A8
:101AF0000F002E9801F088F803F07CFCCDE900017E
:101B00002F9801F081F803F073FC04000D002E986B
:101B100001F07AF803F06CFC80468946249801F0C5
:101B200073F89BF0004B52465B4603F065FC82461F
:101B30008B46DDE9000132003B0003F05DFC06004E
:101B40000F00259801F060F832003B0003F054FCD0
:101B500052465B4603F026FD06000F0042464B4608
:101B60002000290003F048FC04000D00269801F035
:101B70004BF822002B0003F03FFC32003B0003F047
:101B800011FD01F071FA2C904198449042984590D3
:101B900043984690319834903298359033983690E7
:101BA0002198249022982590239826900024DFF8ED
:101BB000D85CDFF8D86C05E018B7D13817B7D1B8C2
:101BC0004C8200083068479900F0B2FF01F01CF821
:101BD00082468B46306801F017F802000B002000A7
:101BE000290003F09DFD804689464A9801F00CF8D3
:101BF00042464B4603F000FC52465B4603F0D2FCE3
:101C000001F032FA41903068489900F091FF00F0FD
:101C1000FBFF82468B46306800F0F6FF02000B00A7
:101C20002000290003F07CFD804689464B9800F097
:101C3000EBFF42464B4603F0DFFB52465B4603F0A8
:101C4000B1FC01F011FA42903068499900F070FF40
:101C500000F0DAFF82468B46306800F0D5FF0200C4
:101C60000B002000290003F05BFD804689464C985C
:101C700000F0CAFF42464B4603F0BEFB52465B46AD
:101C800003F090FC01F0F0F943903068379900F0D0
:101C90004FFF00F0B9FF82468B46306800F0B4FF7A
:101CA00002000B002000290003F03AFD804689461F
:101CB0003A9800F0A9FF42464B4603F09DFB52467E
:101CC0005B4603F06FFC01F0CFF931903068389932
:101CD00000F02EFF00F098FF82468B46306800F03F
:101CE00093FF02000B002000290003F019FD80463D
:101CF00089463B9800F088FF42464B4603F07CFB48
:101D000052465B4603F04EFC01F0AEF9329030686B
:101D1000399900F00DFF00F077FF82468B4630685E
:101D200000F072FF02000B002000290003F0F8FC15
:101D3000804689463C9800F067FF42464B4603F0D8
:101D40005BFB52465B4603F02DFC01F08DF93390AE
:101D50003068279900F0ECFE00F056FF82468B4673
:101D6000306800F051FF02000B002000290003F052
:101D7000D7FC804689462A9800F046FF42464B46EB
:101D800003F03AFB52465B4603F00CFC01F06CF9A1
:101D900021903068289900F0CBFE00F035FF824694
:101DA0008B46306800F030FF02000B002000290055
:101DB00003F0B6FC804689462B9800F025FF42468A
:101DC0004B4603F019FB52465B4603F0EBFB01F078
:101DD0004BF922903068299900F0AAFE00F014FF18
:101DE00080468946306800F00FFF02000B0020009B
:101DF000290003F095FC06000F002C9800F004FF6A
:101E000032003B0003F0F8FA42464B4603F0CAFBAF
:101E100001F02AF923904198419900F089FE0600CB
:101E20004298429900F084FE310001F051F9060019
:101E30004398439900F07CFE310001F049F900F02D
:101E4000E3FE03F057F801F00FF94D90DFF8DC6A7C
:101E50004D98310000F0B8FD05D94D98DFF8D01A43
:101E600000F0C6FD0ED241984D9900F0D5FD41908D
:101E700042984D9900F0D0FD429043984D9900F062
:101E8000CBFD43903198319900F052FE0700329813
:101E9000329900F04DFE390001F01AF9070033982D
:101EA000339900F045FE390001F012F900F0ACFE64
:101EB00003F020F801F0D8F83D903D98310000F093
:101EC00083FD05D93D98DFF8681A00F091FD0ED228
:101ED00031983D9900F0A0FD319032983D9900F085
:101EE0009BFD329033983D9900F096FD33902198F8
:101EF000219900F01DFE07002298229900F018FE9B
:101F0000390001F0E5F807002398239900F010FE4E
:101F1000390001F0DDF800F077FE02F0EBFF01F090
:101F2000A3F82D902D98310000F04EFD05D92D9885
:101F3000DFF8FC1900F05CFD0ED221982D9900F01D
:101F40006BFD219022982D9900F066FD2290239838
:101F50002D9900F061FD2390DFF8D89941983199CF
:101F600001F026F9219901F0B3F800F04DFE0022AE
:101F7000DFF8C43900F06CFE01F076F8C9F8000013
:101F8000DFF8B8B94398339901F0A2F8229901F02B
:101F90000FF900F039FE0022DFF89C3900F058FEFE
:101FA00001F062F8CBF80000DFF89489429832998A
:101FB00001F0FEF8239901F08BF800F025FE0022D5
:101FC000DFF8743900F044FE01F04EF8C8F8000064
:101FD000D9F80000D9F8001000F0AAFD0700DBF8DE
:101FE0000000DBF8001000F0A3FD390001F070F8EC
:101FF0000700D8F80000D8F8001000F099FD39006B
:1020000001F066F800F000FE02F074FF01F02CF819
:1020100007003800310000F0D7FC05D93800DFF8A0
:10202000101900F0E5FC14D2D9F80000390000F0D6
:10203000F3FCC9F80000DBF80000390000F0ECFC0C
:10204000CBF80000D8F80000390000F0E5FCC8F833
:1020500000001F9E1E9FD8F8000000F0D5FD020072
:102060000B00CDE90023D9F8000000F0CDFDDDE93B
:10207000002303F0C7FB00F0F7FF1F90D8F8000023
:1020800000F0C2FD02000B00CDE90023DBF80000E8
:1020900000F0BAFDDDE9002303F0B4FB00F0E4FF3B
:1020A0001E901F98310001F083F8549901F080F8D8
:1020B00082461F98310001F07BF854901E98390039
:1020C00001F076F80690DFF87C78579800F09CFDD8
:1020D000CDE9040160981F9900F02AFD06005F9881
:1020E000549900F025FD310000F0F2FF00F08CFD66
:1020F000CDE902015E9800F087FDCDE90001569818
:1021000000F082FD31F00041DDE9002303F074F9B5
:10211000DDE9022303F046FACDE900015D9851465E
:1021200000F006FD00F070FDDDE9002303F03AFA4F
:1021300031F00041DDE9042303F05EF9CDE902014D
:10214000579800F061FD02000B002000290003F009
:10215000E7FACDE90001386801F0B4FE00F054FD63
:10216000DDE9002303F048F9DDE9022303F01AFA60
:1021700003F006FC38603868B0F5807F01DBFF2093
:1021800038603868002801D5002038601E986299B0
:1021900000F0CEFC209900F09BFF209053982099EE
:1021A00000F026FC01D2539820902098539991F08A
:1021B000004100F01DFC03D2539890F000402090A5
:1021C000DFF88467589800F01FFDCDE9000163989F
:1021D0001E9900F0ADFC82466198069900F0A8FCBB
:1021E000514600F075FF209900F072FF00F00CFDE1
:1021F00031F00041DDE9002303F0FEF8CDE90001F4
:10220000589800F001FD02000B002000290003F0A7
:1022100087FA04000D00306801F054FE00F0F4FC71
:1022200022002B0003F0E8F8DDE9002303F0BAF9FF
:1022300003F0A6FB30603068B0F5807F01DBFF2043
:1022400030603068002801D50020306052981E9917
:1022500000F0CEFB12D31E98529991F0004100F08D
:10226000C7FB0BD352981F9900F0C2FB06D31F98EF
:10227000529991F0004100F0BBFB03D2002038607E
:1022800000203060DFF8C4464FF48041200003F0A6
:102290006BFC00281CD101224FF40041200003F008
:1022A0006CFC65981F9900F0A3FB08D2DFF8A0062C
:1022B0003968026851630021006881630EE0DFF82D
:1022C0009006002201684A6339680068816305E06E
:1022D00000224FF40041200003F04FFC64981E9947
:1022E00000F086FB08D2DFF8680632680168CA632E
:1022F00000210068016407E0DFF85406002102684D
:10230000D1633168006801641021DFF8480603F0EA
:102310002BFC002803D10120DFF83C160860DFF811
:102320003C562868401E286028680128FEF6A8ABA5
:10233000DFF82C0600685999401ADFF8284602F0A9
:10234000CBFD00F061FC0022DFF81C3600F080FCC1
:1023500000F08AFE20605198216800F0B9FE51908B
:10236000DFF808060068519900F042FBBEF40EAC9D
:10237000DFF8FC0555990160DFF8F81509685591FB
:10238000559C0068241ADFF8F065200001F09AFDE2
:10239000316800F09DFE30603068DFF8E01500F035
:1023A00013FB01D8002030603068002100F020FBD2
:1023B00002D2DFF8CC053060200003F009FC01F008
:1023C00081FD00F021FC0022DFF8B83503F014F89D
:1023D00004000D00DFF8B005006801F073FD00F0A7
:1023E00013FC02000B002000290000F031FC00F07B
:1023F0003BFE56900020519030685A905AA890E8C1
:102400000E006846FDF772FEDFF88045029803F083
:10241000E3FB21684863009803F0DEFB2168086451
:10242000019803F0D9FBFF214843DFF864150968E0
:102430004863FEF7ABBB00B58FB02821002205A88A
:1024400003F0DEFB14210022684603F0D9FB0120D3
:1024500005905FF4803006900021079101210991D9
:1024600002210C910D905FF4E0100E9005A803F08E
:10247000FBFB002801D000F0A5FA0F2000900220FD
:102480000190002002904FF480600390002004909F
:102490000221684603F0D1FD002801D000F092FA35
:1024A0000FB000BD80B5DFF8EC04DFF8EC1401607C
:1024B000DFF8E8144160002181600021C1604FF421
:1024C0008041016100214161002181610021C161E0
:1024D0000021016200F0B8FE002801D000F072FA7D
:1024E00001BD80B5DFF8B804DFF8B8140160DFF88B
:1024F000AC144160002181600021C1604FF4804133
:10250000016100214161002181610021C16100213F
:10251000016200F099FE002801D000F053FA01BDDD
:1025200018B595B01021002211A803F069FB08210D
:102530000022684603F064FB1C21002202A803F07D
:102540005FFB2021002209A803F05AFBDFF83C447E
:10255000DFF854042060002060600020A060FF20AD
:10256000E06000202061002060610020A061200068
:1025700001F0CCFC002801D000F024FA4FF4805088
:10258000119011A9200001F0F4FE002801D000F004
:1025900019FA200001F0F1FC002801D000F012FA35
:1025A00000200090002001906946200003F05EFEAC
:1025B000002801D000F006FA60200290002003906D
:1025C0000020049000200590002006900020079035
:1025D00000200890002202A9200001F04FFE0028F0
:1025E00001D000F0EFF90C2202A9200001F046FE14
:1025F000002801D000F0E6F90020099000200A90A0
:1026000000200B9000200C9000200D904FF4005003
:102610000E900020109009A9200003F063FE00280E
:1026200001D000F0CFF9200003F060FF16B010BD1C
:1026300018B58DB01021002209A803F0E1FA082195
:102640000022684603F0DCFA1C21002202A803F0F5
:10265000D7FABF4C5FF0804020600020606000200F
:10266000A060FF20E060002020610020A061200029
:1026700001F04CFC002801D000F0A4F94FF4805088
:10268000099009A9200001F074FE002801D000F093
:1026900099F9200001F071FC002801D000F092F9B6
:1026A00000200090002001906946200003F0DEFD2C
:1026B000002801D000F086F96020029000200390ED
:1026C0000020049000200690002202A9200001F0C2
:1026D000D5FD002801D000F075F9042202A92000E0
:1026E00001F0CCFD002801D000F06CF9082202A90D
:1026F000200001F0C3FD002801D000F063F90C2296
:1027000002A9200001F0BAFD002801D000F05AF91A
:10271000200003F0EBFE0EB010BD18B58BB02421E5
:10272000002202A803F06CFA08210022684603F098
:1027300067FA9E4C9E482060002060600020A060E8
:102740004FF6FF70E060002020618020A061032030
:1027500002900020039001200490002005900A20A0
:10276000069000200790012008900020099000208A
:102770000A9002A9200001F0A1FC002801D000F07D
:1027800021F900200090002001906946200003F00C
:102790006DFD002801D000F015F90CB010BD18B582
:1027A0008DB01021002209A803F02AFA0821002286
:1027B000684603F025FA1C21002202A803F020FA43
:1027C000734C7C482060002060600020A0604FF6C1
:1027D000FF70E060002020610020A061200001F077
:1027E00095FB002801D000F0EDF84FF480500990DF
:1027F00009A9200001F0BDFD002801D000F0E2F899
:10280000200001F0BAFB002801D000F0DBF8002026
:102810000090002001906946200003F027FD002869
:1028200001D000F0CFF8602002900020039000203B
:10283000049000200690002202A9200001F01EFD55
:10284000002801D000F0BEF8200003F04FFE0EB0CB
:1028500010BD80B55848594901604FF41651416088
:10286000002181600021C160002101610C214161D2
:10287000002181610021C16101F0B0FF002801D079
:1028800000F0A0F801BD00000000F03FA8800008A3
:1028900018B585B010210022684603F0B1F9484808
:1028A000016851F020010160016811F020010491DC
:1028B0000499016851F004010160016811F00401FC
:1028C00004910499016851F008010160006810F05A
:1028D0000800049004981D4C00224FF40041200091
:1028E00003F04BF91020009000200190012002908D
:1028F0006946184803F060F84FF4804000900020CB
:102900000190012002906946200003F055F84FF431
:1029100000400090012001900220029002200390CC
:102920006946200003F048F806B010BD18B7D1384A
:1029300017B7D1B814030020000008401803002086
:102940001C030020FC02002000030020000C0140BA
:10295000D4010020000801400C03002008030020DF
:10296000041000E0F4020020882A91414882000807
:102970000403002024040040100300200100B4439D
:102980000000B44300004E40448200088C01002047
:1029900064020020E400002000540040A0860100F2
:1029A0003801002000580040002C01401C0200208B
:1029B0000004004000080040AC0200200038014044
:1029C0001810024072B6FEE740EA010C1CEB0C0F37
:1029D0004FF0807C07D305D01CEB400F9CBF1CEB55
:1029E000410F884270471CEB400F98BF81427047EF
:1029F00040EA010C1CEB0C0F4FF0807C07D305D094
:102A00001CEB400F9CBF1CEB410F814270471CEB3D
:102A1000410F98BF884270474FF0FF0C1CEAD0531B
:102A20001DBF1CEAD1526345624543E09B1A5FEA31
:102A3000CC7280EA010C42EA01211CEA020C42EA53
:102A40000020421A38BF01EB420253F17E034FEAE5
:102A50001121B2FBF1F001FB102260F3D63C4FEAEA
:102A60000222B2FBF1F001FB102260F3CE1C4FEA10
:102A70000222B2FBF1F006DDFF2B29DA5CEA5000FE
:102A800040EBC3507047C3F1020301FB1022192B26
:102A900040EA4C010CF0004C41F0807121DC21FA3D
:102AA00003F0C3F120039940114371F1004250EB50
:102AB0000C00704763451ABF0CEAD152624512E020
:102AC00080EA010C00180CF0004C06D049181AD10D
:102AD0000CF0004C4CF0FF407047C94208BF6FEA51
:102AE000020C60467047634506D1B2EB0C02F5D08C
:102AF00001F00041484070474A0212BF0846484072
:102B000000F0004070474AB90902B1FA81F29140E1
:102B100043B19B18C00140F0004092E7C90141F069
:102B2000004152420002B0FA80F39840D31A88E77D
:102B3000FF2212EAD05C1DBF12EAD15394459342A2
:102B40002BE09C44D30780EA010243EA002043EAD9
:102B500001211A40A1FB0030C04238BF00187CF1AF
:102B60007F010BDBFE294ADA5B0842EAC15153EAD6
:102B7000006373F1004C51EB10207047D1F1080C49
:102B8000DCF120012FDB5B0810FA01F10B4320FA86
:102B90000CF073F100415041704794451CBF02EAAC
:102BA000D153934280EA010202F000421DD040005E
:102BB00019D0490017D05BB9634514D00902B1FAA6
:102BC00081F39940BCEB030CC00140F00040C1E729
:102BD0000002B0FA80FC10FA0CF0B3EB0C0CC90147
:102BE00041F00041B6E71000704740000AD04900AC
:102BF00008D010F1807F94BF11F1807F02E042F095
:102C0000FF407047D0437047C0F3C75181B1FF29DF
:102C100006D0C110400721F0E04101F1605170473A
:102C200041020CBF40F4E0016FF00041002070470A
:102C300000F0004100020AD0B0FA80FC00FA0CF06B
:102C400001F16051A1EB0C5101EBD021400570471F
:102C5000F0B540F2FF7581EA030C0CF0004C15EA68
:102C600011541DBF15EA1357AC42AF42E5E0BC4119
:102C7000C1F31301C3F31303801A994143F4801382
:102C800004D2641E0018494180185941C90241EA22
:102C90005051B1FBF3F603FB1611A2FB0675D7EBFF
:102CA000C020A94102D2761E80185941C90241EACA
:102CB0005051B1FBF3FE03FB1E11A2FB0E75D7EBC7
:102CC000C020A94103D2AEF1010E801859418902FA
:102CD00041EA9051760546EA8E2EB1FBF3F603FBEE
:102CE0001611A2FB0675D7EB8020A94102D2761EF1
:102CF00080185941C90241EA50514EEA060EB1FB13
:102D0000F3F603FB1611A2FB0675D7EBC020A94111
:102D100002D2761E80185941C90241EA5051B1FBD6
:102D2000F3F703FB1711A2FB0735D3EBC020A94132
:102D300067F100070CBF004247F0010766F3D52793
:102D40004FEA1E31B80814F5806412DDBD0775F135
:102D5000004250EB0E5051EB045111F5801F5CBF47
:102D600041EA0C01F0BD4CF07F6141F0E0410020F0
:102D7000F0BDBD076D0840EA0E5041F48011D4F15A
:102D80000104B4F120060ADAC4F120060200E04092
:102D900001FA06F3E1401843B24015430EE0342C2B
:102DA00013DCC6F1200445EA40056D0820FA06F25E
:102DB000154321FA06F0A1400D43002175F10042B0
:102DC00050F1000051EB0C01F0BD00205FEA0C0156
:102DD000F0BDCFB992185B41B3FA83F704BFB2FAE2
:102DE00082F6BF190B3FB7F120062FBF02FA06F398
:102DF000BB40C7F1200622FA06F638BF3343BA407B
:102E00001CB1E419641E33E77F4231F00041B1FA8E
:102E100081F404BFB0FA80F6A4190B3CB4F120068B
:102E20002FBF00FA06F1A140C4F1200620FA06F6F1
:102E300038BF3143A0403C1B1AE7AC421ABF05EA39
:102E40001357AF4212E050EA41061CBF52EA430654
:102E5000BFE750EA4107304661461CBF41EA0551D1
:102E6000F0BD52EA430C08BFC143F0BD00204FF44F
:102E7000001616EB410F98BF16EB430F08BF16EB79
:102E8000410F24BFC14305E016EB430F0CBF614661
:102E90004CEA0551F0BD0EE0026843680244083078
:102EA0005FEAC37C44BF4B445B1E52F804CB43F83B
:102EB00004CB091FF9D150F8041B0029ECD170474D
:102EC00070B540F2FF7601F0004C1B4406EA115445
:102ED0005D0D1ABFB442B54278E0B3EB410F08BFB5
:102EE00082424BD2C3F3530343F48013C1F3130163
:102EF00041F48011641B0B3C13D9C90241EA5051C3
:102F0000B1FBF3FE03FB1E11A2FB0EE6DEEBC020BD
:102F1000B14101D28018594150EA010643D00B3C1F
:102F2000EBD80B34C4F12006A14020FA06F6A040ED
:102F30003143B1FBF3FE03FB1E11A2FB0EE6B0EB27
:102F40000E00B14101D28018594102BF0146203D17
:102F5000002041B3B1FA81F39940C3F1200220FA75
:102F600002F211439840ED1A0A3509DBC00A40EA23
:102F700041504CEAD12101EB055170BD13D070BD19
:102F8000D5F10B05B5F1200210DAC5F120020300DE
:102F9000E84001FA02F6E940934073F100437041C2
:102FA00051EB0C0170BD6146002070BD402DFADC74
:102FB000430821FA02F0C2F1200511FA05F6334365
:102FC00073F1004370415CF1000170BD53EA020EE1
:102FD0001ABFB442B54237E0B3EB410F08BF82429B
:102FE000CCD25B08B3FA83F504BFB2FA82F6AD190E
:102FF0000B3DB5F1200624BF02FA06F305E0AB4015
:10300000C5F1200622FA06F63343AA40D5F10105A0
:1030100024427FF46BAF31F00041B1FA81F404BF78
:10302000B0FA80F6A4190B3CB4F1200624BF00FAD4
:1030300006F105E0A140C4F1200620FA06F631436E
:10304000A040D4F1010455E74FF4001515EB410FF2
:103050002CBF6FF00041EB4218BF6FF00041BDE89C
:103060007040AFF30080704701F000428B1AA3F16B
:103070006051B1F5801F0ADBB1F17F6F1FD242EAC8
:10308000C102C10071F1004142EB507070470B1555
:10309000C3F10903212B10D2890241EA9051800229
:1030A0000128494141F0004121FA03F0C3F1200316
:1030B000994071F1004150417047100070476FF026
:1030C000000013EB103F5CBF000E42EAC050704797
:1030D00090EA010F40F1728081F00041431A4FF0F5
:1030E00000423EBF5340C01AC918D3095FEAD05C02
:1030F00013EB400F34BFB3EB410F40E07CEBD153F7
:103100000CD342EA012122D8D1EB402009D3400A56
:1031100028BF5FEA500140EBCC507047401A15D0F1
:103120004002B0FA80F2521C9040400A4FEA3C2321
:10313000B3EB026384BF00EB730007E040F40000D0
:103140001A16DB07C2F10102D04018437047182B52
:10315000FCDC31FA03F202FA03F3591A38BF42F0E9
:103160000102D2EB40203CBF0018ACF1010C5FEA39
:10317000CC5CC20572F100414CEB5020704713EB60
:10318000400F0FD2C94209D0ACEBD153022B03DB65
:103190004902172BDDDD70479143401AC042D5D15B
:1031A0000020704713EB410FD0D36FF00000704741
:1031B00090EA010F7FF592AF81F00041421A3CBFC7
:1031C000801A8918C0F3C752FF2A4FF0004C22D052
:1031D000C1F3C7534BB3D21AD2F119032EDD4CEA17
:1031E00001214CFA03F321EA0303D1404CEA002207
:1031F0006FF3160052180FD353EAC2534CEA52022F
:1032000073EB0C0C50EB1220420012F1807F38BFA0
:1032100070476FF31600704753EA026322EA0C020C
:1032200073EB0C0C50EB12207047490212BF9A420C
:1032300000EB5120EFE7D2F11703D2D570470368B6
:103240005A1C02601970704738B50400002C01D177
:103250000120E0E094F83D00002805D1002084F82A
:103260003C00200003F08DF8242084F83D00206805
:10327000016849084900206801602068016851F42C
:103280000041206801602068016831F40041206835
:10329000016002F09EFF0100DFF87C316068984217
:1032A00008D2DFF87801814201D2012000E000203D
:1032B000C0B207E0DFF86801814201D2012000E0DE
:1032C0000020C0B2012801D10120A4E0DFF85401A0
:1032D000B1FBF0F220684068800980011043256846
:1032E00068602068056A6068984201D2521C07E055
:1032F0004FF4967042434FF47A70B2FBF0F2521CD6
:10330000AD09AD012A43206802622068C269606885
:10331000984214D2481E63685B00B0FBF3F0401C77
:103320000005000D042801D204213EE0491E60681A
:103330004000B1FBF0F1491C0905090D35E0A0681A
:10334000002809D14B1E656803204543B3FBF5F007
:10335000401C0005000D0AE04D1E63681920434320
:10336000B5FBF3F0401C0005000D50F48040000553
:1033700001D1012119E0A068002809D1491E636824
:1033800003204343B1FBF3F1491C0905090D0AE091
:10339000491E636819204343B1FBF3F1491C090539
:1033A000090D51F4804151F40041DFF87C000240E6
:1033B0000A432068C2612068016831F0C001E069F9
:1033C0000143206A01432068016020688168DFF8BA
:1033D0005C00014020690143E0680143206881608E
:1033E0002068C168090A0902A069014360690143B4
:1033F0002068C1602068016851F001012068016007
:1034000000202064202084F83D000020206300205C
:1034100084F83E00002032BDA186010080841E0099
:1034200000093D0040420F000030FFFF007CFFFF1D
:103430002DE9FE4307000C009046994603F002F97F
:10344000050097F83D00202840F0A380009519233F
:103450000122DFF89C14380000F09CFB002801D00A
:10346000022097E097F83C00012801D1022091E06A
:10347000012087F83C0038680068C00705D4386828
:10348000006850F00100396808600C9E0B98DDF868
:1034900028C04B46424621003C68246834F400644E
:1034A000D7F800E0CEF80040212487F83D404024C2
:1034B00087F83E4000243C64C7F824C07885788DA6
:1034C0003885DFF82804F862019500969BB292B225
:1034D00089B2380000F010FA002822D0012059E00B
:1034E000786A007839680861786A401C7862388D9B
:1034F000401E3885788D401E7885386840694007C1
:103500000FD5388D00280CD0786A017838680161B1
:10351000786A401C7862388D401E3885788D401E50
:103520007885388D002811D02A003100380000F04D
:103530000DFC0028D4D0386C042805D13868006808
:1035400050F4007039680860012023E02A0031003F
:10355000380000F02CFC00280AD0386C042805D173
:103560003868006850F4007039680860012011E084
:103570003868006850F4007039680860202087F8C7
:103580003D00002087F83E00002087F83C00002026
:1035900000E00220BDE8FE832DE9FE4306000F0097
:1035A000904699460020009003F04CF8040096F8ED
:1035B0003D00202840F09581009419230122DFF876
:1035C0003013300000F0E6FA002801D0022089E133
:1035D00096F83C00012801D1022083E1012086F801
:1035E0003C0030680068C00705D43068006850F0BF
:1035F0000100316808600C9D0B98DDF828C04B462F
:103600004246390037683F6837F40067D6F800E073
:10361000CEF80070222786F83D70402786F83E706D
:1036200000273764C6F824C07085708D3085DFF8B8
:10363000BC02F062019400959BB292B289B2300054
:1036400000F0DBF9002801D001204BE1308D00288B
:103650000FD1002000903068406900903068806988
:10366000009000983068016851F400713068016082
:1036700052E0308D012817D13068016831F4806143
:103680003068016072B60020009030684069009098
:1036900030688069009000983068016851F40071CA
:1036A0003068016062B637E0308D022817D130688B
:1036B000016851F400613068016072B6002000902A
:1036C00030684069009030688069009000983068E8
:1036D000016831F480613068016062B61CE03068D6
:1036E000016851F48061306801600020009030680A
:1036F0004069009030688069009000980CE0306864
:103700000169706A0170706A401C7062308D401EE1
:103710003085708D401E7085308D002800F0D68079
:10372000308D042880F0A980308D012808D1220036
:103730002900300000F06EFB0028E0D00120D1E02D
:10374000308D02282ED100942B000022DFF8A41126
:10375000300000F01FFA002801D00120C2E072B64C
:103760003068016851F400713068016030680169A7
:10377000706A0170706A401C7062308D401E308526
:10378000708D401E708562B630680069716A08707D
:10379000706A401C7062308D401E3085708D401EF6
:1037A0007085B9E700942B000022DFF84811300043
:1037B00000F0F0F9002820D13068016831F4806110
:1037C0003068016072B630680169706A0170706AB1
:1037D000401C7062308D401E3085708D401E70859B
:1037E000414801681920B1FBF0F14FF47A70B1FB48
:1037F000F0F123204143009105E0012072E03068A0
:103800004069400717D40098401E00900098002897
:10381000F5D100203063202086F83D00002086F896
:103820003E00306C50F02000306462B6002086F814
:103830003C00012056E03068016851F400713068A6
:10384000016030680169706A0170706A401C7062C2
:10385000308D401E3085708D401E708562B6306898
:103860000169706A0170706A401C7062308D401E80
:103870003085708D401E70854EE722002900300093
:1038800000F0C8FA002801D001202BE0306801695F
:10389000706A0170706A401C7062308D401E308505
:1038A000708D401E70853068406940077FF534AFE9
:1038B00030680169706A0170706A401C7062308DF6
:1038C000401E3085708D401E708525E7202086F8CB
:1038D0003D00002086F83E00002086F83C000020D5
:1038E00000E00220BDE8FE83040000200000FFFF8E
:1038F00002001000040001002DE9F84380468946CB
:1039000014001D00089E099FD8F80000016851F4BA
:103910008071D8F8000001600097330000225FF04A
:103920000111404600F036F900280AD0D8F800000E
:103930000068C00503D54FF40070C8F840000320AC
:1039400059E019F0FE09D8F80000C0F810903B00CB
:103950003200DFF8BC14404600F07FF9002801D0A7
:10396000012048E000200090D8F800004069009055
:10397000D8F800008069009000983A003100404675
:1039800000F0E4F900280DD0D8F84000042807D151
:10399000D8F80000006850F40070D8F800100860F3
:1039A000012028E0ADB2012D04D1E4B2D8F8000026
:1039B00004611FE0210089B2090AC9B2D8F80000E9
:1039C00001613A003100404600F0C0F900280DD0F6
:1039D000D8F84000042807D1D8F80000006850F457
:1039E0000070D8F800100860012004E0E4B2D8F8B4
:1039F000000004610020BDE8F2832DE9FC47824607
:103A0000884614001D000A9E0B9FDAF8000001682A
:103A100051F48061DAF800000160DAF80000016812
:103A200051F48071DAF80000016000973300002241
:103A30005FF00111504600F0ADF800280AD0DAF826
:103A400000000068C00503D54FF40070CAF84000BC
:103A500003209DE018F0FE01DAF800000161DFF8B4
:103A6000B0933B0032004946504600F0F6F800287B
:103A700001D001208CE000200090DAF800004069BD
:103A80000090DAF800008069009000983A00310058
:103A9000504600F05BF900280DD0DAF84000042809
:103AA00007D1DAF80000006850F40070DAF800106E
:103AB000086001206CE0ADB2012D04D1E4B2DAF867
:103AC000000004611FE0200080B2000AC0B2DAF8F2
:103AD000001008613A003100504600F037F9002824
:103AE0000DD0DAF84000042807D1DAF800000068A9
:103AF00050F40070DAF800100860012048E0E4B2E9
:103B0000DAF8000004613A003100504600F01EF976
:103B100000280DD0DAF84000042807D1DAF80000B8
:103B2000006850F40070DAF80010086001202FE0FF
:103B3000DAF80000016851F48071DAF800000160E1
:103B40000097330000225FF00111504600F022F888
:103B500000280AD0DAF800000068C00503D54FF449
:103B60000070CAF84000032012E058F001085FFA24
:103B700088F8DAF80000C0F810803B0032004946AF
:103B8000504600F06AF8002801D0012000E0002033
:103B9000BDE8F6872DE9F04105000E0017001C0076
:103BA000DDF818803000000CC0B201280AD1286866
:103BB0004169314089B2B0B2814201D101210BE0AB
:103BC000002109E028688169314089B2B0B28142A0
:103BD00001D1012100E000213800C0B2814239D179
:103BE00014F1010FDED002F02DFDB0EB080084428D
:103BF00001D3002CD6D13000000CC0B201280AD16C
:103C000028684169314089B2B0B2814201D10121B5
:103C10000BE0002109E028688169314089B2B0B227
:103C2000814201D1012100E000213800C0B281426F
:103C3000B8D100202863202085F83D00002085F8B9
:103C40003E00286C50F020002864002085F83C00DD
:103C5000012000E00020BDE8F081F8B505000E006D
:103C600014001F003000000CC0B201280AD12868DF
:103C70004169314089B2B0B2814201D101200BE0EB
:103C8000002009E028688169314089B2B0B28142E0
:103C900001D1012000E00020002855D128684069AA
:103CA000400517D414F1010FDCD002F0CBFCC01B8F
:103CB000844201D3002CD5D13000000CC0B20128C1
:103CC00025D128684169314089B2B0B281421CD106
:103CD000012026E02868006850F400702968086018
:103CE0007FF480612868416100202863202085F8E6
:103CF0003D00002085F83E00286C50F00400286448
:103D0000002085F83C0001201FE0002009E0286821
:103D10008169314089B2B0B2814201D1012000E015
:103D2000002000289ED100202863202085F83D0037
:103D3000002085F83E00286C50F020002864002008
:103D400085F83C00012000E00020F2BD70B50500C0
:103D50000C00160028684069000626D4280000F0F0
:103D600096F8002803D114F1010FF3D001E00120EF
:103D70001CE002F067FC801B844201D3002CE9D1D7
:103D8000286840690006E5D400202863202085F8D3
:103D90003D00002085F83E00286C50F0200028648B
:103DA000002085F83C00012000E0002070BD70B5C7
:103DB00005000C00160028684069400726D428003A
:103DC00000F065F8002803D114F1010FF3D001E0F1
:103DD00001201CE002F036FC801B844201D3002C41
:103DE000E9D1286840694007E5D4002028632020F5
:103DF00085F83D00002085F83E00286C50F020003A
:103E00002864002085F83C00012000E0002070BDFF
:103E10000200010070B505000C001600286840691A
:103E2000400632D428684069C00612D57FF01001E0
:103E30002868416100202863202085F83D0000208B
:103E400085F83E00286C2864002085F83C0001209D
:103E50001CE002F0F7FB801B844201D3002CDDD173
:103E6000286840694006D9D400202863202085F8BE
:103E70003D00002085F83E00286C50F020002864AA
:103E8000002085F83C00012000E0002070BD0168A2
:103E90004969490514D57FF4806201684A610021AF
:103EA0000163202180F83D10002180F83E10016C54
:103EB00051F004010164002180F83C10012000E071
:103EC0000020704710F0004C68B148BF4042B0FA83
:103ED00080F18840D1F19D014CEAC15C010671F18D
:103EE00000414CEB1020704780B50749086850F03E
:103EF00010000860032002F012FC0F2002F03EFCCC
:103F000002F01EFA002002BD0020024010B504009D
:103F1000002C01D101202FE094F83D00002805D1AC
:103F2000002084F83C00200002F085FA022084F88A
:103F30003D00211D206800F093FA012084F846001E
:103F4000012084F83E00012084F83F00012084F81D
:103F50004000012084F84100012084F84200012043
:103F600084F84300012084F84400012084F84500CF
:103F7000012084F83D00002010BD10B50400002C85
:103F800001D101202FE094F83D00002805D1002048
:103F900084F83C00200002F017FC022084F83D0069
:103FA000211D206800F05CFA012084F84600012001
:103FB00084F83E00012084F83F00012084F840008E
:103FC000012084F84100012084F84200012084F897
:103FD0004300012084F84400012084F845000120BA
:103FE00084F83D00002010BD10B50400002902D166
:103FF00094F83E000BE0042902D194F83F0006E05B
:10400000082902D194F8400001E094F84100012809
:1040100001D001204AE0002904D1022084F83E00AA
:10402000C0B211E0042904D1022084F83F00C0B2DC
:104030000AE0082904D1022084F84000C0B203E05D
:10404000022084F84100C0B20122206800F02CFB5D
:1040500017482168814205D121684A6C52F4004218
:1040600021684A64216881420CD02068B0F1804FF9
:1040700008D021680F48814204D02168DFF8380059
:1040800081420CD12068806810F0070006280CD00F
:104090002068006850F001002168086005E0206891
:1040A000006850F0010021680860002010BD000089
:1040B000002C0140000400400008004038B5040016
:1040C0000D00002C01D101205CE094F83D00002897
:1040D00005D1002084F83C00200002F0DBF902202A
:1040E00084F83D0020688168DFF880010140206885
:1040F0008160211D206800F0B3F920688168206884
:1041000083692068026A28680143DFF8640103407C
:10411000A8680343A86953EA0023DFF85801034065
:10412000DFF854010340E8680343E86953EA0023D9
:10413000286953EA0013286A53EA003332F0220256
:1041400068680243686952EA00122068816020684A
:10415000836120680262012084F84600012084F80F
:104160003E00C0B2012084F83F00C0B2012084F8B4
:104170004200C0B2012084F84300C0B2012084F89C
:104180003D00002032BD000038B5040094F83E50D8
:1041900094F83F0094F8422094F84330002910D15D
:1041A000EDB2012D02D1D2B2012A01D001205BE093
:1041B000022084F83E00C0B2022084F84200C0B25F
:1041C00030E0042910D1C0B2012802D1DBB2012BAA
:1041D00001D0012048E0022084F83F00C0B2022054
:1041E00084F84300C0B21DE0EDB2012D08D1C0B289
:1041F000012805D1D2B2012A02D1DBB2012B01D0B4
:10420000012031E0022084F83E00C0B2022084F890
:104210003F00C0B2022084F84200C0B2022084F8FD
:104220004300C0B2002902D0042906D00BE00122CD
:104230000021206800F038FA0FE0012204212068F4
:1042400000F032FA09E001220021206800F02CFA87
:1042500001220421206800F027FA2068006850F04D
:10426000010021680860002032BD0000F8BFFFFF98
:10427000FCFCFFFFF3F3FFFF0F0FFFFF70B504001F
:104280000E00002594F83C00012801D102206FE0C7
:10429000012084F83C00002A06D0042A1BD0082AFA
:1042A00031D00C2A46D05DE03100206800F00CF9D6
:1042B0002068806950F00800216888612068816961
:1042C00031F004012068816120688169306901430F
:1042D0002068816147E03100206800F022F9206801
:1042E000816951F40061206881612068816931F43D
:1042F00080612068816120688069316950EA01200D
:10430000216888612FE03100206800F03BF92068C7
:10431000C16951F008012068C1612068C16931F0AC
:1043200004012068C1612068C169306901432068C7
:10433000C16118E03100206800F054F92068C169BB
:1043400051F400612068C1612068C16931F4806165
:104350002068C1612068C069316950EA0120216884
:10436000C86100E00125002084F83C002800C0B2AC
:1043700070BD38B50400002594F83C00012801D137
:1043800002206CE0012084F83C00022084F83D000B
:104390002068826832F0770232F47F4220688260BF
:1043A000086800284DD010284BD0202849D030284C
:1043B00047D040283BD0502825D060282DD07028E9
:1043C00007D0B0F5805F03D0B0F5005F0ED03DE0C0
:1043D0003DE0CB684A688968206800F05AF9206897
:1043E000816851F077012068816030E0CB684A68CD
:1043F0008968206800F04DF92068816851F4804197
:104400002068816023E0CA684968206800F014F9D8
:104410005021206800F035F919E0CA684968206821
:1044200000F01CF96021206800F02BF90FE0CA6849
:104430004968206800F000F94021206800F021F967
:1044400005E00968206800F01CF900E00125012062
:1044500084F83D00002084F83C002800C0B232BD42
:1044600010B40468714B984208D0B0F1804F05D069
:104470006F4A904202D06F4A904204D134F07004E7
:1044800022004C681443984208D0B0F1804F05D008
:10449000674A904202D0674A904204D134F4407493
:1044A0002200CC68144334F080044A691443046049
:1044B0008A68C2620A688262984201D1096901630E
:1044C0000121416110BC704770B4056A026A52084C
:1044D000520002624368846934F07004A408A400A6
:1044E0000A68144335F002058A6815434F4EB042FE
:1044F00005D135F00805CA68154335F00405B0420A
:1045000008D133F4807333F400734A6913431A00FB
:104510008B6913434360846149684163056270BCE1
:10452000704770B4056A026A32F010020262426893
:10453000836933F4E04333F440730C6853EA042393
:1045400035F020058C6855EA0415384EB04206D186
:1045500035F08005CC6855EA041535F04005B042C9
:1045600009D132F4806232F400624C6952EA84026A
:104570008C6952EA84024260836149688163056202
:1045800070BC704770B4056A026A32F480720262CD
:104590004368C46934F07004A408A4000A68144392
:1045A00035F400758A6855EA0225204EB04206D1DE
:1045B00035F40065CA6855EA022535F48065B042D5
:1045C00009D133F4805333F400534A6953EA021398
:1045D0008A6953EA02134360C4614968C163056292
:1045E00070BC704730B4026A036A33F480530362CC
:1045F0004468C36933F4E04333F440730D6853EA0D
:10460000052332F400528D6852EA0532074DA84264
:1046100004D134F480444D6954EA85144460C36184
:1046200049680164026230BC70470000002C014000
:10463000000400400008004010B4036A046A6408E3
:1046400064000462846934F0F00454EA021433F024
:104650000A0319438461016210BC704710B4036AF5
:10466000046A34F010040462846934F4704454EA37
:10467000023433F0A00353EA01138461036210BCD7
:104680007047826832F07002114351F00701816077
:10469000704710B4846834F47F442143114351EAD5
:1046A0000321816010BC704710B4012411F01F0376
:1046B0009C40036A33EA04040462036A11F01F0198
:1046C00012FA01F11943016210BC704738B50500B8
:1046D00001F0B8FF040015F1010F02D00448007882
:1046E000451901F0AFFF001BA842FAD331BD00BF4E
:1046F0004000002062B38B0708D0521E11F8013B26
:1047000000F8013B00F024808B07F6D1830740F0CE
:10471000208000BF103A07D330B4B1E83810103A07
:10472000A0E83810F9D230BC530724BFB1E8081014
:10473000A0E8081044BF51F8043B40F8043BD207FE
:1047400024BF31F8022B20F8022B44BF0B780370F2
:104750007047121F17D35B0009D151F8043B20F8B2
:10476000023B1B0C121F20F8023BF6D20BE051F863
:10477000043B00F8013B1B0A20F8023B1B0C121FF4
:1047800000F8013BF3D238BF121D521E24BF11F8AE
:10479000013B00F8013BF8D8704701020CB430B57A
:1047A00083B00A4606A902910446002501940095AB
:1047B00002AB01A9084878441E3002F00AF80199BA
:1047C0000D7000284EBF04460198041B204603B01C
:1047D00030BC5DF80CFB00BF67EAFFFF10B50400BA
:1047E000002C01D1012035E0A0690028FFD194F808
:1047F0004100002805D1002084F84000200001F08D
:10480000CAFE242084F841002068C16831F40051B8
:104810002068C160200000F0F3FA2068016931F4DB
:104820009041206801612068416931F02A012068C7
:1048300041612068C16851F400512068C1600020C6
:104840006064202084F84100202084F84200002089
:104850006063002010BD2DE9FC4106000D0014002E
:104860001F00002096F8410020284BD1002D03D0D6
:10487000200080B2002801D1012044E000207064B3
:10488000212086F8410001F0DDFE8046B484F484E6
:10489000B068B0F5805F04D13069002801D10024F0
:1048A00012E02C0000250FE0217830684160641C84
:1048B00007E0002CF8D12988C905C90D306841608E
:1048C000AD1CF08C401EF084F08C00280AD00097BC
:1048D000434600228021300000F05CF90028E8D037
:1048E000032010E00097434600224021300000F0F2
:1048F00051F9002801D0032005E0202086F841006E
:10490000002000E00220BDE8F68138B504002068F0
:1049100001682068C268206843690020002011F007
:104920000F00002807D18D0605D5950603D5200078
:1049300000F0EFF92DE1002870D0D80702D412F46E
:10494000907F6BD00800C00705D5D00503D5606CFB
:1049500050F001006064480706D51800C00703D571
:10496000606C50F002006064880706D51800C0072C
:1049700003D5606C50F004006064080707D590060A
:1049800001D4D80703D5606C50F008006064606CF7
:10499000002842D0880604D5900602D5200000F0F9
:1049A000B8F920684069800910F00100616C0907BE
:1049B00001D400282CD0200000F031F92068406993
:1049C000400621D52068143050E8001F31F0400126
:1049D000206810F1140242E800100028F2D1E06BC8
:1049E00000280DD00FF29921E06B4163E06B02F0DB
:1049F00079FE002811D0E06BE16B496B88470CE031
:104A0000200002F0D5FE08E0200002F0D1FE04E014
:104A1000200002F0CDFE00206064BAE0206B012887
:104A200040F0A780C80640F1A480D00640F1A180E4
:104A30000020009020680068009020684068009086
:104A4000009820684069400656D5E06B00684068D1
:104A5000010089B200294ED00100A28D89B2914295
:104A600049D2E085E06B806920283BD020680C307B
:104A700050E8001F31F48071206810F10C0242E808
:104A800000100028F2D12068143050E8001F4908B7
:104A90004900206810F1140242E800100028F2D109
:104AA0002068143050E8001F31F04001206810F1F8
:104AB000140242E800100028F2D1202084F84200BD
:104AC0000020206320680C3050E8001F31F01001F6
:104AD000206810F10C0242E800100028F2D1E06BCF
:104AE00002F0DAFD02206063A18DE08D091A89B21F
:104AF000200002F05EFE4CE0A18DE08D091AE08DF1
:104B0000002835D0080080B2002831D020680C3051
:104B100050E8002F32F49072206810F10C0343E843
:104B200000200028F2D12068143050E8002F5208ED
:104B30005200206810F1140343E800200028F2D14D
:104B4000202084F842000020206320680C3050E8C8
:104B5000002F32F01002206810F10C0343E800200F
:104B60000028F2D10220606389B2200002F021FE09
:104B70000FE0080605D5100603D5200000F08AF8DE
:104B800007E0480605D5500603D5200000F0B3F82D
:104B9000FFE731BD2DE9F04105000E0090461F00F2
:104BA000069C286800683040B04201D1012100E035
:104BB00000214046C0B281422ED114F1010FF0D045
:104BC000002C04D001F03EFDC01B8442E9D22868CD
:104BD0000C3050E8001F31F4D071286810F10C023D
:104BE00042E800100028F2D12868143050E8001F75
:104BF00049084900286810F1140242E80010002812
:104C0000F2D1202085F84100202085F842000020C4
:104C100085F84000032000E00020BDE8F081016835
:104C20000C3151E8002F32F49072016811F10C033D
:104C300043E800210029F2D10168143151E8002F26
:104C400052085200016811F1140343E800210029C1
:104C5000F2D1016B01290CD101680C3151E8002F10
:104C600032F01002016811F10C0343E80021002921
:104C7000F2D1202180F8421000210163704700002A
:104C800080B5406A0021C1850021C18402F090FDF9
:104C900001BD000090F8411021292AD18168B1F5A9
:104CA000805F0CD10169002909D1016A0A88D20507
:104CB000D20D01684A60016A891C016205E0026A3E
:104CC000511C0162127801684A60C18C491EC1847E
:104CD00089B200290BD10168CA6832F080020168EC
:104CE000CA600168C96851F040010068C1600020D5
:104CF00000E00220704780B50168CA6832F04002C7
:104D00000168CA60202180F8411002F053FD0020A4
:104D100002BD80B590F8421022296FD18168B1F5AB
:104D2000805F0DD1016900290AD10021816A0268E2
:104D30005268D205D20D0A80816A891C816217E00F
:104D4000826A00218168B1F5805F05D08168002901
:104D500006D10169002903D101684968117004E096
:104D60000168496811F07F011170816A491C8162F4
:104D7000C18D491EC18589B200293DD10168CA682B
:104D800032F020020168CA600168C96831F480719C
:104D90000268D16001684A695208520001684A619C
:104DA000202180F8421000214163016B01291FD1AD
:104DB0000021016301680C3151E8002F32F010022C
:104DC000016811F10C0343E800210029F2D10168C8
:104DD0000968C90608D50021009101680968009199
:104DE0000168496800910099818D02F0E2FC01E0C0
:104DF00002F0E1FC002002E0002000E0022002BD01
:104E0000F8B504002068016931F44051E0680143BD
:104E100020680161A268206902436169114320682A
:104E2000C2682B48024011432068C1602068416974
:104E300031F44071A069014320684161216825482F
:104E4000814202D101F0D0F901E001F0C2F97FF016
:104E50006301192202FB00F36568AD00B3FBF5F5B1
:104E60006423B5FBF3F302FB00F56668B600B5FBFF
:104E7000F6F502FB00F66768BF00B6FBF7F764269D
:104E8000B7FBF6F601FB06552E0132366425B6FB5C
:104E9000F5F515F0F00515EB031502FB00F3666858
:104EA000B600B3FBF6F3504362689200B0FBF2F237
:104EB0006420B2FBF0F001FB0031090132316420C3
:104EC000B1FBF0F010F00F00451920688560F1BDCE
:104ED000F3E9FFFF0038014050B1B0FA80F188409B
:104EE000C1F19D01C905020672F1004241EB10209B
:104EF00070472E0040F2FF7C0B0D4DD0634566D20B
:104F000030B421EA035141F4801103F2FD3C5FEA21
:104F10005C0C01D300184941890041EA907180007E
:104F20004FF440140023E202D50AB1F5100107D472
:104F30006D081DD2091B641900184941491BF7D59A
:104F40006D080AD20919641B00184941491BEFD5A5
:104F50006D08F7D301E0520817D0C01861419B1AC1
:104F6000AC4100184941801AA941F4D452080AD032
:104F7000C01AA1419B186C4100184941801AA941EF
:104F8000E9D45208F4D15B1C6C4161084FEA33004C
:104F900001EB0C5130BC704750EA0103FBD030B438
:104FA000B1FA81F311B9B0FA80F41B190B3BB3F1DC
:104FB00020042FBF00FA04F19940C3F1200420FA25
:104FC00004F438BF21439840D3F101039DE76345C2
:104FD00014BF50EA410CDEE711F5801FDBD8D9433E
:104FE000AFF30080704700002DE9F64D0446884677
:104FF000DFF87003DFF870132246434600F0FCF937
:105000000F4627F00041DFF86423DFF8643302F035
:10501000D3FB06465BD2DFF85C03FD0F65F3DF7060
:10502000034600223046394600F0BCFA00F0A8FCE6
:10503000060047D002F0DAFB0022CF4B00F0DCF98B
:1050400005460F464FF0A040CC492A463B4600F0AB
:10505000D3F92246434600F0A5FA044688464FF0AD
:10506000C040C7492A463B4600F0C6F9224643469F
:1050700000F098FA044688464FF00050C1492A468D
:105080003B4600F0B9F92246434600F08BFA04464D
:1050900088460020BC492A463B4600F0ADF922462E
:1050A000434600F07FFA044688464FF00050B74967
:1050B0002A463B4600F0A0F92246434600F072FA29
:1050C00004468846019806F003052D18ACE04FEA27
:1050D000480141EAD4714815C91710F1010F14D1E4
:1050E0004FF0FF36B14208BFB04209D14FEA083352
:1050F00043EA14532203002B08BF002A40F02E81FC
:1051000030466FF00041BDE8FC8D24F0000038F01F
:10511000004108BF002805D1019808B1DFF870826E
:1051200000201CE13046934EFD0F65F3DF763946D3
:105130000022334600F036FA4B0043EAD0734200B7
:10514000002B08BF002A17D040F23346A6EB535677
:10515000352E04DB00F0000601F000470EE0202EA3
:1051600003DD203EF140B14000E001D1002003E02A
:10517000002EC4BFF040B04006460F4626F00002A5
:1051800037F0004308BF002A46D000207A493B464A
:1051900000F032F905468B464FF0A04077492A4689
:1051A0005B4600F029F92246434600F0FBF904462D
:1051B00088464FF0C04072492A465B4600F01CF911
:1051C0002246434600F0EEF9044688464FF0005070
:1051D0006C492A465B4600F00FF92246434600F030
:1051E000E1F904468846002067492A465B4600F0FC
:1051F00003F92246434600F0D5F9044688464FF0AD
:10520000005062492A465B4600F0F6F822464346C3
:1052100000F0C8F904468846019D3046394600F042
:10522000AFFB00F00300451928F00047002F05D51B
:1052300000204FF00041061B61EB070700225FF0E2
:10524000795304D54FF00041921A61EB03039F425A
:1052500005DAEA077BD50024DFF8348177E02246BF
:1052600043462046414600F0C7F80646E8070F4689
:1052700031D54848484932463B4600F0BDF8474AD8
:10528000474B00F08FF932463B4600F0B5F8454AEF
:10529000454B00F087F932463B4600F0ADF8434AF3
:1052A000434B00F07FF932463B4600F0A5F8414AF7
:1052B000414B00F077F932463B4600F09DF86FF025
:1052C00051023E4B00F06EF932463B4600F094F836
:1052D00000222F4B37E032463B462046414600F045
:1052E0008BF882468B463648364932463B4600F0BC
:1052F00083F8354A354B00F055F932463B4600F00D
:105300007BF8334A334B00F04DF932463B4600F010
:1053100073F8314A314B00F045F932463B4600F014
:105320006BF82F4A2F4B00F03DF932463B4600F018
:1053300063F82D4A2D4B00F035F952465B4600F0DC
:105340005BF82246434600F02DF904468846A8073C
:1053500004D588F000412046BDE8FC8D204641463A
:10536000BDE8FC8D83C8C96D305FE43F0000A0FF3D
:10537000FFFFDF410000E03F0000303EFB21B9C1EC
:10538000B41011C026A651BE5C14D3BC9A833BBB9B
:105390000000F03F09260A1039BA213E3BA861C639
:1053A000F97D92BE63AC30909F01FA3EF6FB511638
:1053B0006CC156BFB10255555555A53FFFFFDFBF24
:1053C000B08F2FC310D8E53D8F0C73A1E1E55ABE15
:1053D0004DADE44FE31DC73E3EE3B519A0012ABF22
:1053E000FAF010111111813F425555555555C5BF61
:1053F0000122F9E50022F7E530B540F2FF7C1CEA16
:1054000011541DBF1CEA1355644565453FE06419FE
:1054100081EA030C6FF35F530CF0004C43F48013EC
:10542000C90241F0004141EA505EC5021100A5FBEE
:10543000020200284FF00000EEFB01204FF00001B7
:10544000E3FB052118BF42F0010240180021494149
:10545000E3FB0E01A4F580640D0302D292184041D3
:10546000494154F1010470DD450872F1004250F1E8
:10547000000051EB0451A1F5801102D441EA0C0166
:1054800030BD40F2FF7E4CEA0E51002030BD0CEAE8
:105490001355644518BF654581EA030C0CF0004CB8
:1054A00041D050EA410E1CBF52EA430E02E0614671
:1054B000002030BD24422C441BD15FEA050EF6D0FB
:1054C000090302BF01460020AEF1140EB1FA81F5C6
:1054D000AEEB050401FA05FE0C35C5F1200100FA1A
:1054E00005F5C8404EEA000E6FF35F5343F4801396
:1054F0009CE733F00043B3FA83F504BFB2FA82FEAF
:1055000075440B3D641BB5F1200E2FBF02FA0EF35C
:10551000AB40C5F1200E22FA0EFE38BF43EA0E035F
:10552000AA40641C7CE750EA410E14BF52EA430EC5
:105530006FF000014FF4001515EB430F8EBF1946B5
:1055400015EB410F9DE7B4D830BDD4F10104B4F19F
:1055500020050FDAC4F12005520828BF42F00102ED
:1055600010FA05FE01FA05F57244E2BFE040284357
:10557000E1400FE0352C9ADCC5F1200452EA4002EC
:1055800020FA05F218BF42F0010231FA05F0A140FD
:105590000A43002172F1004250F1000051EB0C016E
:1055A00030BD000070B491EA030F4FF0004540F1A8
:1055B000BF806B40841A71EB030604D26E40001B5F
:1055C000B141121973414FF4001C1CEB410F34BF61
:1055D0007CEB430683E00C0DA4EB1356362E00F350
:1055E0007C80012E45EAC32341DC43EA525312BFBB
:1055F000D20292025B08240545EAC12141EA5051DA
:10560000D2EBC020994125D407D1B0FA80F610FA28
:1056100006F162D00020203608E0B1FA81F6B140F0
:10562000C6F1200220FA02F21143B0404FEAF474AE
:10563000B4EB465434F001064FEA74040AD8D6F5A8
:105640000016760D04F00044F04061FA06F2504076
:10565000F1404840C00A40EA415021F0004128BFD3
:105660005FEA500550F1000044EBD12135E0DB0A40
:1056700045EAC121C90AB6F120050EDD42EA02421F
:10568000120CC5F1200603FA06F6EB4042EA0605C5
:105690006D42984161F100010DE062FA06F5F240B9
:1056A000554063FA06FC82EA0C02F3405A406D4210
:1056B000904161EB030111F4801F05D1641E620566
:1056C00002D06D004041494121F48011430875F139
:1056D000004350F1000041EB045170BC70471CEBDB
:1056E000410F15D223F0004352EA43060BD04FEA94
:1056F0004C0CBCEB410F04D80C0D661E342EB7DDEC
:10570000EBE7801A994150EA410608BF0021E4E71F
:1057100008BF1CEB430F28BF6FF00001DDE700005E
:1057200070B491EA030F4FF000457FF543AF6B4033
:10573000841A71EB030603D2001BB14112197341A5
:105740004FF4001C1CEB410F34BF7CEB430442E0E0
:105750000C0DA4EB1356352E4FDC45EAC323DB0AB0
:1057600045EAC121C912B6F120050DDD63FA05F63F
:10577000EB4086EA0305124218BF45F00105C01848
:1057800051F100010CD213E062FA06F5F2405540E7
:10579000F3415A40B340F3405A408018594107D36F
:1057A00049085FEA30005FEA350528BF45F001058A
:1057B00001F58011420875F1004250F1000041EB03
:1057C00004514E0016F5001F70BC38BF7047002012
:1057D000090D090570471CEB410F10D252EA430630
:1057E0000BD0BCEB410F05D80C0DAB43661E342E1D
:1057F000B6DD02E0AB438018594170BC704770BC05
:10580000704700002DE9F84C0CB484B00B46DDE97C
:1058100004677900024641EAD6714815C917CDE9F7
:105820000201DDE9020110F1010F1FBF5D0045EA31
:10583000D2756C1514F1010F44D0D80F1ABF23F0A4
:10584000004308240024FE0F07D0DDE9040121F005
:105850000045CDE9040584F00604DDE90467BB4694
:10586000BBF1000F08D500204FF00041801B61EB19
:105870000B0BCDE9000B01E0CDE9006B19001046E0
:1058800005D500254FF0004B281A6BEB0101DDE92F
:1058900000AB8B4507DC01DB824504D2DDE9040166
:1058A000FDF7D6F95FE037F0004708BF002E02D1C0
:1058B0000020002159E010461946DDE90423FDF7D8
:1058C000C7F952E0CDE90023DDE900AB4FEA4B0117
:1058D00041EADA714815C9174FF0FF34A14208BFF9
:1058E000A0420BD14FEA0B3050EA1A504FEA0A316E
:1058F00008BF002902D0104619463CE0DDE902014C
:10590000A14208BFA04209D1380340EA1650310332
:1059100000280CBF0029DDE904012CD1DDE90401D8
:105920004C00641514F1010F0BD1080302BF59009C
:10593000491511F1010F04D1180302D100200F49BC
:1059400001E000200021DDE90045EC0FE400FE0F3E
:1059500018BF84F006041A4653005B1513F1010FBB
:1059600003D1120301D184F00204224607B0BDE83E
:10597000F04C01F04DBF07B0BDE8F08C0000F03FE7
:10598000C1F30A5340F21E42D31A0CDDCA0283F35C
:10599000070342EA505242F00042DA4002EBE17261
:1059A00082EAE17070476FEAE17203F2E13008B118
:1059B00082F0004070470000F8B502000023002587
:1059C00014E0DFF8CC61306830EA040434600CE0A5
:1059D000DFF8C0613068A04330604868C003F0D58C
:1059E000DFF8AC613068044334605B1C0868D84061
:1059F000002800F0B88001269E400C683440B44274
:105A0000F3D14F68002F27D0012F1AD0022F1DD0BD
:105A1000032F2FD0112F16D0122F1AD05E48874295
:105A20001AD05E48874217D05D48874214D05D483F
:105A3000874211D05C4887420ED05C4887420BD029
:105A40001AE0CD6818E0CD682D1D15E0CD68083549
:105A500012E0CD680C350FE08868002801D10425DC
:105A600007E08868012802D10825166101E00825B1
:105A7000566101E00025FFE7B4F5807F01D21700F1
:105A800000E0171DB4F5807F02D25FEA830C03E0CB
:105A9000B3F1080C5FEA8C0C0F26D7F800E016FA79
:105AA0000CF03EEA000E15FA0CFC5CEA0E0CC7F88E
:105AB00000C04868C00098D53D4F386850F00100DC
:105AC0003860386810F0010000900098394F1800D5
:105AD000800857F820C013F00300C0B28000864051
