:020000040800F2
:10000000300B0020297F0008557E0008577E00082D
:10001000597E00085B7E00085D7E0008000000003D
:100020000000000000000000000000005F7E0008EB
:10003000617E000800000000637E0008657E000805
:100040005D7F0008617F0008657F0008697F000808
:100050006D7F0008717F0008757F0008797F0008B8
:100060007D7F0008817F0008857F0008897F000868
:100070008D7F0008917F0008957F0008997F000818
:100080009D7F0008A17F0008A57F0008A97F0008C8
:10009000AD7F0008B17F0008B57F0008B97F000878
:1000A000BD7F0008C17F0008C57F0008C97F000828
:1000B000CD7F0008D17F0008D57F0008D97F0008D8
:1000C000DD7F0008E17F0008E57F0008E97F000888
:1000D000ED7F00086D7E0008F17F0008F57F0008C5
:1000E000F97F0008FD7F00080180000800210163FE
:1000F00000214163002181635FF07E51C16301648F
:1001000041648164C164016500214165002181650C
:100110000021C16500210166002141660021816640
:1001200070470FB41FB51B9C4FF47A7002900120EA
:1001300001900DF10D0000900123752220000100B7
:1001400089B206A802F050FD9DF80D00682846D13E
:1001500000208DF80C004FF47A700290012001907D
:1001600003A8009001236B222000010089B206A899
:1001700002F086FC07208DF80C004FF47A70029094
:100180000120019003A80090012319222000010002
:1001900089B206A802F074FC00208DF80C004FF420
:1001A0007A7002900120019003A8009001231C2284
:1001B0002000010089B206A802F062FC00208DF840
:1001C0000C004FF47A7002900120019003A8009077
:1001D00001231B22210089B206A802F051FC1FBC9A
:1001E0005DF814FB2DE9F84185B007000C001500FF
:1001F000DFF874834FF47A7002900620019003A810
:10020000009001233B22D021404602F0EDFC03AEDA
:100210009DF80C10707850EA012000B203F07AF9D2
:100220003860B178F07850EA012000B203F072F93A
:1002300078603179707950EA012000B203F06AF9F0
:10024000B860386803F078F90022C84B03F098F9D9
:1002500003F0CEFAB861786803F06EF90022C34B60
:1002600003F08EF903F0C4FAF861B86803F064F99A
:100270000022BE4B03F084F903F0BAFA38624FF45F
:100280007A7002900620019003A8009001233B227F
:10029000D021B74802F0A8FC9DF80C10707850EA05
:1002A000012000B203F036F92060B178F07850EA0E
:1002B000012000B203F02EF960603179707950EAC4
:1002C000012000B203F026F9A060206803F034F9A1
:1002D0000022A64B03F054F903F08AFAA06160688B
:1002E00003F02AF90022A14B03F04AF903F080FA47
:1002F000E061A06803F020F900229C4B03F040F974
:1003000003F076FA20624FF47A7002900620019092
:1003100003A8009001233B22D221404602F064FC56
:100320009DF80C10707850EA012000B203F0F2F84A
:100330002860B178F07850EA012000B203F0EAF8C2
:1003400068603179707950EA012000B203F0E2F878
:10035000A860286803F0F0F80022844B03F010F93D
:1003600003F046FAA861686803F0E6F800227F4BC4
:1003700003F006F903F03CFAE861A86803F0DCF842
:1003800000227A4B03F0FCF803F032FA286206B040
:10039000BDE8F0812DE9F84185B007000C0015009B
:1003A000DFF8C4814FF47A7002900620019003A810
:1003B000009001234322D021404602F015FC03AEF9
:1003C0009DF80C10707850EA012000B203F0A2F8FA
:1003D000F860B178F07850EA012000B203F09AF8A2
:1003E00038613179707950EA012000B203F092F857
:1003F0007861786A3863B86A7863F86AB863F868CD
:1004000003F09AF800225B4B03F0BAF803F0F0F91E
:100410007862386903F090F80022564B03F0B0F888
:1004200003F0E6F9B862786903F086F80022514BD0
:1004300003F0A6F803F0DCF9F8624FF47A7002904A
:100440000620019003A8009001234322D0214848B0
:1004500002F0CAFB9DF80C10707850EA012000B23F
:1004600003F058F8E060B178F07850EA012000B26B
:1004700003F050F820613179707950EA012000B220
:1004800003F048F86061606A2063A06A6063E06A14
:10049000A063E06803F050F80022364B03F070F8D8
:1004A00003F0A6F96062206903F046F80022314BA0
:1004B00003F066F803F09CF9A062606903F03CF871
:1004C00000222C4B03F05CF803F092F9E0624FF449
:1004D0007A7002900620019003A800900123432225
:1004E000D221404602F080FB9DF80C10707850EA53
:1004F000012000B203F00EF8E860B178F07850EA1D
:10050000012000B203F006F828613179707950EAD1
:10051000012000B202F0FEFF6861686A2863A86AE1
:100520006863E86AA863E86803F006F80022114BE4
:1005300003F026F803F05CF96862286902F0FCFF1A
:1005400000220C4B03F01CF803F052F9A862686912
:1005500002F0F2FF0022074B03F012F803F048F913
:10056000E86206B0BDE8F081F00000200000D04055
:1005700044010020006060402DE9F84FADF5427D58
:1005800000205390C049086850F080700860002136
:10059000DFF88C090160BD49086850F0010008606F
:1005A000DFF880090168BA4801600020C19000208E
:1005B000C09000202290B7485D905C90B649BF91F2
:1005C000B64ABE92B648BD905592BC91B549BB9112
:1005D000B549BA91B990B548006802F0ADFFB44A88
:1005E000B44B03F039F903F003F9549000200020D4
:1005F0005B9000205A9000200020599000205890D5
:10060000002000205790AC4C20680090AB4801902F
:100610000290002021900020209000200020002047
:1006200056900020002003F0F1F901F099FE02F04D
:1006300096F802F07AF801F0CAFE01F006FF01F028
:100640008CFF02F00FF801F0CBFF01F0DFFE00217C
:100650009B4803F05BFA0C21994803F057FA0021FC
:10066000984803F053FA0421964803F04FFA3C21CE
:10067000954803F01BFB3C21944803F017FB6420D2
:1006800003F0B6FD924DD0201190290084B0684649
:10069000542203F0D1FD0FBCFFF743FDD22011908F
:1006A000290084B06846542203F0C6FD0FBCFFF752
:1006B00038FDD0201190874984B06846542203F059
:1006C000BBFD0FBCFFF72DFD40F6B83003F090FDE9
:1006D0009BA8FFF70BFD7DA8FFF708FD5FA8FFF7BC
:1006E00005FD0020B0900020B1907B48B2907B497E
:1006F000B3917B49B491B5907A4892900020939041
:10070000794894907948959079489690794897904F
:100710000020749078487590002076907748779004
:100720007748789077487990002020605FAA7DA96B
:100730009BA8FFF757FDA198B09903F031FEAA9945
:1007400003F076FE4690A298B19903F029FEAB998A
:1007500003F06EFE4790A398B29903F021FEAC9986
:1007600003F066FE48908398929903F019FE8C99E5
:1007700003F05EFE36908498939903F011FE8D99F4
:1007800003F056FE37908598949903F009FE8E99F0
:1007900003F04EFE38906598749903F001FE6E994F
:1007A00003F046FE26906698759903F0F9FD6F995F
:1007B00003F03EFE27906798769903F0F1FD70995B
:1007C00003F036FE28905FAA7DA99BA8FFF70AFDDB
:1007D000A198B09903F0E4FDAA9903F029FE439093
:1007E000A298B19903F0DCFDAB9903F021FE44908F
:1007F000A398B29903F0D4FDAC9903F019FE45908B
:100800008398929903F0CCFD8C9903F011FE3390FC
:100810008498939903F0C4FD8D9903F009FE3490F8
:100820008598949903F0BCFD8E9903F001FE3590F4
:100830006598749903F0B4FD6E9903F0F9FD239067
:100840006698759903F0ACFD6F9903F0F1FD249063
:100850006798769903F0A4FD709903F0E9FD25905F
:100860000020509000205190002052900020409095
:1008700000204190002042900020309000203190D4
:1008800000203290CAE000BFFCED00E0001000E064
:1008900010030020CDCCCC3D0000AF44000020412F
:1008A0000000F04100002F459A99993E447F0008CE
:1008B0009A9999999999B93F180300200000C84264
:1008C0009801002070020020E00100202802002092
:1008D000F000002044010020AE47E13D6666E6BF1F
:1008E000000080BFAE47E1BD7B142EBE33332BC169
:1008F00066660242666606400AD7233DCDCC4CBEF2
:100900009A99993F9A99193FDFF81C0600680128C7
:1009100068D1DFF81846DFF81806006802F00CFE10
:10092000CDE91E01DFF80C06006802F005FECDE9F6
:100930001C0158981B905A981A90209802F0FCFDC0
:10094000CDE91801219802F0F7FDCDE91601D8F89C
:10095000000002F0F1FDCDE91401DBF8000002F027
:10096000EBFDCDE91201D9F8000002F0E5FDCDE97B
:100970001001259802F0E0FDCDE90E01249802F067
:10098000DBFDCDE90C01239802F0D6FDCDE90A018B
:10099000359802F0D1FDCDE90801349802F0CCFD84
:1009A000CDE90601339802F0C7FDCDE90401459871
:1009B00002F0C2FDCDE90201449802F0BDFDCDE98F
:1009C0000001439802F0B8FD02000B00DFF8681543
:1009D000200003F099FDAA23AA222100DFF85C057C
:1009E00003F0EFFDDFF83C0500682860DFF8300514
:1009F00000685E99401ADFF8384504F023F902F0E8
:100A00009BFD0022DFF8383502F0BAFD02F0F0FE5F
:100A100020605398216803F053FC5390DFF80005E1
:100A200000685E905FAA7DA99BA8FFF7DBFB5FAA29
:100A30007DA99BA8FFF7AEFCA198B09903F0B0FC8C
:100A4000AA9903F0F5FC4990A298B19903F0A8FC8B
:100A5000AB9903F0EDFC4A90A398B29903F0A0FC87
:100A6000AC9903F0E5FC4B908398929903F098FCC5
:100A70008C9903F0DDFC39908498939903F090FCF5
:100A80008D9903F0D5FC3A908598949903F088FCF1
:100A90008E9903F0CDFC3B906598749903F080FC2F
:100AA0006E9903F0C5FC29906698759903F078FC5F
:100AB0006F9903F0BDFC2A906798769903F070FC5B
:100AC000709903F0B5FC2B90A198B09903F068FCE5
:100AD00002F032FD04000D00A298B19903F060FC11
:100AE00002F02AFD06000F00A398B29903F058FC0B
:100AF00002F022FD804689462000290022002B00BA
:100B000002F0AAFE04000D003000390032003B0064
:100B100002F0A2FE22002B0004F0A2F804000D0057
:100B20004046494642464B4602F096FE22002B00C4
:100B300004F096F804F0C4F902F05AFE4F904F9872
:100B4000DFF8001404F036FA05D94F98DFF8F813EF
:100B500004F044FA0ED249984F9904F053FA4990A0
:100B60004A984F9904F04EFA4A904B984F9904F0E6
:100B700049FA4B908398929903F012FC02F0DCFC46
:100B800004000D008498939903F00AFC02F0D4FC51
:100B900006000F008598949903F002FC02F0CCFC4B
:100BA000804689462000290022002B0002F054FED6
:100BB00004000D003000390032003B0002F04CFE12
:100BC00022002B0004F04CF804000D00404649467A
:100BD00042464B4602F040FE22002B0004F040F853
:100BE00004F06EF902F004FE3F903F98D54904F0FE
:100BF000E1F904D93F98D44904F0F0F90ED23998BC
:100C00003F9904F0FFF939903A983F9904F0FAF9C6
:100C10003A903B983F9904F0F5F93B9065987499A8
:100C200003F0BEFB02F088FC04000D006698759985
:100C300003F0B6FB02F080FC06000F00679876997F
:100C400003F0AEFB02F078FC8046894620002900C4
:100C500022002B0002F000FE04000D0030003900DD
:100C600032003B0002F0F8FD22002B0003F0F8FFF9
:100C700004000D004046494642464B4602F0ECFD5A
:100C800022002B0003F0ECFF04F01AF902F0B0FD93
:100C90002F902F98AB4904F08DF904D92F98AA49C9
:100CA00004F09CF90ED229982F9904F0ABF9299001
:100CB0002A982F9904F0A6F92A902B982F9904F0DE
:100CC000A1F92B90DFF8404E20689A49096803F09B
:100CD000AFFB0600A798B39903F062FBAD9903F050
:100CE000A7FB0500A498B39903F05AFBAD9903F054
:100CF0009FFB290003F0E4FA310003F099FB02F0B6
:100D00001BFC00225FF0804302F03AFC02F070FD11
:100D1000509020688749096803F08AFB0600A8986C
:100D2000B49903F03DFBAE9903F082FB0500A59852
:100D3000B49903F035FBAE9903F07AFB290003F078
:100D4000BFFA310003F074FB02F0F6FB00225FF003
:100D5000804302F015FC02F04BFD5190206875496C
:100D6000096803F065FB0600A998B59903F018FB24
:100D7000AF9903F05DFB0500A698B59903F010FB51
:100D8000AF9903F055FB290003F09AFA310003F004
:100D90004FFB02F0D1FB00225FF0804302F0F0FB3A
:100DA00002F026FD529020686249096803F040FB7A
:100DB00005008998959903F0F3FA8F9903F038FBB1
:100DC00006008698959903F0EBFA8F9903F030FBB3
:100DD000310003F075FA290003F02AFB02F0ACFBA6
:100DE00000225FF0804302F0CBFB02F001FD409057
:100DF00020685049096803F01BFB06008A98969901
:100E000003F0CEFA909903F013FB050087989699AA
:100E100003F0C6FA909903F00BFB290003F050FA97
:100E2000310003F005FB02F087FB00225FF08043F6
:100E300002F0A6FB02F0DCFC419020683D49096805
:100E400003F0F6FA06008B98979903F0A9FA9199A6
:100E500003F0EEFA05008898979903F0A1FA9199AA
:100E600003F0E6FA290003F02BFA310003F0E0FA70
:100E700002F062FB00225FF0804302F081FB02F08F
:100E8000B7FC429020682B49096803F0D1FA0600AC
:100E90006B98779903F084FA719903F0C9FA050009
:100EA0006898779903F07CFA719903F0C1FA2900E8
:100EB00003F006FA310003F0BBFA02F03DFB00221A
:100EC0005FF0804302F05CFB02F092FC30902068FF
:100ED0001849096803F0ACFA06006C98789903F099
:100EE0005FFA729903F0A4FA05006998789903F003
:100EF00057FA729903F09CFA290003F0E1F93100E6
:100F000003F096FA02F018FB00225FF0804302F033
:100F100037FB02F06DFC31902068064916E000BFF7
:100F2000041000E0487F0008140300204400002063
:100F30000403002000030020687C0008B8020020A1
:100F4000882A914118B7D13817B7D1B8096803F08A
:100F50006FFA04006D98799903F022FA739903F0FF
:100F600067FA05006A98799903F01AFA739903F001
:100F70005FFA290003F0A4F9210003F059FA02F006
:100F8000DBFA00225FF0804302F0FAFA02F030FC54
:100F90003290529802F0D0FA04F0C4FA04000D0026
:100FA000519802F0C9FA04F0BDFACDE90001529857
:100FB00002F0C2FA04F0B6FACDE90E01519802F03F
:100FC000BBFA04F0B1FACDE90C01509802F0B4FA82
:100FD00004F0AAFACDE90A01529802F0ADFA04F041
:100FE000A3FA82468B46509802F0A6FA04F09AFAC9
:100FF000CDE90801529802F09FFA04F093FA804676
:101000008946519802F098FA04F08EFACDE906016B
:10101000509802F091FA04F085FACDE90401529853
:1010200002F08AFA04F080FA06000F00509802F0ED
:1010300083FA04F079FACDE90201DDE9000122002A
:101040002B0002F009FC04000D00469802F074FA2F
:1010500022002B0002F000FCCDE90001DDE90E01C9
:10106000DDE90C2302F0F8FBDDE90A2302F0F4FBD2
:1010700004000D00479802F05FFA22002B0002F0F6
:10108000EBFBDDE9002303F0EBFDCDE90001DDE939
:10109000080152465B4602F0DFFB04000D00479852
:1010A00002F04AFA22002B0002F0D6FB02000B00ED
:1010B000DDE9000103F092FE82468B46DDE9060180
:1010C00042464B4602F0C8FBDDE9042302F0C4FBB4
:1010D00004000D00489802F02FFA22002B0002F0C5
:1010E000BBFB52465B4603F0BBFD04000D00DDE98F
:1010F000020132003B0002F0AFFB06000F004898EF
:1011000002F01AFA32003B0002F0A6FB22002B008C
:1011100003F0A6FD02F06CFB4C90529802F00CFA22
:1011200004F002FA04000D00519802F005FA04F0F0
:10113000F9F9CDE90001529802F0FEF904F0F4F952
:10114000CDE90E01519802F0F7F904F0EDF9CDE97F
:101150000C01509802F0F0F904F0E6F9CDE90A012B
:10116000529802F0E9F904F0DDF982468B46509876
:1011700002F0E2F904F0D6F9CDE90801529802F044
:10118000DBF904F0D1F980468946519802F0D4F990
:1011900004F0CAF9CDE90601509802F0CDF904F047
:1011A000C1F9CDE90401529802F0C6F904F0BAF988
:1011B00006000F00509802F0BFF904F0B5F9CDE930
:1011C0000201DDE9000122002B0002F045FB0400D2
:1011D0000D00469802F0B0F922002B0002F03CFB13
:1011E000CDE90001DDE90E01DDE90C2302F034FB5D
:1011F000DDE90A2302F030FB04000D00479802F0FD
:101200009BF922002B0002F027FBDDE9002303F00D
:1012100027FDCDE90001DDE9080152465B4602F0F9
:101220001BFB04000D00479802F086F922002B00FA
:1012300002F012FBDDE9002303F012FD82468B462B
:10124000DDE9060142464B4602F006FBDDE90423D8
:1012500002F002FB04000D00489802F06DF9220034
:101260002B0002F0F9FA52465B4603F0F9FC040049
:101270000D00DDE9020132003B0002F0EDFA06004C
:101280000F00489802F058F932003B0002F0E4FAEF
:1012900002000B002000290003F0A0FD02F0A8FAD4
:1012A0004D90519802F048F904F03EF982468B4681
:1012B000519802F041F904F035F906000F005098FA
:1012C00002F03AF904F030F9CDE90001519802F04A
:1012D00033F904F027F904000D00509802F02CF9BE
:1012E00004F020F980468946469802F025F99BF0E3
:1012F000004B52465B4602F0AFFA82468B46DDE970
:10130000000132003B0002F0A7FA06000F004798E8
:1013100002F012F932003B0002F09EFA52465B46A0
:1013200003F09EFC06000F0042464B4620002900B9
:1013300002F092FA04000D00489802F0FDF8220035
:101340002B0002F089FA32003B0003F089FC02F026
:101350004FFA4E90429802F0EFF804F0E3F80400E0
:101360000D00419802F0E8F804F0DCF8CDE9000146
:10137000429802F0E1F804F0D5F8CDE90E01419869
:1013800002F0DAF804F0D0F8CDE90C01409802F050
:10139000D3F804F0C9F8CDE90A01429802F0CCF87C
:1013A00004F0C2F882468B46409802F0C5F804F07B
:1013B000B9F8CDE90801429802F0BEF804F0B2F89D
:1013C00080468946419802F0B7F804F0ADF8CDE9BF
:1013D0000601409802F0B0F804F0A4F8CDE9040149
:1013E000429802F0A9F804F09FF806000F00409818
:1013F00002F0A2F804F098F8CDE90201DDE900015D
:1014000022002B0002F028FA04000D00369802F0AA
:1014100093F822002B0002F01FFACDE90001DDE96C
:101420000E01DDE90C2302F017FADDE90A2302F0D0
:1014300013FA04000D00379802F07EF822002B000A
:1014400002F00AFADDE9002303F00AFCCDE900010D
:10145000DDE9080152465B4602F0FEF904000D008A
:10146000379802F069F822002B0002F0F5F902002B
:101470000B00DDE9000103F0B1FC82468B46DDE99B
:10148000060142464B4602F0E7F9DDE9042302F08B
:10149000E3F904000D00389802F04EF822002B000A
:1014A00002F0DAF952465B4603F0DAFB04000D0065
:1014B000DDE9020132003B0002F0CEF906000F0028
:1014C000389802F039F832003B0002F0C5F92200EA
:1014D0002B0003F0C5FB02F08BF93C90429802F020
:1014E0002BF804F021F804000D00419802F024F8D4
:1014F00004F018F8CDE90001429802F01DF804F05C
:1015000013F8CDE90E01419802F016F804F00CF83A
:10151000CDE90C01409802F00FF804F005F8CDE990
:101520000A01429802F008F803F0FCFF82468B465D
:10153000409802F001F803F0F5FFCDE90801429868
:1015400001F0FAFF03F0F0FF80468946419801F070
:10155000F3FF03F0E9FFCDE90601409801F0ECFF4D
:1015600003F0E0FFCDE90401429801F0E5FF03F04C
:10157000D9FF06000F00409801F0DEFF03F0D4FF12
:10158000CDE90201DDE9000122002B0002F064F93F
:1015900004000D00369801F0CFFF22002B0002F06E
:1015A0005BF9CDE90001DDE90E01DDE90C2302F074
:1015B00053F9DDE90A2302F04FF904000D003798D2
:1015C00001F0BAFF22002B0002F046F9DDE900230A
:1015D00003F046FBCDE90001DDE9080152465B4618
:1015E00002F03AF904000D00379801F0A5FF22003F
:1015F0002B0002F031F9DDE9002303F031FB8246D4
:101600008B46DDE9060142464B4602F025F9DDE94D
:10161000042302F021F904000D00389801F08CFF3A
:1016200022002B0002F018F952465B4603F018FB2B
:1016300004000D00DDE9020132003B0002F00CF96C
:1016400006000F00389801F077FF32003B0002F0EF
:1016500003F902000B002000290003F0BFFB02F099
:10166000C7F83D90419801F067FF03F05DFF8246A7
:101670008B46419801F060FF03F054FF06000F0015
:10168000409801F059FF03F04FFFCDE90001419868
:1016900001F052FF03F046FF04000D00409801F0F6
:1016A0004BFF03F03FFF80468946369801F044FF28
:1016B0009BF0004B52465B4602F0CEF882468B46CA
:1016C000DDE9000132003B0002F0C6F806000F0021
:1016D000379801F031FF32003B0002F0BDF852466E
:1016E0005B4603F0BDFA06000F0042464B46200061
:1016F000290002F0B1F804000D00389801F01CFF39
:1017000022002B0002F0A8F832003B0003F0A8FAF8
:1017100002F06EF83E90329801F00EFF03F002FFE7
:1017200004000D00319801F007FF03F0FBFECDE946
:101730000001329801F000FF03F0F4FECDE90E0144
:10174000319801F0F9FE03F0EFFECDE90C0130987D
:1017500001F0F2FE03F0E8FECDE90A01329801F053
:10176000EBFE03F0E1FE82468B46309801F0E4FE8A
:1017700003F0D8FECDE90801329801F0DDFE03F058
:10178000D1FE80468946319801F0D6FE03F0CCFEAA
:10179000CDE90601309801F0CFFE03F0C3FECDE99C
:1017A0000401329801F0C8FE03F0BEFE06000F00EF
:1017B000309801F0C1FE03F0B7FECDE90201DDE98A
:1017C000000122002B0002F047F804000D002698CB
:1017D00001F0B2FE22002B0002F03EF8CDE900013C
:1017E000DDE90E01DDE90C2302F036F8DDE90A231C
:1017F00002F032F804000D00279801F09DFE22004F
:101800002B0002F029F8DDE9002303F029FACDE9E5
:101810000001DDE9080152465B4602F01DF80400B4
:101820000D00279801F088FE22002B0002F014F82A
:1018300002000B00DDE9000103F0D0FA82468B467E
:10184000DDE9060142464B4602F006F8DDE90423D5
:1018500002F002F804000D00289801F06DFE22004D
:101860002B0001F0F9FF52465B4603F0F9F9040042
:101870000D00DDE9020132003B0001F0EDFF060042
:101880000F00289801F058FE32003B0001F0E4FF01
:1018900022002B0003F0E4F901F0AAFF2C9032980B
:1018A00001F04AFE03F040FE04000D00319801F003
:1018B00043FE03F037FECDE90001329801F03CFE13
:1018C00003F032FECDE90E01319801F035FE03F050
:1018D0002BFECDE90C01309801F02EFE03F024FE22
:1018E000CDE90A01329801F027FE03F01BFE824683
:1018F0008B46309801F020FE03F014FECDE908017C
:10190000329801F019FE03F00FFE804689463198A7
:1019100001F012FE03F008FECDE90601309801F057
:101920000BFE03F0FFFDCDE90401329801F004FE47
:1019300003F0F8FD06000F00309801F0FDFD03F004
:10194000F3FDCDE90201DDE9000122002B0001F0E9
:1019500083FF04000D00269801F0EEFD22002B000D
:1019600001F07AFFCDE90001DDE90E01DDE90C238C
:1019700001F072FFDDE90A2301F06EFF04000D00A3
:10198000279801F0D9FD22002B0001F065FFDDE969
:10199000002303F065F9CDE90001DDE908015246B5
:1019A0005B4601F059FF04000D00279801F0C4FDCB
:1019B00022002B0001F050FFDDE9002303F050F975
:1019C00082468B46DDE9060142464B4601F044FF64
:1019D000DDE9042301F040FF04000D00289801F028
:1019E000ABFD22002B0001F037FF52465B4603F0AF
:1019F00037F904000D00DDE9020132003B0001F07F
:101A00002BFF06000F00289801F096FD32003B00E6
:101A100001F022FF02000B002000290003F0DEF994
:101A200001F0E6FE2D90319801F086FD03F07CFD7B
:101A300082468B46319801F07FFD03F073FD06006E
:101A40000F00309801F078FD03F06EFDCDE9000144
:101A5000319801F071FD03F065FD04000D00309830
:101A600001F06AFD03F05EFD80468946269801F08C
:101A700063FD9BF0004B52465B4601F0EDFE824653
:101A80008B46DDE9000132003B0001F0E5FE060077
:101A90000F00279801F050FD32003B0001F0DCFE02
:101AA00052465B4603F0DCF806000F0042464B4608
:101AB0002000290001F0D0FE04000D00289801F05C
:101AC0003BFD22002B0001F0C7FE32003B0003F07B
:101AD000C7F801F08DFE2E904398469044984790A9
:101AE0004598489033983690349837903598389088
:101AF0002398269024982790259828900024DFF892
:101B0000FC5CDFF8FC6C01E0587F00083068499904
:101B100002F08EFC01F010FD82468B46306801F029
:101B20000BFD02000B002000290003F057F980464E
:101B300089464C9801F000FD42464B4601F08CFE70
:101B400052465B4603F08CF801F052FE4390306839
:101B50004A9902F06DFC01F0EFFC82468B4630683A
:101B600001F0EAFC02000B002000290003F036F926
:101B7000804689464D9801F0DFFC42464B4601F015
:101B80006BFE52465B4603F06BF801F031FE449069
:101B900030684B9902F04CFC01F0CEFC82468B463B
:101BA000306801F0C9FC02000B002000290003F09E
:101BB00015F9804689464E9801F0BEFC42464B46D8
:101BC00001F04AFE52465B4603F04AF801F010FE6F
:101BD00045903068399902F02BFC01F0ADFC82464B
:101BE0008B46306801F0A8FC02000B0020002900A1
:101BF00003F0F4F8804689463C9801F09DFC42468B
:101C00004B4601F029FE52465B4603F029F801F0ED
:101C1000EFFD339030683A9902F00AFC01F08CFC39
:101C200082468B46306801F087FC02000B002000E2
:101C3000290003F0D3F8804689463D9801F07CFCEA
:101C400042464B4601F008FE52465B4603F008F858
:101C500001F0CEFD349030683B9902F0E9FB01F0D1
:101C60006BFC82468B46306801F066FC02000B007C
:101C70002000290003F0B2F8804689463E9801F022
:101C80005BFC42464B4601F0E7FD52465B4602F0E4
:101C9000E7FF01F0ADFD35903068299902F0C8FBEF
:101CA00001F04AFC82468B46306801F045FC020098
:101CB0000B002000290003F091F8804689462C98FB
:101CC00001F03AFC42464B4601F0C6FD52465B46E7
:101CD00002F0C6FF01F08CFD239030682A9902F0D3
:101CE000A7FB01F029FC82468B46306801F024FCFA
:101CF00002000B002000290003F070F8804689469E
:101D00002D9801F019FC42464B4601F0A5FD5246C4
:101D10005B4602F0A5FF01F06BFD249030682B9923
:101D200002F086FB01F008FC80468946306801F02D
:101D300003FC02000B002000290003F04FF806000E
:101D40000F002E9801F0F8FB32003B0001F084FDFB
:101D500042464B4602F084FF01F04AFD259043982D
:101D6000439902F065FB06004498449902F060FB39
:101D7000310002F0A5FA06004598459902F058FB9B
:101D8000310002F09DFA01F0D7FB03F099F801F061
:101D90002FFD4F90DFF86C6A4F98310003F00AF97D
:101DA00005D94F98DFF8601A03F018F90ED243985E
:101DB0004F9903F027F9439044984F9903F022F983
:101DC000449045984F9903F01DF945903398339905
:101DD00002F02EFB07003498349902F029FB3900F9
:101DE00002F06EFA07003598359902F021FB3900B0
:101DF00002F066FA01F0A0FB03F062F801F0F8FCD3
:101E00003F903F98310003F0D5F805D93F98DFF8AF
:101E1000F81903F0E3F80ED233983F9903F0F2F883
:101E2000339034983F9903F0EDF8349035983F990A
:101E300003F0E8F835902398239902F0F9FA0700A7
:101E40002498249902F0F4FA390002F039FA0700D4
:101E50002598259902F0ECFA390002F031FA01F0E8
:101E60006BFB03F02DF801F0C3FC2F902F9831008D
:101E700003F0A0F805D92F98DFF88C1903F0AEF81D
:101E80000ED223982F9903F0BDF8239024982F9910
:101E900003F0B8F8249025982F9903F0B3F8259013
:101EA000DFF868994398339902F07AFA239902F09F
:101EB00007FA01F041FB0022DFF8543901F060FB22
:101EC00001F096FCC9F80000DFF848B9459835994B
:101ED00002F0F6F9249902F063FA01F02DFB0022DA
:101EE000DFF82C3901F04CFB01F082FCCBF800004C
:101EF000DFF824894498349902F052FA259902F0C7
:101F0000DFF901F019FB0022DFF8043901F038FB9A
:101F100001F06EFCC8F80000D9F80000D9F80010F4
:101F200002F086FA0700DBF80000DBF8001002F090
:101F30007FFA390002F0C4F90700D8F80000D8F899
:101F4000001002F075FA390002F0BAF901F0F4FA63
:101F500002F0B6FF01F04CFC07003800310003F03E
:101F600029F805D93800DFF8A01803F037F814D2A3
:101F7000D9F80000390003F045F8C9F80000DBF893
:101F80000000390003F03EF8CBF80000D8F800005C
:101F9000390003F037F8C8F80000219E209FD8F8D8
:101FA000000001F0C9FA02000B00CDE90023D9F8C6
:101FB000000001F0C1FADDE9002303F0B7FA01F0F7
:101FC00017FC2190D8F8000001F0B6FA02000B00CF
:101FD000CDE90023DBF8000001F0AEFADDE90023D3
:101FE00003F0A4FA01F004FC20902198310002F0E3
:101FF000D7F9569902F0D4F982462198310002F0BF
:10200000CFF956902098390002F0CAF90690DFF80F
:102010000C785C9801F090FACDE90401BC98219904
:1020200002F006FA0600BB98569902F001FA310058
:1020300002F046F901F080FACDE90201BA9801F008
:102040007BFACDE900015B9801F076FA31F00041AE
:10205000DDE9002301F000FCDDE9022302F000FECF
:10206000CDE90001B998514602F0E2F901F064FAB5
:10207000DDE9002302F0F4FD31F00041DDE9042345
:1020800001F0EAFBCDE902015C9801F055FA02008B
:102090000B002000290002F0A1FECDE90001386804
:1020A00001F038FA01F048FADDE9002301F0D4FB31
:1020B000DDE9022302F0D4FD03F0F6FA3860386857
:1020C000B0F5807F01DBFF2038603868002801D53B
:1020D000002038602098BE9902F0AAF9229902F0F7
:1020E000EFF822905598229902F078FF01D2559886
:1020F00022902298559991F0004102F06FFF03D28F
:10210000559890F000402290DFF814675D9801F038
:1021100013FACDE90001BF98209902F089F98246AF
:10212000BD98069902F084F9514602F0C9F8229947
:1021300002F0C6F801F000FA31F00041DDE90023B9
:1021400001F08AFBCDE900015D9801F0F5F902008C
:102150000B002000290002F041FE04000D00306851
:1021600001F0D8F901F0E8F922002B0001F074FB2E
:10217000DDE9002302F074FD03F096FA3060306868
:10218000B0F5807F01DBFF2030603068002801D58A
:10219000002030605498209902F020FF12D320983C
:1021A000549991F0004102F019FF0BD354982199F2
:1021B00002F014FF06D32198549991F0004102F0E7
:1021C0000DFF03D20020306000203860DFF8544655
:1021D0004FF48041200003F05BFB00281CD101225A
:1021E0004FF40041200003F05CFBC198219902F0FC
:1021F000F5FE08D2DFF830063A6801684A6300212C
:10220000006801640EE0DFF82006002102685163D7
:1022100039680068016405E000224FF400412000A5
:1022200003F03FFBC098209902F0D8FE0AD2DFF8F5
:10223000FC1500200A6850633268FF20424308689A
:10224000826309E0DFF8E4153268FF204243086842
:1022500042630020096888631021DFF8D40503F089
:1022600017FB002803D10121DFF8C8050160DFF862
:10227000C8552868401E286028680128FEF644AB2F
:10228000DFF8B80500685E99401ADFF8B44502F03F
:10229000D9FC01F051F90022DFF8A83501F070F9FE
:1022A00001F0A6FA20605398216802F009F85390D3
:1022B000DFF894050068539902F090FEBEF4AEABCF
:1022C0005998DFF88815096859915999081A5A9050
:1022D0000024DFF87C555A9803F00EFB01F01AF940
:1022E00001F02AF922002B0001F0B6FA06000F00D7
:1022F000DFF86005006801F00DF901F01DF902003A
:102300000B003000390001F03BF901F071FA5798E9
:10231000DFF84415096857915799081A589058984A
:1023200003F0EAFA01F0F6F801F006F922002B00BA
:1023300001F092FA04000D00DFF82005006801F0BA
:10234000E9F801F0F9F802000B002000290001F083
:1023500017F901F04DFA5B9000205390FEF75EBB39
:1023600000B58FB02821002205A803F0C9FA142176
:102370000022684603F0C4FA012005905FF4803023
:102380000690002107910121099102210C910D90E5
:102390005FF4E0100E9005A803F0E6FA002801D0E3
:1023A00000F078FA0F2000900220019000200290A7
:1023B0004FF480600390002004900221684603F0EF
:1023C000BCFC002801D000F065FA0FB000BD80B55C
:1023D000DFF88C04DFF88C140160DFF88C144160A6
:1023E000002181600021C1604FF480410161002122
:1023F0004161002181610021C1610021016200F081
:102400004BFA002801D000F045FA01BD80B5DFF895
:102410005C04DFF85C140160DFF84C1441600021BB
:1024200081600021C1604FF4804101610021416160
:10243000002181610021C1610021016200F02CFABC
:10244000002801D000F026FA01BD18B595B0102182
:10245000002211A803F054FA08210022684603F074
:102460004FFA1C21002202A803F04AFA2021002280
:1024700009A803F045FADFF8B043DFF8F80320605D
:10248000002060600020A060FF20E060002020614C
:10249000002060610020A061200001F0C9FA00283E
:1024A00001D000F0F7F94FF48050119011A92000ED
:1024B00001F0F1FC002801D000F0ECF9200001F05F
:1024C000EEFA002801D000F0E5F90020009000208D
:1024D00001906946200003F049FD002801D000F07A
:1024E000D9F9602002900020039000200490002081
:1024F0000590002006900020079000200890002200
:1025000002A9200001F04CFC002801D000F0C2F923
:102510000C2202A9200001F043FC002801D000F0A9
:10252000B9F90020099000200A9000200B900020AB
:102530000C9000200D904FF400500E900020109051
:1025400009A9200003F04EFD002801D000F0A2F9F7
:10255000200003F05FFE16B010BD18B58BB024212B
:10256000002202A803F0CCF908210022684603F0FB
:10257000C7F9C14C5FF080402060002060600020FF
:10258000A0604FF6FF70E060002020618020A06115
:102590000320029000200390012004900020059069
:1025A0000A20069000200790012008900020099042
:1025B0000A200A9002A9200001F012FB002801D095
:1025C00000F068F90020009000200190694620008A
:1025D00003F0CCFC002801D000F05CF90CB010BD79
:1025E00018B58BB02421002202A803F089F9082134
:1025F0000022684603F084F9A04CA1482060002026
:1026000060600020A0604FF6FF70E0600020206155
:102610008020A061032002900020039001200490FC
:10262000002005900A2006900020079001200890C5
:10263000002009900A200A9002A9200001F0D0FA97
:10264000002801D000F026F9002000900020019021
:102650006946200003F08AFC002801D000F01AF936
:102660000CB010BD18B58DB01021002209A803F0E0
:1026700047F908210022684603F042F91C21002294
:1026800002A803F03DF9694C7E482060002060609C
:102690000020A0604FF6FF70E06000202061002065
:1026A000A061200001F0C4F9002801D000F0F2F888
:1026B0004FF48050099009A9200001F0ECFB00289C
:1026C00001D000F0E7F8200001F0E9F9002801D07E
:1026D00000F0E0F800200090002001906946200002
:1026E00003F044FC002801D000F0D4F860200290F0
:1026F000002003900020049000200690002202A9F0
:10270000200001F04DFB002801D000F0C3F80422A6
:1027100002A9200001F044FB002801D000F0BAF823
:10272000200003F077FD0EB010BD80B55648574924
:1027300001605FF4E1214160002181600021C160FE
:10274000002101610C214161002181610021C161F1
:1027500001F0FAFE002801D000F09CF801BD18B588
:1027600085B010210022684603F0CAF84848016885
:1027700051F020010160016811F0200104910499D9
:10278000016851F004010160016811F00401049135
:102790000499016851F008010160006810F0080018
:1027A000049004981F4C00224FF40041200003F0D5
:1027B00078F81020009000200190012002906946D6
:1027C0001B4802F08DFF4FF48040009000200190E4
:1027D000012002906946200002F082FF4FF4004081
:1027E000009001200190022002900220039069468F
:1027F000200002F075FF06B010BD00000000F03FA1
:10280000407F000818B7D13817B7D1B81C03002093
:1028100000000840200300202403002008030020BB
:102820000C030020000C01409801002070020020E1
:10283000000801401403002010030020041000E0F1
:1028400000030020882A9141547F000824000040A2
:1028500000004E404C7F000824040040507F0008D8
:10286000F000002000540040A08601004401002038
:1028700000580040002C0140E00100202802002008
:102880000004004000080040B80200200038014069
:102890001810024072B6FEE738B50400002C01D1D2
:1028A0000120E0E094F83D00002805D1002084F8E4
:1028B0003C00200003F0E5FB242084F83D00206864
:1028C000016849084900206801602068016851F4E6
:1028D0000041206801602068016831F400412068EF
:1028E000016003F0F6FA0100DFF87C31606898427D
:1028F00008D2DFF87801814201D2012000E00020F7
:10290000C0B207E0DFF86801814201D2012000E097
:102910000020C0B2012801D10120A4E0DFF8540159
:10292000B1FBF0F2206840688009800110432568FF
:1029300068602068056A6068984201D2521C07E00E
:102940004FF4967042434FF47A70B2FBF0F2521C8F
:10295000AD09AD012A43206802622068C26960683F
:10296000984214D2481E63685B00B0FBF3F0401C31
:102970000005000D042801D204213EE0491E6068D4
:102980004000B1FBF0F1491C0905090D35E0A068D4
:10299000002809D14B1E656803204543B3FBF5F0C1
:1029A000401C0005000D0AE04D1E636819204343DA
:1029B000B5FBF3F0401C0005000D50F4804000050D
:1029C00001D1012119E0A068002809D1491E6368DE
:1029D00003204343B1FBF3F1491C0905090D0AE04B
:1029E000491E636819204343B1FBF3F1491C0905F3
:1029F000090D51F4804151F40041DFF87C000240A0
:102A00000A432068C2612068016831F0C001E069B2
:102A10000143206A01432068016020688168DFF873
:102A20005C00014020690143E06801432068816047
:102A30002068C168090A0902A0690143606901436D
:102A40002068C1602068016851F0010120680160C0
:102A500000202064202084F83D0000202063002016
:102A600084F83E00002032BDA186010080841E0053
:102A700000093D0040420F000030FFFF007CFFFFD7
:102A80002DE9FE4307000C009046994603F054FCE4
:102A9000050097F83D00202840F0A38000951923F9
:102AA0000122DFF89C14380000F09CFB002801D0C4
:102AB000022097E097F83C00012801D1022091E024
:102AC000012087F83C0038680068C00705D43868E2
:102AD000006850F00100396808600C9E0B98DDF822
:102AE00028C04B46424621003C68246834F4006408
:102AF000D7F800E0CEF80040212487F83D4040247C
:102B000087F83E4000243C64C7F824C07885788D5F
:102B10003885DFF82804F862019500969BB292B2DE
:102B200089B2380000F010FA002822D0012059E0C4
:102B3000786A007839680861786A401C7862388D54
:102B4000401E3885788D401E78853868406940077A
:102B50000FD5388D00280CD0786A0178386801616B
:102B6000786A401C7862388D401E3885788D401E0A
:102B70007885388D002811D02A003100380000F007
:102B80000DFC0028D4D0386C042805D138680068C2
:102B900050F4007039680860012023E02A003100F9
:102BA000380000F02CFC00280AD0386C042805D12D
:102BB0003868006850F4007039680860012011E03E
:102BC0003868006850F4007039680860202087F881
:102BD0003D00002087F83E00002087F83C000020E0
:102BE00000E00220BDE8FE832DE9FE4306000F0051
:102BF000904699460020009003F09EFB040096F852
:102C00003D00202840F09581009419230122DFF82F
:102C10003013300000F0E6FA002801D0022089E1EC
:102C200096F83C00012801D1022083E1012086F8BA
:102C30003C0030680068C00705D43068006850F078
:102C40000100316808600C9D0B98DDF828C04B46E8
:102C50004246390037683F6837F40067D6F800E02D
:102C6000CEF80070222786F83D70402786F83E7027
:102C700000273764C6F824C07085708D3085DFF872
:102C8000BC02F062019400959BB292B289B230000E
:102C900000F0DBF9002801D001204BE1308D002845
:102CA0000FD1002000903068406900903068806942
:102CB000009000983068016851F40071306801603C
:102CC00052E0308D012817D13068016831F48061FD
:102CD0003068016072B60020009030684069009052
:102CE00030688069009000983068016851F4007184
:102CF0003068016062B637E0308D022817D1306845
:102D0000016851F400613068016072B600200090E3
:102D100030684069009030688069009000983068A1
:102D2000016831F480613068016062B61CE030688F
:102D3000016851F4806130680160002000903068C3
:102D40004069009030688069009000980CE030681D
:102D50000169706A0170706A401C7062308D401E9B
:102D60003085708D401E7085308D002800F0D68033
:102D7000308D042880F0A980308D012808D12200F0
:102D80002900300000F06EFB0028E0D00120D1E0E7
:102D9000308D02282ED100942B000022DFF8A411E0
:102DA000300000F01FFA002801D00120C2E072B606
:102DB0003068016851F40071306801603068016961
:102DC000706A0170706A401C7062308D401E3085E0
:102DD000708D401E708562B630680069716A087037
:102DE000706A401C7062308D401E3085708D401EB0
:102DF0007085B9E700942B000022DFF848113000FD
:102E000000F0F0F9002820D13068016831F48061C9
:102E10003068016072B630680169706A0170706A6A
:102E2000401C7062308D401E3085708D401E708554
:102E3000414801681920B1FBF0F14FF47A70B1FB01
:102E4000F0F123204143009105E0012072E0306859
:102E50004069400717D40098401E00900098002851
:102E6000F5D100203063202086F83D00002086F850
:102E70003E00306C50F02000306462B6002086F8CE
:102E80003C00012056E03068016851F40071306860
:102E9000016030680169706A0170706A401C70627C
:102EA000308D401E3085708D401E708562B6306852
:102EB0000169706A0170706A401C7062308D401E3A
:102EC0003085708D401E70854EE72200290030004D
:102ED00000F0C8FA002801D001202BE03068016919
:102EE000706A0170706A401C7062308D401E3085BF
:102EF000708D401E70853068406940077FF534AFA3
:102F000030680169706A0170706A401C7062308DAF
:102F1000401E3085708D401E708525E7202086F884
:102F20003D00002086F83E00002086F83C0000208E
:102F300000E00220BDE8FE83040000200000FFFF47
:102F400002001000040001002DE9F8438046894684
:102F500014001D00089E099FD8F80000016851F474
:102F60008071D8F8000001600097330000225FF004
:102F70000111404600F036F900280AD0D8F80000C8
:102F80000068C00503D54FF40070C8F84000032066
:102F900059E019F0FE09D8F80000C0F810903B0085
:102FA0003200DFF8BC14404600F07FF9002801D061
:102FB000012048E000200090D8F80000406900900F
:102FC000D8F800008069009000983A00310040462F
:102FD00000F0E4F900280DD0D8F84000042807D10B
:102FE000D8F80000006850F40070D8F800100860AD
:102FF000012028E0ADB2012D04D1E4B2D8F80000E0
:1030000004611FE0210089B2090AC9B2D8F80000A2
:1030100001613A003100404600F0C0F900280DD0AF
:10302000D8F84000042807D1D8F80000006850F410
:103030000070D8F800100860012004E0E4B2D8F86D
:10304000000004610020BDE8F2832DE9FC478246C0
:10305000884614001D000A9E0B9FDAF800000168E4
:1030600051F48061DAF800000160DAF800000168CC
:1030700051F48071DAF800000160009733000022FB
:103080005FF00111504600F0ADF800280AD0DAF8E0
:1030900000000068C00503D54FF40070CAF8400076
:1030A00003209DE018F0FE01DAF800000161DFF86E
:1030B000B0933B0032004946504600F0F6F8002835
:1030C00001D001208CE000200090DAF80000406977
:1030D0000090DAF800008069009000983A00310012
:1030E000504600F05BF900280DD0DAF840000428C3
:1030F00007D1DAF80000006850F40070DAF8001028
:10310000086001206CE0ADB2012D04D1E4B2DAF820
:10311000000004611FE0200080B2000AC0B2DAF8AB
:10312000001008613A003100504600F037F90028DD
:103130000DD0DAF84000042807D1DAF80000006862
:1031400050F40070DAF800100860012048E0E4B2A2
:10315000DAF8000004613A003100504600F01EF930
:1031600000280DD0DAF84000042807D1DAF8000072
:10317000006850F40070DAF80010086001202FE0B9
:10318000DAF80000016851F48071DAF8000001609B
:103190000097330000225FF00111504600F022F842
:1031A00000280AD0DAF800000068C00503D54FF403
:1031B0000070CAF84000032012E058F001085FFADE
:1031C00088F8DAF80000C0F810803B003200494669
:1031D000504600F06AF8002801D0012000E00020ED
:1031E000BDE8F6872DE9F04105000E0017001C0030
:1031F000DDF818803000000CC0B201280AD1286820
:103200004169314089B2B0B2814201D101210BE064
:10321000002109E028688169314089B2B0B2814259
:1032200001D1012100E000213800C0B2814239D132
:1032300014F1010FDED003F07FF8B0EB08008442F8
:1032400001D3002CD6D13000000CC0B201280AD125
:1032500028684169314089B2B0B2814201D101216F
:103260000BE0002109E028688169314089B2B0B2E1
:10327000814201D1012100E000213800C0B2814229
:10328000B8D100202863202085F83D00002085F873
:103290003E00286C50F020002864002085F83C0097
:1032A000012000E00020BDE8F081F8B505000E0027
:1032B00014001F003000000CC0B201280AD1286899
:1032C0004169314089B2B0B2814201D101200BE0A5
:1032D000002009E028688169314089B2B0B281429A
:1032E00001D1012000E00020002855D12868406964
:1032F000400517D414F1010FDCD003F01DF8C01BFA
:10330000844201D3002CD5D13000000CC0B201287A
:1033100025D128684169314089B2B0B281421CD1BF
:10332000012026E02868006850F4007029680860D1
:103330007FF480612868416100202863202085F89F
:103340003D00002085F83E00286C50F00400286401
:10335000002085F83C0001201FE0002009E02868DB
:103360008169314089B2B0B2814201D1012000E0CF
:10337000002000289ED100202863202085F83D00F1
:10338000002085F83E00286C50F0200028640020C2
:1033900085F83C00012000E00020F2BD70B505007A
:1033A0000C00160028684069000626D4280000F0AA
:1033B00096F8002803D114F1010FF3D001E00120A9
:1033C0001CE002F0B9FF801B844201D3002CE9D13C
:1033D000286840690006E5D400202863202085F88D
:1033E0003D00002085F83E00286C50F02000286445
:1033F000002085F83C00012000E0002070BD70B581
:1034000005000C00160028684069400726D42800F3
:1034100000F065F8002803D114F1010FF3D001E0AA
:1034200001201CE002F088FF801B844201D3002CA5
:10343000E9D1286840694007E5D4002028632020AE
:1034400085F83D00002085F83E00286C50F02000F3
:103450002864002085F83C00012000E0002070BDB9
:103460000200010070B505000C00160028684069D4
:10347000400632D428684069C00612D57FF010019A
:103480002868416100202863202085F83D00002045
:1034900085F83E00286C2864002085F83C00012057
:1034A0001CE002F049FF801B844201D3002CDDD1D7
:1034B000286840694006D9D400202863202085F878
:1034C0003D00002085F83E00286C50F02000286464
:1034D000002085F83C00012000E0002070BD01685C
:1034E0004969490514D57FF4806201684A61002169
:1034F0000163202180F83D10002180F83E10016C0E
:1035000051F004010164002180F83C10012000E02A
:103510000020704710F0004C68B148BF4042B0FA3C
:1035200080F18840D1F19D014CEAC15C010671F146
:1035300000414CEB10207047C0F3C75181B1FF2907
:1035400006D0C110400721F0E04101F16051704701
:1035500041020CBF40F4E0016FF0004100207047D1
:1035600000F0004100020AD0B0FA80FC00FA0CF032
:1035700001F16051A1EB0C5101EBD02140057047E6
:10358000F0B540F2FF7581EA030C0CF0004C15EA2F
:1035900011541DBF15EA1357AC42AF42E5E0BC41E0
:1035A000C1F31301C3F31303801A994143F4801349
:1035B00004D2641E0018494180185941C90241EAE9
:1035C0005051B1FBF3F603FB1611A2FB0675D7EBC6
:1035D000C020A94102D2761E80185941C90241EA91
:1035E0005051B1FBF3FE03FB1E11A2FB0E75D7EB8E
:1035F000C020A94103D2AEF1010E801859418902C1
:1036000041EA9051760546EA8E2EB1FBF3F603FBB4
:103610001611A2FB0675D7EB8020A94102D2761EB7
:1036200080185941C90241EA50514EEA060EB1FBD9
:10363000F3F603FB1611A2FB0675D7EBC020A941D8
:1036400002D2761E80185941C90241EA5051B1FB9D
:10365000F3F703FB1711A2FB0735D3EBC020A941F9
:1036600067F100070CBF004247F0010766F3D5275A
:103670004FEA1E31B80814F5806412DDBD0775F1FC
:10368000004250EB0E5051EB045111F5801F5CBF0E
:1036900041EA0C01F0BD4CF07F6141F0E0410020B7
:1036A000F0BDBD076D0840EA0E5041F48011D4F121
:1036B0000104B4F120060ADAC4F120060200E04059
:1036C00001FA06F3E1401843B24015430EE0342CF2
:1036D00013DCC6F1200445EA40056D0820FA06F225
:1036E000154321FA06F0A1400D43002175F1004277
:1036F00050F1000051EB0C01F0BD00205FEA0C011D
:10370000F0BDCFB992185B41B3FA83F704BFB2FAA8
:1037100082F6BF190B3FB7F120062FBF02FA06F35E
:10372000BB40C7F1200622FA06F638BF3343BA4041
:103730001CB1E419641E33E77F4231F00041B1FA55
:1037400081F404BFB0FA80F6A4190B3CB4F1200652
:103750002FBF00FA06F1A140C4F1200620FA06F6B8
:1037600038BF3143A0403C1B1AE7AC421ABF05EA00
:103770001357AF4212E050EA41061CBF52EA43061B
:10378000BFE750EA4107304661461CBF41EA055198
:10379000F0BD52EA430C08BFC143F0BD00204FF416
:1037A000001616EB410F98BF16EB430F08BF16EB40
:1037B000410F24BFC14305E016EB430F0CBF614628
:1037C0004CEA0551F0BD0EE002684368024408303F
:1037D0005FEAC37C44BF4B445B1E52F804CB43F802
:1037E00004CB091FF9D150F8041B0029ECD1704714
:1037F00001F000428B1AA3F16051B1F5801F0ADB82
:10380000B1F17F6F1FD242EAC102C10071F10041E4
:1038100042EB507070470B15C3F10903212B10D2F6
:10382000890241EA905180020128494141F000415A
:1038300021FA03F0C3F12003994071F10041504196
:103840007047100070476FF0000013EB103F5CBF33
:10385000000E42EAC050704730B540F2FF7C1CEACF
:1038600011541DBF1CEA1355644565453FE06419BA
:1038700081EA030C6FF35F530CF0004C43F48013A8
:10388000C90241F0004141EA505EC5021100A5FBAA
:10389000020200284FF00000EEFB01204FF0000173
:1038A000E3FB052118BF42F0010240180021494105
:1038B000E3FB0E01A4F580640D0302D2921840418F
:1038C000494154F1010470DD450872F1004250F1A4
:1038D000000051EB0451A1F5801102D441EA0C0122
:1038E00030BD40F2FF7E4CEA0E51002030BD0CEAA4
:1038F0001355644518BF654581EA030C0CF0004C74
:1039000041D050EA410E1CBF52EA430E02E061462C
:10391000002030BD24422C441BD15FEA050EF6D0B6
:10392000090302BF01460020AEF1140EB1FA81F581
:10393000AEEB050401FA05FE0C35C5F1200100FAD5
:1039400005F5C8404EEA000E6FF35F5343F4801351
:103950009CE733F00043B3FA83F504BFB2FA82FE6A
:1039600075440B3D641BB5F1200E2FBF02FA0EF318
:10397000AB40C5F1200E22FA0EFE38BF43EA0E031B
:10398000AA40641C7CE750EA410E14BF52EA430E81
:103990006FF000014FF4001515EB430F8EBF194671
:1039A00015EB410F9DE7B4D830BDD4F10104B4F15B
:1039B00020050FDAC4F12005520828BF42F00102A9
:1039C00010FA05FE01FA05F57244E2BFE040284313
:1039D000E1400FE0352C9ADCC5F1200452EA4002A8
:1039E00020FA05F218BF42F0010231FA05F0A140B9
:1039F0000A43002172F1004250F1000051EB0C012A
:103A000030BD03685A1C02601970704780B50749C1
:103A1000086850F010000860032002F0FAFC0F2044
:103A200002F026FD02F00CFB002002BD0020024047
:103A300010B50400002C01D101202FE094F83D00C6
:103A4000002805D1002084F83C00200002F073FB20
:103A5000022084F83D00211D206800F093FA012027
:103A600084F84600012084F83E00012084F83F00DD
:103A7000012084F84000012084F84100012084F8EE
:103A80004200012084F84300012084F84400012012
:103A900084F84500012084F83D00002010BD10B5D9
:103AA0000400002C01D101202FE094F83D000028F3
:103AB00005D1002084F83C00200002F0FFFC022029
:103AC00084F83D00211D206800F05CFA012084F894
:103AD0004600012084F83E00012084F83F000120C8
:103AE00084F84000012084F84100012084F842005D
:103AF000012084F84300012084F84400012084F868
:103B00004500012084F83D00002010BD10B50400E0
:103B1000002902D194F83E000BE0042902D194F868
:103B20003F0006E0082902D194F8400001E094F833
:103B30004100012801D001204AE0002904D10220DF
:103B400084F83E00C0B211E0042904D1022084F8B8
:103B50003F00C0B20AE0082904D1022084F84000E6
:103B6000C0B203E0022084F84100C0B20122206804
:103B700000F02CFB17482168814205D121684A6C6E
:103B800052F4004221684A64216881420CD02068C6
:103B9000B0F1804F08D021680F48814204D02168DD
:103BA000DFF8380081420CD12068806810F00700EF
:103BB00006280CD02068006850F0010021680860D9
:103BC00005E02068006850F00100216808600020CE
:103BD00010BD0000002C014000040040000800401F
:103BE00038B504000D00002C01D101205CE094F8F0
:103BF0003D00002805D1002084F83C00200002F0A0
:103C0000BAFA022084F83D0020688168DFF880015C
:103C1000014020688160211D206800F0B3F9206810
:103C20008168206883692068026A28680143DFF898
:103C300064010340A8680343A86953EA0023DFF83E
:103C400058010340DFF854010340E8680343E86982
:103C500053EA0023286953EA0013286A53EA003321
:103C600032F0220268680243686952EA0012206852
:103C700081602068836120680262012084F8460028
:103C8000012084F83E00C0B2012084F83F00C0B299
:103C9000012084F84200C0B2012084F84300C0B281
:103CA000012084F83D00002032BD000038B504003A
:103CB00094F83E5094F83F0094F8422094F8433032
:103CC000002910D1EDB2012D02D1D2B2012A01D0CA
:103CD00001205BE0022084F83E00C0B2022084F89C
:103CE0004200C0B230E0042910D1C0B2012802D194
:103CF000DBB2012B01D0012048E0022084F83F0014
:103D0000C0B2022084F84300C0B21DE0EDB2012D24
:103D100008D1C0B2012805D1D2B2012A02D1DBB24A
:103D2000012B01D0012031E0022084F83E00C0B216
:103D3000022084F83F00C0B2022084F84200C0B2E2
:103D4000022084F84300C0B2002902D0042906D022
:103D50000BE001220021206800F038FA0FE0012278
:103D60000421206800F032FA09E0012200212068D5
:103D700000F02CFA01220421206800F027FA2068C4
:103D8000006850F0010021680860002032BD00008A
:103D9000F8BFFFFFFCFCFFFFF3F3FFFF0F0FFFFF78
:103DA00070B504000E00002594F83C00012801D1F4
:103DB00002206FE0012084F83C00002A06D0042A8B
:103DC0001BD0082A31D00C2A46D05DE03100206893
:103DD00000F00CF92068806950F0080021688861C3
:103DE0002068816931F0040120688161206881695F
:103DF000306901432068816147E03100206800F0AC
:103E000022F92068816951F400612068816120688D
:103E1000816931F48061206881612068806931693D
:103E200050EA0120216888612FE03100206800F00D
:103E30003BF92068C16951F008012068C161206820
:103E4000C16931F004012068C1612068C16930692D
:103E500001432068C16118E03100206800F054F986
:103E60002068C16951F400612068C1612068C1699E
:103E700031F480612068C1612068C069316950EA0D
:103E800001202168C86100E00125002084F83C0081
:103E90002800C0B270BD38B50400002594F83C007D
:103EA000012801D102206CE0012084F83C000220AE
:103EB00084F83D002068826832F0770232F47F4255
:103EC00020688260086800284DD010284BD0202838
:103ED00049D0302847D040283BD0502825D06028F2
:103EE0002DD0702807D0B0F5805F03D0B0F5005F0B
:103EF0000ED03DE03DE0CB684A688968206800F05C
:103F00005AF92068816851F077012068816030E0BB
:103F1000CB684A688968206800F04DF9206881689C
:103F200051F480412068816023E0CA6849682068B4
:103F300000F014F95021206800F035F919E0CA6842
:103F40004968206800F01CF96021206800F02BF916
:103F50000FE0CA684968206800F000F94021206835
:103F600000F021F905E00968206800F01CF900E084
:103F70000125012084F83D00002084F83C00280041
:103F8000C0B232BD10B40468714B984208D0B0F191
:103F9000804F05D06F4A904202D06F4A904204D1C0
:103FA00034F0700422004C681443984208D0B0F1F9
:103FB000804F05D0674A904202D0674A904204D1B0
:103FC00034F440742200CC68144334F080044A690D
:103FD000144304608A68C2620A688262984201D10E
:103FE000096901630121416110BC704770B4056A21
:103FF000026A5208520002624368846934F0700415
:10400000A408A4000A68144335F002058A68154321
:104010004F4EB04205D135F00805CA68154335F05A
:104020000405B04208D133F4807333F400734A6955
:1040300013431A008B6913434360846149684163E9
:10404000056270BC704770B4056A026A32F01002F3
:1040500002624268836933F4E04333F440730C68CE
:1040600053EA042335F020058C6855EA0415384ED0
:10407000B04206D135F08005CC6855EA041535F01C
:104080004005B04209D132F4806232F400624C69DA
:1040900052EA84028C6952EA840242608361496870
:1040A0008163056270BC704770B4056A026A32F4BD
:1040B000807202624368C46934F07004A408A400EA
:1040C0000A68144335F400758A6855EA0225204EC3
:1040D000B04206D135F40065CA6855EA022535F4C8
:1040E0008065B04209D133F4805333F400534A69F8
:1040F00053EA02138A6953EA02134360C4614968B0
:10410000C163056270BC704730B4026A036A33F45D
:10411000805303624468C36933F4E04333F440736B
:104120000D6853EA052332F400528D6852EA0532D5
:10413000074DA84204D134F480444D6954EA8514F3
:104140004460C36149680164026230BC704700008A
:10415000002C0140000400400008004010B4036A35
:10416000046A640864000462846934F0F00454EA68
:10417000021433F00A0319438461016210BC7047D2
:1041800010B4036A046A34F010040462846934F4DD
:10419000704454EA023433F0A00353EA01138461FB
:1041A000036210BC7047826832F07002114351F014
:1041B00007018160704710B4846834F47F44214360
:1041C000114351EA0321816010BC704710B40124EF
:1041D00011F01F039C40036A33EA04040462036A7B
:1041E00011F01F0112FA01F11943016210BC70476E
:1041F00038B5050002F0A0F8040015F1010F02D057
:1042000004480078451902F097F8001BA842FAD339
:1042100031BD00BF4000002062B38B0708D0521EA2
:1042200011F8013B00F8013B00F024808B07F6D128
:10423000830740F0208000BF103A07D330B4B1E8C4
:104240003810103AA0E83810F9D230BC530724BF18
:10425000B1E80810A0E8081044BF51F8043B40F84A
:10426000043BD20724BF31F8022B20F8022B44BFB5
:104270000B7803707047121F17D35B0009D151F8F8
:10428000043B20F8023B1B0C121F20F8023BF6D225
:104290000BE051F8043B00F8013B1B0A20F8023BFD
:1042A0001B0C121F00F8013BF3D238BF121D521E27
:1042B00024BF11F8013B00F8013BF8D87047010218
:1042C00090EA010F40F1728081F00041431A4FF0F3
:1042D00000423EBF5340C01AC918D3095FEAD05C00
:1042E00013EB400F34BFB3EB410F40E07CEBD153F5
:1042F0000CD342EA012122D8D1EB402009D3400A55
:1043000028BF5FEA500140EBCC507047401A15D0EF
:104310004002B0FA80F2521C9040400A4FEA3C231F
:10432000B3EB026384BF00EB730007E040F40000CE
:104330001A16DB07C2F10102D04018437047182B50
:10434000FCDC31FA03F202FA03F3591A38BF42F0E7
:104350000102D2EB40203CBF0018ACF1010C5FEA37
:10436000CC5CC20572F100414CEB5020704713EB5E
:10437000400F0FD2C94209D0ACEBD153022B03DB63
:104380004902172BDDDD70479143401AC042D5D159
:104390000020704713EB410FD0D36FF0000070473F
:1043A00090EA010F7FF592AF81F00041421A3CBFC5
:1043B000801A8918C0F3C752FF2A4FF0004C22D050
:1043C000C1F3C7534BB3D21AD2F119032EDD4CEA15
:1043D00001214CFA03F321EA0303D1404CEA002205
:1043E0006FF3160052180FD353EAC2534CEA52022D
:1043F00073EB0C0C50EB1220420012F1807F38BF9F
:1044000070476FF31600704753EA026322EA0C020A
:1044100073EB0C0C50EB12207047490212BF9A420A
:1044200000EB5120EFE7D2F11703D2D570472E00F1
:10443000FF2212EAD05C1DBF12EAD1539445934289
:104440002BE09C44D30780EA010243EA002043EAC0
:1044500001211A40A1FB0030C04238BF00187CF196
:104460007F010BDBFE294ADA5B0842EAC15153EABD
:10447000006373F1004C51EB10207047D1F1080C30
:10448000DCF120012FDB5B0810FA01F10B4320FA6D
:104490000CF073F100415041704794451CBF02EA93
:1044A000D153934280EA010202F000421DD0400045
:1044B00019D0490017D05BB9634514D00902B1FA8D
:1044C00081F39940BCEB030CC00140F00040C1E710
:1044D0000002B0FA80FC10FA0CF0B3EB0C0CC9012E
:1044E00041F00041B6E71000704740000AD0490093
:1044F00008D010F1807F94BF11F1807F02E042F07C
:10450000FF407047D04370470CB430B583B00A46C3
:1045100006A90291044600250194009502AB01A969
:10452000084878441E3001F0CEFF01990D70002834
:104530004EBF04460198041B204603B030BC5DF812
:104540000CFB00BFBFF4FFFF10B50400002C01D12D
:10455000012035E0A0690028FFD194F8410000282F
:1045600005D1002084F84000200001F08FFE2420B7
:1045700084F841002068C16831F400512068C160AE
:10458000200000F0F3FA2068016931F490412068BE
:1045900001612068416931F02A0120684161206889
:1045A000C16851F400512068C1600020606420207F
:1045B00084F84100202084F842000020606300203D
:1045C00010BD2DE9FC4106000D0014001F00002065
:1045D00096F8410020284BD1002D03D0200080B256
:1045E000002801D1012044E000207064212086F8D9
:1045F000410001F0A1FE8046B484F484B068B0F5B7
:10460000805F04D13069002801D1002412E02C0021
:1046100000250FE0217830684160641C07E0002C21
:10462000F8D12988C905C90D30684160AD1CF08CEE
:10463000401EF084F08C00280AD0009743460022E8
:104640008021300000F05CF90028E8D0032010E061
:104650000097434600224021300000F051F9002825
:1046600001D0032005E0202086F84100002000E072
:104670000220BDE8F68138B5040020680168206892
:10468000C268206843690020002011F00F00002854
:1046900007D18D0605D5950603D5200000F0EFF96A
:1046A0002DE1002870D0D80702D412F4907F6BD08F
:1046B0000800C00705D5D00503D5606C50F0010097
:1046C0006064480706D51800C00703D5606C50F039
:1046D00002006064880706D51800C00703D5606C27
:1046E00050F004006064080707D5900601D4D8078D
:1046F00003D5606C50F008006064606C002842D004
:10470000880604D5900602D5200000F0B8F920688C
:104710004069800910F00100616C090701D400288C
:104720002CD0200000F031F920684069400621D5E6
:104730002068143050E8001F31F04001206810F16B
:10474000140242E800100028F2D1E06B00280DD0DE
:104750000FF29921E06B4163E06B02F03DFE00280F
:1047600011D0E06BE16B496B88470CE0200002F050
:1047700099FE08E0200002F095FE04E0200002F01F
:1047800091FE00206064BAE0206B012840F0A78011
:10479000C80640F1A480D00640F1A180002000901E
:1047A00020680068009020684068009000982068A9
:1047B0004069400656D5E06B00684068010089B248
:1047C00000294ED00100A28D89B2914249D2E085E4
:1047D000E06B806920283BD020680C3050E8001F37
:1047E00031F48071206810F10C0242E800100028BA
:1047F000F2D12068143050E8001F490849002068B1
:1048000010F1140242E800100028F2D120681430A0
:1048100050E8001F31F04001206810F1140242E816
:1048200000100028F2D1202084F8420000202063EC
:1048300020680C3050E8001F31F01001206810F1A2
:104840000C0242E800100028F2D1E06B02F09EFD5D
:1048500002206063A18DE08D091A89B2200002F068
:1048600022FE4CE0A18DE08D091AE08D002835D0A4
:10487000080080B2002831D020680C3050E8002FAA
:1048800032F49072206810F10C0343E800200028F5
:10489000F2D12068143050E8002F520852002068EE
:1048A00010F1140343E800200028F2D1202084F8FE
:1048B00042000020206320680C3050E8002F32F0C6
:1048C0001002206810F10C0343E800200028F2D108
:1048D0000220606389B2200002F0E5FD0FE00806C7
:1048E00005D5100603D5200000F08AF807E0480639
:1048F00005D5500603D5200000F0B3F8FFE731BD21
:104900002DE9F04105000E0090461F00069C286826
:1049100000683040B04201D1012100E00021404652
:10492000C0B281422ED114F1010FF0D0002C04D07E
:1049300001F002FDC01B8442E9D228680C3050E827
:10494000001F31F4D071286810F10C0242E8001009
:104950000028F2D12868143050E8001F49084900A7
:10496000286810F1140242E800100028F2D120203B
:1049700085F84100202085F84200002085F840009D
:10498000032000E00020BDE8F08101680C3151E80F
:10499000002F32F49072016811F10C0343E80021FA
:1049A0000029F2D10168143151E8002F5208520059
:1049B000016811F1140343E800210029F2D1016BD1
:1049C00001290CD101680C3151E8002F32F010029E
:1049D000016811F10C0343E800210029F2D12021E4
:1049E00080F84210002101637047000080B5406AE2
:1049F0000021C1850021C18402F054FD01BD0000E9
:104A000090F8411021292AD18168B1F5805F0CD13D
:104A10000169002909D1016A0A88D205D20D01680D
:104A20004A60016A891C016205E0026A511C016248
:104A3000127801684A60C18C491EC18489B200297C
:104A40000BD10168CA6832F080020168CA6001684F
:104A5000C96851F040010068C160002000E00220F8
:104A6000704780B50168CA6832F040020168CA60C8
:104A7000202180F8411002F017FD002002BD80B512
:104A800090F8421022296FD18168B1F5805F0DD175
:104A9000016900290AD10021816A02685268D205A1
:104AA000D20D0A80816A891C816217E0826A002126
:104AB0008168B1F5805F05D08168002906D1016960
:104AC000002903D101684968117004E00168496850
:104AD00011F07F011170816A491C8162C18D491EEC
:104AE000C18589B200293DD10168CA6832F020022F
:104AF0000168CA600168C96831F480710268D160D8
:104B000001684A695208520001684A61202180F810
:104B1000421000214163016B01291FD10021016373
:104B200001680C3151E8002F32F01002016811F1D8
:104B30000C0343E800210029F2D101680968C90685
:104B400008D5002100910168096800910168496851
:104B500000910099818D02F0A6FC01E002F0A5FC15
:104B6000002002E0002000E0022002BDF8B50400B1
:104B70002068016931F44051E06801432068016117
:104B8000A26820690243616911432068C2682B480A
:104B9000024011432068C1602068416931F44071CE
:104BA000A06901432068416121682548814202D102
:104BB00001F09AF901E001F08CF97FF0630119220C
:104BC00002FB00F36568AD00B3FBF5F56423B5FBAC
:104BD000F3F302FB00F56668B600B5FBF6F502FBE1
:104BE00000F66768BF00B6FBF7F76426B7FBF6F67A
:104BF00001FB06552E0132366425B6FBF5F515F09E
:104C0000F00515EB031502FB00F36668B600B3FB75
:104C1000F6F3504362689200B0FBF2F26420B2FBFC
:104C2000F0F001FB0031090132316420B1FBF0F0FA
:104C300010F00F00451920688560F1BDF3E9FFFF12
:104C40000038014050B1B0FA80F18840C1F19D01B7
:104C5000C905020672F1004241EB102070470000C6
:104C600070B491EA030F4FF0004540F1BF806B40F4
:104C7000841A71EB030604D26E40001BB141121975
:104C800073414FF4001C1CEB410F34BF7CEB430617
:104C900083E00C0DA4EB1356362E00F37C80012E1E
:104CA00045EAC32341DC43EA525312BFD2029202C7
:104CB0005B08240545EAC12141EA5051D2EBC020EE
:104CC000994125D407D1B0FA80F610FA06F162D0E6
:104CD0000020203608E0B1FA81F6B140C6F120028A
:104CE00020FA02F21143B0404FEAF474B4EB465498
:104CF00034F001064FEA74040AD8D6F50016760D92
:104D000004F00044F04061FA06F25040F14048409F
:104D1000C00A40EA415021F0004128BF5FEA500537
:104D200050F1000044EBD12135E0DB0A45EAC12116
:104D3000C90AB6F120050EDD42EA0242120CC5F1A5
:104D4000200603FA06F6EB4042EA06056D4298415A
:104D500061F100010DE062FA06F5F240554063FA98
:104D600006FC82EA0C02F3405A406D42904161EB2E
:104D7000030111F4801F05D1641E620502D06D008D
:104D80004041494121F48011430875F1004350F13D
:104D9000000041EB045170BC70471CEB410F15D271
:104DA00023F0004352EA43060BD04FEA4C0CBCEB15
:104DB000410F04D80C0D661E342EB7DDEBE7801AC8
:104DC000994150EA410608BF0021E4E708BF1CEB07
:104DD000430F28BF6FF00001DDE7000070B491EAD7
:104DE000030F4FF000457FF543AF6B40841A71EB22
:104DF000030603D2001BB141121973414FF4001C8A
:104E00001CEB410F34BF7CEB430442E00C0DA4EBE0
:104E10001356352E4FDC45EAC323DB0A45EAC12190
:104E2000C912B6F120050DDD63FA05F6EB4086EAFE
:104E30000305124218BF45F00105C01851F10001E9
:104E40000CD213E062FA06F5F2405540F3415A40A5
:104E5000B340F3405A408018594107D349085FEAEC
:104E600030005FEA350528BF45F0010501F58011E6
:104E7000420875F1004250F1000041EB04514E0030
:104E800016F5001F70BC38BF70470020090D0905DA
:104E900070471CEB410F10D252EA43060BD0BCEB1B
:104EA000410F05D80C0DAB43661E342EB6DD02E073
:104EB000AB438018594170BC704770BC704700000C
:104EC00040F2FF7C0B0D4DD0634566D230B421EA31
:104ED000035141F4801103F2FD3C5FEA5C0C01D305
:104EE00000184941890041EA907180004FF4401454
:104EF0000023E202D50AB1F5100107D46D081DD2D6
:104F0000091B641900184941491BF7D56D080AD2DD
:104F10000919641B00184941491BEFD56D08F7D3E7
:104F200001E0520817D0C01861419B1AAC4100182B
:104F30004941801AA941F4D452080AD0C01AA141AB
:104F40009B186C4100184941801AA941E9D45208C4
:104F5000F4D15B1C6C4161084FEA330001EB0C514A
:104F600030BC704750EA0103FBD030B4B1FA81F392
:104F700011B9B0FA80F41B190B3BB3F120042FBF19
:104F800000FA04F19940C3F1200420FA04F438BF78
:104F900021439840D3F101039DE7634514BF50EAD4
:104FA000410CDEE711F5801FDBD8D943AFF3008059
:104FB0007047000040EA010C1CEB0C0F4FF0807CA6
:104FC00007D305D01CEB400F9CBF1CEB410F884260
:104FD00070471CEB400F98BF8142704740EA010CBC
:104FE0001CEB0C0F4FF0807C07D305D01CEB400F5F
:104FF0009CBF1CEB410F814270471CEB410F98BFD7
:10500000884270474FF0FF0C1CEAD0531DBF1CEACA
:10501000D1526345624543E09B1A5FEACC7280EA55
:10502000010C42EA01211CEA020C42EA0020421A69
:1050300038BF01EB420253F17E034FEA1121B2FB6C
:10504000F1F001FB102260F3D63C4FEA0222B2FBE2
:10505000F1F001FB102260F3CE1C4FEA0222B2FBFA
:10506000F1F006DDFF2B29DA5CEA500040EBC3507B
:105070007047C3F1020301FB1022192B40EA4C01D7
:105080000CF0004C41F0807121DC21FA03F0C3F1F7
:1050900020039940114371F1004250EB0C0070471E
:1050A00063451ABF0CEAD152624512E080EA010C56
:1050B00000180CF0004C06D049181AD10CF0004C26
:1050C0004CF0FF407047C94208BF6FEA020C6046CF
:1050D0007047634506D1B2EB0C02F5D001F00041F8
:1050E000484070474A0212BF0846484000F000405E
:1050F00070474AB90902B1FA81F2914043B19B1855
:10510000C00140F0004092E7C90141F00041524225
:105110000002B0FA80F39840D31A88E72DE9F64DE3
:1051200004468846DFF87003DFF8701322464346D2
:10513000FEF792FB0F4627F00041DFF86423DFF80B
:10514000643302F0B3F906465BD2DFF85C03FD0F6F
:1051500065F3DF700346002230463946FFF780FDD5
:1051600000F0A2FA060047D002F0BAF90022CF4BB5
:10517000FEF772FB05460F464FF0A040CC492A4689
:105180003B46FEF769FB22464346FFF769FD0446AE
:1051900088464FF0C040C7492A463B46FEF75CFBB5
:1051A00022464346FFF75CFD044688464FF0005018
:1051B000C1492A463B46FEF74FFB22464346FFF7CE
:1051C0004FFD044688460020BC492A463B46FEF770
:1051D00043FB22464346FFF743FD044688464FF013
:1051E0000050B7492A463B46FEF736FB2246434667
:1051F000FFF736FD04468846019806F003052D1892
:10520000ACE04FEA480141EAD4714815C91710F1E2
:10521000010F14D14FF0FF36B14208BFB04209D19F
:105220004FEA083343EA14532203002B08BF002A35
:1052300040F02E8130466FF00041BDE8FC8D24F037
:10524000000038F0004108BF002805D1019808B1DE
:10525000DFF8708200201CE13046934EFD0F65F3AD
:10526000DF76394600223346FFF7FAFC4B0043EA6B
:10527000D0734200002B08BF002A17D040F23346FB
:10528000A6EB5356352E04DB00F0000601F0004774
:105290000EE0202E03DD203EF140B14000E001D1C0
:1052A000002003E0002EC4BFF040B04006460F4689
:1052B00026F0000237F0004308BF002A46D0002045
:1052C0007A493B46FEF7C8FA05468B464FF0A040A8
:1052D00077492A465B46FEF7BFFA22464346FFF768
:1052E000BFFC044688464FF0C04072492A465B46E0
:1052F000FEF7B2FA22464346FFF7B2FC0446884660
:105300004FF000506C492A465B46FEF7A5FA22464C
:105310004346FFF7A5FC04468846002067492A4615
:105320005B46FEF799FA22464346FFF799FC04468E
:1053300088464FF0005062492A465B46FEF78CFAD9
:1053400022464346FFF78CFC04468846019D3046C2
:10535000394600F0A9F900F00300451928F000478C
:10536000002F05D500204FF00041061B61EB070719
:1053700000225FF0795304D54FF00041921A61EB9F
:1053800003039F4205DAEA077BD50024DFF8348166
:1053900077E02246434620464146FEF75DFA064640
:1053A000E8070F4631D54848484932463B46FEF7A4
:1053B00053FA474A474BFFF753FC32463B46FEF74A
:1053C0004BFA454A454BFFF74BFC32463B46FEF74E
:1053D00043FA434A434BFFF743FC32463B46FEF752
:1053E0003BFA414A414BFFF73BFC32463B46FEF756
:1053F00033FA6FF051023E4BFFF732FC32463B4628
:10540000FEF72AFA00222F4B37E032463B46204671
:105410004146FEF721FA82468B46364836493246E7
:105420003B46FEF719FA354A354BFFF719FC324671
:105430003B46FEF711FA334A334BFFF711FC324675
:105440003B46FEF709FA314A314BFFF709FC324679
:105450003B46FEF701FA2F4A2F4BFFF701FC32467D
:105460003B46FEF7F9F92D4A2D4BFFF7F9FB524663
:105470005B46FEF7F1F922464346FFF7F1FB04468F
:105480008846A80704D588F000412046BDE8FC8D79
:1054900020464146BDE8FC8D83C8C96D305FE43FBE
:1054A0000000A0FFFFFFDF410000E03F0000303EB2
:1054B000FB21B9C1B41011C026A651BE5C14D3BCE7
:1054C0009A833BBB0000F03F09260A1039BA213EFF
:1054D0003BA861C6F97D92BE63AC30909F01FA3E55
:1054E000F6FB51166CC156BFB10255555555A53F37
:1054F000FFFFDFBFB08F2FC310D8E53D8F0C73A126
:10550000E1E55ABE4DADE44FE31DC73E3EE3B5199C
:10551000A0012ABFFAF010111111813F42555555D3
:105520005555C5BF0122F9E50022F7E52DE9F84CF4
:105530000CB484B00B46DDE904677900024641EA09
:10554000D6714815C917CDE90201DDE9020110F154
:10555000010F1FBF5D0045EAD2756C1514F1010FF4
:1055600044D0D80F1ABF23F0004308240024FE0FB4
:1055700007D0DDE9040121F00045CDE9040584F000
:105580000604DDE90467BB46BBF1000F08D5002027
:105590004FF00041801B61EB0B0BCDE9000B01E0EC
:1055A000CDE9006B1900104605D500254FF0004BE2
:1055B000281A6BEB0101DDE900AB8B4507DC01DB51
:1055C000824504D2DDE90401FDF7DAFF5FE037F040
:1055D000004708BF002E02D10020002159E01046EC
:1055E0001946DDE90423FDF7CBFF52E0CDE90023A6
:1055F000DDE900AB4FEA4B0141EADA714815C91702
:105600004FF0FF34A14208BFA0420BD14FEA0B304C
:1056100050EA1A504FEA0A3108BF002902D010465A
:1056200019463CE0DDE90201A14208BFA04209D1D0
:10563000380340EA1650310300280CBF0029DDE989
:1056400004012CD1DDE904014C00641514F1010FB3
:105650000BD1080302BF5900491511F1010F04D104
:10566000180302D100200F4901E000200021DDE9EC
:105670000045EC0FE400FE0F18BF84F006041A4644
:1056800053005B1513F1010F03D1120301D184F014
:105690000204224607B0BDE8F04C01F033BF07B06A
:1056A000BDE8F08C0000F03FC1F30A5340F21E4207
:1056B000D31A0CDDCA0283F3070342EA505242F0C8
:1056C0000042DA4002EBE17282EAE17070476FEA71
:1056D000E17203F2E13008B182F00040704700004F
:1056E000F8B502000023002514E0DFF8CC61306833
:1056F00030EA040434600CE0DFF8C0613068A04395
:1057000030604868C003F0D5DFF8AC61306804430E
:1057100034605B1C0868D840002800F0B88001267F
:105720009E400C683440B442F3D14F68002F27D01C
:10573000012F1AD0022F1DD0032F2FD0112F16D0DA
:10574000122F1AD05E4887421AD05E48874217D07F
:105750005D48874214D05D48874211D05C4887423B
:105760000ED05C4887420BD01AE0CD6818E0CD68B7
:105770002D1D15E0CD68083512E0CD680C350FE021
:105780008868002801D1042507E08868012802D133
:105790000825166101E00825566101E00025FFE7B4
:1057A000B4F5807F01D2170000E0171DB4F5807FAB
:1057B00002D25FEA830C03E0B3F1080C5FEA8C0CC1
:1057C0000F26D7F800E016FA0CF03EEA000E15FAA4
:1057D0000CFC5CEA0E0CC7F800C04868C00098D505
:1057E0003D4F386850F001003860386810F0010013
:1057F00000900098394F1800800857F820C013F027
:105800000300C0B2800086403CEA060C3448824265
:1058100001D100260FE03348824201D101260AE07F
:105820003148824201D1022605E03048824201D14E
:10583000032600E0042613F00300C0B28000864077
:1058400056EA0C0C1800800847F820C04868C002CF
:1058500004D5274E30682043306003E024480668B2
:10586000A64306604868800204D52248066826439D
:10587000066003E01F4E3068A04330604868800334
:105880007FF53AAF0D4806682643066039E7F1BD5B
:10589000806889B2084201D0012000E00020C0B237
:1058A0007047D2B2002A02D089B2016102E089B207
:1058B0000904016170470000000401400404014034
:1058C0000000111000001210000021100000221032
:1058D0000000311000003210181002400800014092
:1058E00000080140000C014000100140001401407C
:1058F000080401400C040140002848BF40427047A2
:1059000062F30F2262F31F42401810F0030308D025
:10591000C91A1FD3DB0748BF00F8012D28BF20F8A4
:10592000022D130030B414461546103928BF20E963
:105930003C00FAD8490728BF20E90C0048BF40F8CE
:10594000042D890028BF20F8022D48BF00F8012D42
:1059500030BC7047C91818BF00F8012DCB0728BF0D
:1059600000F8012D704700002DE9FC410400002CD7
:1059700001D10120DFE12078C0076BD5DFF8A80551
:10598000016811F00C01042907D0016811F00C0125
:1059900008290CD10068C00309D5DFF88805006824
:1059A000800357D56068002854D10120C3E16068A6
:1059B000B0F5803F06D1DFF86C05016851F4803105
:1059C000016026E0606800280AD1DFF85805016808
:1059D00031F480310160016831F48021016018E008
:1059E0006068B0F5A02F0AD1DFF83805016851F4DE
:1059F00080210160016851F48031016009E0DFF825
:105A00002405016831F480310160016831F480219E
:105A10000160606800280ED000F08EFC0500DFF801
:105A200004050068800315D400F086FC401B65283F
:105A3000F5D303207FE100F07FFC0500DFF8E404EC
:105A40000068800306D500F077FC401B6528F5D37D
:105A5000032070E1207880071ED5DFF8CC040168B0
:105A600011F00C0F07D0016811F00C0108292CD19E
:105A70000068C00329D4DFF8AC040168890704D5A5
:105A80002169012901D0012055E1026832F0F802B4
:105A9000616952EAC10202602078000749D5A06915
:105AA000002871D00121DFF89404016000F044FC6B
:105AB0000500DFF884040068800737D400F03CFC60
:105AC000401B0328F5D3032035E1206900281AD0B4
:105AD0000120DFF86C14086000F02EFC0500DFF8F0
