:020000040800F2
:10000000F80A0020295E0008555D0008575D0008C9
:10001000595D00085B5D00085D5D000800000000A0
:100020000000000000000000000000005F5D00080C
:10003000615D000800000000635D0008655D000868
:100040004D5E0008515E0008555E0008595E0008CC
:100050005D5E0008615E0008655E0008695E00087C
:100060006D5E0008715E0008755E0008795E00082C
:100070007D5E0008815E0008855E0008895E0008DC
:100080008D5E0008915E0008955E0008995E00088C
:100090009D5E0008A15E0008A55E0008A95E00083C
:1000A000AD5E0008B15E0008B55E0008B95E0008EC
:1000B000BD5E0008C15E0008C55E0008C95E00089C
:1000C000CD5E0008D15E0008D55E0008D95E00084C
:1000D000DD5E00086D5D0008E15E0008E55E000879
:1000E000E95E0008ED5E0008F15E00082DE9FE43C0
:1000F0000400CDE900120293DDE90001029A070035
:100100000B001500002000900020019000200290BC
:100110003800DFF8841C01F049F91AD938000021B1
:1001200001F058F915D3DFF89C231800110001F0F5
:100130003DF90ED91800002101F04CF909D328002F
:10014000110001F033F904D92800002101F042F92F
:1001500005D26B4693E8070084E80700ABE018007F
:10016000DFF8381C01F04AF980462800DFF82C1C23
:1001700001F044F906004046310001F0CBF90500DA
:1001800000225FF0804390469946380001F02EFA35
:100190000022DFF8C83C01F04DFA42464B4601F020
:1001A00081FB01F053FC0100C74801F083FC020011
:1001B0001000002101F0FAF801D992F000425FF03E
:1001C0007E50110001F0E6FC290001F0A3F9804601
:1001D0003000290001F0DEFC06003800002101F0AB
:1001E000E5F809D83800B94901F0F4F804D228003C
:1001F00047465FF0000840E03800B44901F0D6F807
:100200000AD83800DFF8981B01F0E4F804D2404621
:100210002F005FF0000830E03800DFF8841B01F0A9
:10022000C5F808D83800DFF87C1B01F0D3F802D2FB
:1002300000202F0021E03800DFF8681B01F0B6F83D
:1002400009D83800DFF8601B01F0C4F803D20020A1
:100250004746A84611E03800DFF84C1B01F0A6F82D
:1002600009D83800DFF8441B01F0B4F803D2404647
:100270000027A84601E028000027DFF8085E3100CB
:1002800001F018FC290001F045F900903800310018
:1002900001F010FC290001F03DF9019040463100C9
:1002A00001F008FC290001F035F902906B4693E853
:1002B000070084E80700BDE8F7831FB5DFF8A04B0F
:1002C0004FF47A700290012001900DF10D00009022
:1002D00001237522D021200001F044FE9DF80D007D
:1002E00068283FD100208DF80C004FF47A700290FE
:1002F0000120019003A8009001236B22D02120004F
:1003000001F07CFD07208DF80C004FF47A7002900C
:100310000120019003A8009001231922D021200080
:1003200001F06CFD00208DF80C004FF47A70029003
:100330000120019003A8009001231C22D02120005D
:1003400001F05CFD00208DF80C004FF47A700290F3
:100350000120019003A8009001231B22D02120003E
:1003600001F04CFD1FBD30B585B04FF47A7002909E
:100370000620019003A8009001233B22D021DFF842
:10038000E00A01F0EFFDDFF8DC0A9DF80C209DF893
:100390000D1051EA02210180DFF8DC4B9DF80E20A0
:1003A0009DF80F1051EA02212180DFF8D05B9DF803
:1003B00010209DF8111051EA02212980B0F90000A7
:1003C00002F0E6F90022DFF8B83B01F033F901F062
:1003D0003DFBDFF8B01B0860B4F9000002F0D8F96B
:1003E0000022DFF89C3B01F025F901F02FFBDFF83C
:1003F000981B0860B5F9000002F0CAF90022DFF886
:10040000803B01F017F901F021FBDFF8241E0860A2
:1004100005B030BD30B585B04FF47A70029006203B
:10042000019003A8009001234322D021DFF8300A75
:1004300001F098FDDFF8540B9DF80C209DF80D108D
:1004400051EA02210180DFF8484B9DF80E209DF80B
:100450000F1051EA02212180DFF8385B9DF810204F
:100460009DF8111051EA02212980B0F9000002F034
:100470008FF90022DFF8103C01F0DCF801F0E6FA19
:10048000DFF8081C0860B4F9000002F081F90022CE
:10049000DFF8F43B01F0CEF801F0D8FADFF8F01BFA
:1004A0000860B5F9000002F073F90022DFF8D83BCC
:1004B00001F0C0F801F0CAFADFF8181E086005B0B4
:1004C00030BD00000100C842000080BF0000704243
:1004D0002DE9F84F9EB000200D9000201190DFF81C
:1004E000B40B016851F0807101600021DFF8080D44
:1004F0000160DFF8280C016851F001010160DFF8AC
:10050000200C0168DFF81C0C0160DFF81C0C109057
:1005100000265FF07E5500245FF081401C905FF064
:100520007A501B90DFF8040C1A90DFF8040C0F903F
:10053000DFF8001C1991DFF8001C18911790DFF804
:10054000FC0B0C900020139000200E9000201290C5
:10055000DFF8EC0B00681490DFF840081590169057
:1005600002F028F900F024FC00F066FE00F046FEE0
:1005700000F055FC00F078FC00F00EFD00F0E2FD0C
:1005800000F08AFD0021DFF8500D02F05DF9042132
:10059000DFF8440D02F058F90821DFF83C0D02F0B5
:1005A00053F90C21DFF8300D02F04EF90021DFF88D
:1005B0002C0D02F049F90C21DFF8200D02F044F96E
:1005C0000021DFF81C0D02F03FF93C21DFF8140D8B
:1005D00002F0AEF9642002F001FCFFF76EFE40F677
:1005E000B83002F0FBFB0021DFF8480C016000216D
:1005F000DFF8F40C01600021DFF8F00C016000214D
:10060000DFF83C0B01605FF0000876E0FFF7ABFE1F
:10061000FFF700FFDFF81C7C3868DFF8681909680D
:1006200001F048FA3860DFF8C07C3868DFF8581904
:10063000096801F03FFA3860DFF8B07C3868DFF80D
:10064000F01B096801F036FA3860DFF8A47C3868DE
:10065000DFF8381A096801F02DFA3860DFF8947C69
:100660003868DFF82C1A096801F024FA3860DFF8DE
:10067000887C3868DFF85C1C096801F01BFA386078
:10068000052002F0ABFBDFF8B87A386800F0AEFF67
:1006900082468B46D9F8000002F0B4FB00F0A6FFBA
:1006A00002000B000020DFF8541C00F0C3FF52468C
:1006B0005B4602F0B9FB01F0C9F938603868149064
:1006C00014A890E80E006846FFF710FDDFF80C7CD8
:1006D000029802F0D9FC39684863009802F0D4FC13
:1006E00039680864019802F0CFFCFF214843DFF825
:1006F000F01B0968486318F10108DFF8049CD9F879
:100700000000804582DBD9F8000002F07BFB01008D
:10071000DFF8200B006800F071FEDFF8181B08609E
:10072000D9F8000002F06EFB0100DFF8BC0B006896
:1007300000F064FEDFF8B01B0860D9F8000002F09A
:1007400061FB0100DFF8A40B006800F057FEDFF842
:100750009C1B0860D9F8000002F054FB0100DFF890
:10076000900B006800F04AFEDFF8841B0860D9F89F
:10077000000002F047FB0100DFF8780B006800F092
:100780003DFEDFF8701B0860D9F8000002F03AFB6C
:100790000100DFF8640B006800F030FEDFF8581B42
:1007A00008600021DFF85C0B01600021DFF8580BC6
:1007B00001600021DFF8540B01600021DFF8500BCD
:1007C00001600021DFF84C0B0160E8E1DFF8080B65
:1007D00000210268D163D9F800100068016409E1C2
:1007E0003000109901F0D6F906003868290000F0B1
:1007F000F1FD05D21098290001F05CF9050004E034
:100800002800109901F0C6F90500DFF80CBB199813
:10081000DFF8081B096800F07DFE8046DBF8000069
:10082000DFF8FC1A096801F0B5F9189900F072FEBA
:10083000414601F03FF900F0D9FE31F00041DFF808
:10084000E48A02F035FC8146179800F0CFFECDE92E
:100850000001139800F0CAFE31F00041DDE90023E9
:1008600002F042FC02F024FC10EB0900C8F8000082
:10087000D8F80000B0F5807F02DBFF20C8F8000048
:10088000D8F80000002802D50020C8F80000386819
:100890001B9900F03FFE210001F00CF904000F98B5
:1008A000210000F097FD00D20F9C20000F9991F0DD
:1008B000004100F08FFD02D20F9C94F000440C9890
:1008C000396800F087FD06D338680C9991F0004133
:1008D00000F080FD00D20024DFF84C9A386829002F
:1008E00001F058F91C9900F015FE82463868DFF8CF
:1008F0003C1A096801F04EF91A9900F00BFE5146B6
:1009000001F0D8F8210001F0D5F800F06FFE31F0C9
:10091000004102F0CDFBC9F80000D9F80000B0F5A5
:10092000807F02DBFF20C9F80000D9F80000002812
:1009300002D50020C9F800000C98396800F04AFD83
:1009400014D338680C9991F0004100F043FD0DD3A9
:100950000C98DBF8001000F03DFD07D3DBF8000039
:100960000C9991F0004100F035FD05D20020C8F847
:1009700000000020C9F80000DFF8B4A94FF480415E
:10098000504602F05FFD00281FD101224FF40041C4
:10099000504602F060FD3000DBF8001000F01AFD58
:1009A00009D2DFF83409D8F8001002685163002139
:1009B000006881630FE0DFF82009002102685163BD
:1009C000D8F800100068816305E000224FF4004170
:1009D000504602F040FD2800396800F0FBFCBFF4EF
:1009E000F5AEDFF8F408D9F800200168CA630021E9
:1009F000006801641021DFF83C0902F023FD0028A3
:100A000003D10121DFF830090160DFF818A7DAF817
:100A10000000401ECAF80000DAF8000001283DDAA4
:100A2000DFF814090068012833D1DFF814070068E3
:100A300000F0DCFDCDE90A01139800F0D7FDCDE907
:100A400008010E980690D9F800000590D8F800002B
:100A50000490DFF8E808006800F0C8FDCDE9020165
:100A6000386800F0C3FDCDE90001DBF8000000F0BC
:100A7000BDFD02000B00DFF8C818DFF8C80802F05F
:100A800015FD64237822DFF8BC18DFF8BC0802F0FB
:100A900068FDDFF88C060068CAF80000DAF800008C
:100AA00001287CDBDFF8500700681D99401A02F02E
:100AB000EFFF00F09BFD0022DFF8903800F0BAFD58
:100AC00000F0C4FF0D9011980D9900F0F3FF119004
:100AD000DFF87C080068119900F07CFC5FD2DFF839
:100AE000740812990160DFF8701809681291129960
:100AF0000068091A0E91DFF848760E9802F082F924
:100B0000396800F0D7FF38603868A34900F04EFC20
:100B100001D8002038603868002100F05BFC02D268
:100B2000DFF8380838600E9802F0BFFF02F06AF96B
:100B300000F05CFD0022C94B02F0D6FA80468946DF
:100B4000DFF81C08006802F05DF900F04FFD0200BC
:100B50000B004046494600F06DFD00F077FF139012
:100B6000002011903868149014A890E80E00684690
:100B7000FFF7BCFADFF86477029802F085FA39686B
:100B80004863009802F080FA39680864019802F01E
:100B90007BFAFF214843DFF8481709684863DFF80C
:100BA000580600681D90FFF7DEFBFFF733FCDFF807
:100BB000D4030068DFF87C16096800F0EBFFDFF86B
:100BC0005C170860DFF868060068DFF8201709681E
:100BD00000F0E0FFDFF88C170860EB480068DFF8F2
:100BE0000817096800F0D6FFDFF87C170860DFF807
:100BF0002477DFF804070068DFF8D816096800F0EA
:100C0000C9FF3860DFF864A7DFF880040068DFF808
:100C1000E016096800F0BEFFCAF80000DFF8509740
:100C2000DFF86C040068DFF8CC16096800F0B2FF4A
:100C3000C9F80000DFF8CC8638680D9900F06AFC2E
:100C4000D8F8001000F036FFC8F80000DAF800000D
:100C50000D9900F05FFCDFF8B016096800F02AFF7C
:100C6000DFF8A4160860DFF8A476D9F800000D9923
:100C700000F050FC396800F01DFF3860DFF898067E
:100C80000168DFF89C060160DFF8E8763868DFF875
:100C90009C160860DFF8A4060068DFF8DC16086020
:100CA0005FF0000ADFF8D4B6DFF8D496D9F8000078
:100CB00000F09CFC52465B4602F016FACDE90001BA
:100CC000DFF85806006800F091FCDDE9002302F02F
:100CD0000BFACDE90201D9F8000000F087FC020010
:100CE0000B000020DFF89C1602F05CF9CDE9000152
:100CF000D8F8000000F07AFCDDE9002302F0F4F9F6
:100D0000DDE9022302F090F800F0A0FEDFF80816FB
:100D10000860DFF87486D8F8000000F067FC5246DF
:100D20005B4602F0E1F982468B46DFF83806006840
:100D300000F05CFC52465B4602F0D6F982468B46D8
:100D4000D8F8000000F052FC02000B000020DFF891
:100D5000341602F027F980468946DFF8AC050068B2
:100D600000F044FC42464B4602F0BEF952465B4658
:100D700002F05AF800F06AFE3860DFF89C0500685F
:100D8000310000F027FBBFF42BAD1098310000F0CC
:100D900091FE060029E500000100B4430000C842AE
:100DA0000000F0420000344300007043000096430E
:100DB00000B58FB02821002205A802F07BFE142187
:100DC0000022684602F076FE012005905FF4803034
:100DD0000690002107910121099102210C910D90AB
:100DE0005FF4E0100E9005A802F098FE002801D0F4
:100DF00000F0DAFA0F20009002200190002002900B
:100E00004FF480600390002004900221684603F0B4
:100E10006EF8002801D000F0C7FA0FB000BD80B511
:100E20000F48DFF868150160DFF8641541600021A4
:100E300081600021C1604FF4804101610021416166
:100E4000002181610021C1610021016200F0EEFEFC
:100E5000002801D000F0A8FA01BD000000004E40BB
:100E6000C8000020EC02002018B595B01021002227
:100E700011A802F01FFE08210022684602F01AFEA7
:100E80001C21002202A802F015FE2021002209A840
:100E900002F010FEDFF84444DFF8F8042060002080
:100EA00060600020A060FF20E06000202061002042
:100EB00060610020A061200001F08EFC002801D0BC
:100EC00000F072FA4FF48050119011A9200001F047
:100ED000DBFD002801D000F067FA200001F098FC4B
:100EE000002801D000F060FA00200090002001905E
:100EF0006946200003F020F9002801D000F054FAE0
:100F000060200290002003900020049000200590B3
:100F1000002006900020079000200890002202A9DF
:100F2000200001F02AFD002801D000F03DFA0C223B
:100F300002A9200001F021FD002801D000F034FAC0
:100F40000020099000200A9000200B9000200C90B7
:100F500000200D904FF400500E900020109009A931
:100F6000200003F00FF9002801D000F01DFA200046
:100F700003F0E3F916B010BDEE020020F0020020ED
:100F80000000D0405C02002060020020F20200203D
:100F9000F4020020F602002018B58DB010210022C6
:100FA00009A802F087FD08210022684602F082FDB0
:100FB0001C21002202A802F07DFDC74C5FF080409A
:100FC0002060002060600020A060FF20E060002022
:100FD00020610020A061200001F0FEFB002801D06C
:100FE00000F0E2F94FF48050099009A9200001F0C7
:100FF0004BFD002801D000F0D7F9200001F008FCDB
:10100000002801D000F0D0F90020009000200190CD
:101010006946200003F090F8002801D000F0C4F9E0
:101020006020029000200390002004900020069091
:10103000002202A9200001F0A0FC002801D000F04D
:10104000B3F9042202A9200001F097FC002801D086
:1010500000F0AAF9082202A9200001F08EFC002865
:1010600001D000F0A1F90C2202A9200001F085FCBA
:10107000002801D000F098F9200003F05EF90EB0CE
:1010800010BD000000007F43006060406802002047
:101090006C020020FCED00E018B58BB0242100228A
:1010A00002A802F007FD08210022684602F002FDB6
:1010B0008C4CB9482060002060600020A0604FF692
:1010C000FF70E060002020618020A061032002907A
:1010D0000020039001200490002005900A20069033
:1010E00000200790012008900020099000200A901D
:1010F00002A9200001F0CAFB002801D000F054F939
:1011000000200090002001906946200003F014F8B0
:10111000002801D000F048F90CB010BD001000E02C
:10112000405E0008D802002017B7D1389A99193EBE
:1011300000004842000078410000F0410000964263
:10114000E002002018B58DB01021002209A802F09D
:10115000B1FC08210022684602F0ACFC1C210022F0
:1011600002A802F0A7FC5E4C8C4820600020606062
:101170000020A0604FF6FF70E0600020206100209A
:10118000A061200001F028FB002801D000F00CF93C
:101190004FF48050099009A9200001F075FC002847
:1011A00001D000F001F9200001F032FB002801D04D
:1011B00000F0FAF80020009000200190694620001D
:1011C00002F0BAFF002801D000F0EEF86020029093
:1011D000002003900020049000200690002202A925
:1011E000200001F0CAFB002801D000F0DDF820004B
:1011F00003F0A3F80EB010BD041000E080B5524813
:10120000674901604FF4165141600021816000215F
:10121000C160002101610C21416100218161002137
:10122000C16102F063F9002801D000F0BDF801BDF2
:10123000640200207402002018B585B0102100223D
:10124000684602F037FC5748016851F02001016000
:10125000016811F0200104910499016851F0040122
:101260000160016811F0040104910499016851F0D2
:1012700008010160006810F00800049004982C4CEC
:1012800000224FF40041200002F0E5F81020009009
:1012900000200190012002906946264801F0FAFFE3
:1012A0004FF4804000900020019001200290694698
:1012B000200001F0EFFF4FF400400090012001906A
:1012C00002200290022003906946200001F0E2FF14
:1012D00006B010BD700200205C0100201C0100203F
:1012E000DC0100209C010020780200207C0200200C
:1012F00080020020840200208802002000807640C6
:1013000008000020980200209C020020A00200207B
:10131000B0020020A4020020B40200208C020020B1
:10132000C0020020CC020020D0020020C402002015
:10133000000C014000080140DC020020BC0200203B
:10134000F05B0008500000201C020020882A914118
:10135000485E0008D4020020240400400000B4438A
:10136000445E00089002002094020020A8020020A1
:10137000AC020020B8020020C802002000805640C5
:10138000000000200000F03F040000200054004056
:10139000A0860100002C014000040040000800402D
:1013A000003801401810024072B6FEE740EA010C16
:1013B0001CEB0C0F4FF0807C07D305D01CEB400FCB
:1013C0009CBF1CEB410F884270471CEB400F98BF3D
:1013D0008142704740EA010C1CEB0C0F4FF0807CFF
:1013E00007D305D01CEB400F9CBF1CEB410F814283
:1013F00070471CEB410F98BF884270474FF0FF0CBD
:101400001CEAD0531DBF1CEAD1526345624543E03C
:101410009B1A5FEACC7280EA010C42EA01211CEAC5
:10142000020C42EA0020421A38BF01EB420253F19B
:101430007E034FEA1121B2FBF1F001FB102260F3B1
:10144000D63C4FEA0222B2FBF1F001FB102260F31E
:10145000CE1C4FEA0222B2FBF1F006DDFF2B29DAA7
:101460005CEA500040EBC3507047C3F1020301FB3C
:101470001022192B40EA4C010CF0004C41F0807115
:1014800021DC21FA03F0C3F120039940114371F1EB
:10149000004250EB0C00704763451ABF0CEAD15272
:1014A000624512E080EA010C00180CF0004C06D0F6
:1014B00049181AD10CF0004C4CF0FF407047C9425B
:1014C00008BF6FEA020C60467047634506D1B2EB75
:1014D0000C02F5D001F00041484070474A0212BFAB
:1014E0000846484000F0004070474AB90902B1FA86
:1014F00081F2914043B19B18C00140F0004092E757
:10150000C90141F0004152420002B0FA80F3984014
:10151000D31A88E7FF2212EAD05C1DBF12EAD1532A
:10152000944593422BE09C44D30780EA010243EAAE
:10153000002043EA01211A40A1FB0030C04238BF1D
:1015400000187CF17F010BDBFE294ADA5B0842EAD6
:10155000C15153EA006373F1004C51EB1020704706
:10156000D1F1080CDCF120012FDB5B0810FA01F14E
:101570000B4320FA0CF073F1004150417047944541
:101580001CBF02EAD153934280EA010202F00042FA
:101590001DD0400019D0490017D05BB9634514D065
:1015A0000902B1FA81F39940BCEB030CC00140F091
:1015B0000040C1E70002B0FA80FC10FA0CF0B3EB77
:1015C0000C0CC90141F00041B6E710007047400023
:1015D0000AD0490008D010F1807F94BF11F1807FBC
:1015E00002E042F0FF407047D0437047C0F3C7515C
:1015F00081B1FF2906D0C110400721F0E04101F17F
:101600006051704741020CBF40F4E0016FF00041AF
:101610000020704700F0004100020AD0B0FA80FCC0
:1016200000FA0CF001F16051A1EB0C5101EBD0215B
:1016300040057047F0B540F2FF7581EA030C0CF0ED
:10164000004C15EA11541DBF15EA1357AC42AF42C6
:10165000E5E0BC41C1F31301C3F31303801A9941C0
:1016600043F4801304D2641E001849418018594184
:10167000C90241EA5051B1FBF3F603FB1611A2FB7C
:101680000675D7EBC020A94102D2761E80185941B9
:10169000C90241EA5051B1FBF3FE03FB1E11A2FB4C
:1016A0000E75D7EBC020A94103D2AEF1010E801810
:1016B0005941890241EA9051760546EA8E2EB1FBE6
:1016C000F3F603FB1611A2FB0675D7EB8020A941A8
:1016D00002D2761E80185941C90241EA50514EEAA1
:1016E000060EB1FBF3F603FB1611A2FB0675D7EB52
:1016F000C020A94102D2761E80185941C90241EA90
:101700005051B1FBF3F703FB1711A2FB0735D3EBE5
:10171000C020A94167F100070CBF004247F0010754
:1017200066F3D5274FEA1E31B80814F5806412DD40
:10173000BD0775F1004250EB0E5051EB045111F50D
:10174000801F5CBF41EA0C01F0BD4CF07F6141F0AD
:10175000E0410020F0BDBD076D0840EA0E5041F4A5
:101760008011D4F10104B4F120060ADAC4F1200694
:101770000200E04001FA06F3E1401843B24015438D
:101780000EE0342C13DCC6F1200445EA40056D0858
:1017900020FA06F2154321FA06F0A1400D4300217C
:1017A00075F1004250F1000051EB0C01F0BD00203A
:1017B0005FEA0C01F0BDCFB992185B41B3FA83F731
:1017C00004BFB2FA82F6BF190B3FB7F120062FBF54
:1017D00002FA06F3BB40C7F1200622FA06F638BF2C
:1017E0003343BA401CB1E419641E33E77F4231F041
:1017F0000041B1FA81F404BFB0FA80F6A4190B3CA1
:10180000B4F120062FBF00FA06F1A140C4F1200672
:1018100020FA06F638BF3143A0403C1B1AE7AC4221
:101820001ABF05EA1357AF4212E050EA41061CBF47
:1018300052EA4306BFE750EA4107304661461CBF03
:1018400041EA0551F0BD52EA430C08BFC143F0BD67
:1018500000204FF4001616EB410F98BF16EB430F14
:1018600008BF16EB410F24BFC14305E016EB430F41
:101870000CBF61464CEA0551F0BD0EE002684368BA
:10188000024408305FEAC37C44BF4B445B1E52F8FD
:1018900004CB43F804CB091FF9D150F8041B0029ED
:1018A000ECD1704770B540F2FF7601F0004C1B445C
:1018B00006EA11545D0D1ABFB442B54278E0B3EBAD
:1018C000410F08BF82424BD2C3F3530343F480134A
:1018D000C1F3130141F48011641B0B3C13D9C902FD
:1018E00041EA5051B1FBF3FE03FB1E11A2FB0EE6D1
:1018F000DEEBC020B14101D28018594150EA010607
:1019000043D00B3CEBD80B34C4F12006A14020FAA5
:1019100006F6A0403143B1FBF3FE03FB1E11A2FB10
:101920000EE6B0EB0E00B14101D28018594102BF62
:101930000146203D002041B3B1FA81F39940C3F143
:10194000200220FA02F211439840ED1A0A3509DB11
:10195000C00A40EA41504CEAD12101EB055170BD6B
:1019600013D070BDD5F10B05B5F1200210DAC5F129
:1019700020020300E84001FA02F6E940934073F1C7
:101980000043704151EB0C0170BD6146002070BDF9
:10199000402DFADC430821FA02F0C2F1200511FAC9
:1019A00005F6334373F1004370415CF1000170BDF3
:1019B00053EA020E1ABFB442B54237E0B3EB410F0F
:1019C00008BF8242CCD25B08B3FA83F504BFB2FAF7
:1019D00082F6AD190B3DB5F1200624BF02FA06F3DD
:1019E00005E0AB40C5F1200622FA06F63343AA40D3
:1019F000D5F1010524427FF46BAF31F00041B1FA1B
:101A000081F404BFB0FA80F6A4190B3CB4F12006AF
:101A100024BF00FA06F105E0A140C4F1200620FA37
:101A200006F63143A040D4F1010455E74FF4001508
:101A300015EB410F2CBF6FF00041EB4218BF6FF068
:101A40000041BDE87040AFF30080704701F00042F4
:101A50008B1AA3F16051B1F5801F0ADBB1F17F6FE2
:101A60001FD242EAC102C10071F1004142EB507045
:101A700070470B15C3F10903212B10D2890241EAEB
:101A8000905180020128494141F0004121FA03F0C0
:101A9000C3F12003994071F100415041704710009B
:101AA00070476FF0000013EB103F5CBF000E42EA7E
:101AB000C050704790EA010F40F1728081F0004100
:101AC000431A4FF000423EBF5340C01AC918D30911
:101AD0005FEAD05C13EB400F34BFB3EB410F40E043
:101AE0007CEBD1530CD342EA012122D8D1EB402028
:101AF00009D3400A28BF5FEA500140EBCC50704741
:101B0000401A15D04002B0FA80F2521C9040400AB0
:101B10004FEA3C23B3EB026384BF00EB730007E0A2
:101B200040F400001A16DB07C2F10102D04018434E
:101B30007047182BFCDC31FA03F202FA03F3591A4E
:101B400038BF42F00102D2EB40203CBF0018ACF19C
:101B5000010C5FEACC5CC20572F100414CEB5020F5
:101B6000704713EB400F0FD2C94209D0ACEBD153F1
:101B7000022B03DB4902172BDDDD70479143401A2E
:101B8000C042D5D10020704713EB410FD0D36FF086
:101B90000000704790EA010F7FF592AF81F000419D
:101BA000421A3CBF801A8918C0F3C752FF2A4FF06F
:101BB000004C22D0C1F3C7534BB3D21AD2F1190350
:101BC0002EDD4CEA01214CFA03F321EA0303D14054
:101BD0004CEA00226FF3160052180FD353EAC25397
:101BE0004CEA520273EB0C0C50EB1220420012F143
:101BF000807F38BF70476FF31600704753EA026367
:101C000022EA0C0273EB0C0C50EB122070474902D5
:101C100012BF9A4200EB5120EFE7D2F11703D2D561
:101C2000704703685A1C02601970704738B5040089
:101C3000002C01D10120D4E094F83D00002805D10A
:101C4000002084F83C00200002F0E8FA242084F808
:101C50003D0020680168490849002068016002F0E1
:101C60001EFA0100DFF87C316068984208D2DFF884
:101C70007801814201D2012000E00020C0B207E0DB
:101C8000DFF86801814201D2012000E00020C0B2EB
:101C9000012801D10120A4E0DFF85401B1FBF0F2EA
:101CA00020684068800980011043256868602068CA
:101CB000056A6068984201D2521C07E04FF49670A2
:101CC00042434FF47A70B2FBF0F2521CAD09AD0101
:101CD0002A43206802622068C2696068984214D270
:101CE000481E63685B00B0FBF3F0401C0005000D6C
:101CF000042801D204213EE0491E60684000B1FB87
:101D0000F0F1491C0905090D35E0A068002809D14A
:101D10004D1E636803204343B5FBF3F0401C0005F0
:101D2000000D0AE04D1E636819204343B5FBF3F034
:101D3000401C0005000D50F48040000501D1012138
:101D400019E0A068002809D1491E636803204343B5
:101D5000B1FBF3F1491C0905090D0AE0491E63684E
:101D600019204343B1FBF3F1491C0905090D51F456
:101D7000804151F40041DFF87C0002400A432068B2
:101D8000C2612068016831F0C001E0690143206A46
:101D900001432068016020688168DFF85C00014031
:101DA00020690143E0680143206881602068C168C0
:101DB000090A0902A0690143606901432068C16002
:101DC0002068006850F0010021680860002020644D
:101DD000202084F83D0000202063002084F83E008D
:101DE000002032BDA186010080841E0000093D0054
:101DF00040420F000030FFFF007CFFFF2DE9FE4353
:101E000007000C009046994602F040FB050097F849
:101E10003D00202840F0A380009519230122DFF81F
:101E20005C14380000F064FB002801D0022097E029
:101E300097F83C00012801D1022091E0012087F8A9
:101E40003C0038680068C00705D43868006850F066
:101E50000100396808600C9E0B98DDF828C04B46DD
:101E6000424621003C68246834F40064D7F800E05E
:101E7000CEF80040212487F83D40402487F83E40BA
:101E800000243C64C7F824C07885788D3885DFF855
:101E9000E803F862019500969BB292B289B23800CD
:101EA00000F0F0F9002822D0012059E0786A00788B
:101EB00039680861786A401C7862388D401E388520
:101EC000788D401E78853868406940070FD5388D79
:101ED00000280CD0786A017838680161786A401C63
:101EE0007862388D401E3885788D401E7885388D13
:101EF000002811D02A003100380000F09BFB002898
:101F0000D4D0386C042805D13868006850F40070CB
:101F100039680860012023E02A003100380000F011
:101F2000B5FB00280AD0386C042805D13868006851
:101F300050F4007039680860012011E038680068CA
:101F400050F4007039680860202087F83D000020B8
:101F500087F83E00002087F83C00002000E00220C7
:101F6000BDE8FE832DE9FE4307000C00904699462C
:101F700002F08CFA050097F83D00202840F07881A7
:101F8000009519230122DFF8F412380000F0B0FAAE
:101F9000002801D002206CE197F83C00012801D113
:101FA000022066E1012087F83C0038680068C0071D
:101FB00005D43868016851F00101386801600C9E51
:101FC0000B98DDF828C04B46424621003C68246847
:101FD00034F40064D7F800E0CEF80040222487F8FB
:101FE0003D40402487F83E4000243C64C7F824C0AC
:101FF0007885788D3885DFF88002F8620195009643
:102000009BB292B289B2380000F0B4F9002801D036
:1020100001202EE1388D00280FD100200090386873
:1020200040690090386880690090009838680168BD
:1020300051F400713868016052E0388D012817D1E1
:102040003868016831F480613868016072B6002038
:102050000090386840690090386880690090009866
:102060003868016851F400713868016062B637E081
:10207000388D022817D13868016851F4006138683A
:10208000016072B60020009038684069009038689E
:102090008069009000983868006830F48060396882
:1020A000086062B61CE03868016851F480613868E5
:1020B00001600020009038684069009038688069AD
:1020C000009000980CE038680069796A0870786AB6
:1020D000401C7862388D401E3885788D401E78858A
:1020E000388D002800F0B980388D042880F08C806D
:1020F000388D012808D12A003100380000F0F2FAAA
:102100000028E0D00120B4E0388D02282ED10095BF
:1021100033000022DFF86811380000F0E9F90028E8
:1021200001D00120A5E072B63868016851F4007151
:102130003868016038680169786A0170786A401C03
:102140007862388D401E3885788D401E788562B65D
:1021500038680169786A0170786A401C7862388D45
:10216000401E3885788D401E7885B9E7DFF810412C
:102170000095330000222100380000F0B9F9002852
:102180003ED13868006830F480603968086072B603
:1021900038680069796A0870786A401C7862388DFE
:1021A000401E3885788D401E7885009533000022CA
:1021B0002100380000F09CF9002823D1386801681C
:1021C00051F400713868016038680069796A0870F4
:1021D000786A401C7862388D401E3885788D401EA4
:1021E000788562B638680169786A0170786A401C3F
:1021F0007862388D401E3885788D401E78856FE76F
:10220000012036E0012034E02A003100380000F0DF
:1022100069FA002801D001202BE038680169786A4A
:102220000170786A401C7862388D401E3885788D40
:10223000401E78853868406940077FF551AF38689F
:102240000069796A0870786A401C7862388D401E8F
:102250003885788D401E788542E7202087F83D003C
:10226000002087F83E00002087F83C00002000E0B6
:102270000220BDE8FE8300000000FFFF0200100006
:10228000040001002DE9F8438046894614001D0032
:10229000089E099FD8F80000016851F48071D8F8B1
:1022A000000001600097330000225FF001114046FA
:1022B00000F01EF9002801D0012059E019F0FE09B4
:1022C000D8F80000C0F810903B003200DFF81C1274
:1022D000404600F052F9002801D0012048E00020DB
:1022E0000090D8F8000040690090D8F8000080699C
:1022F000009000983A003100404600F09BF9002819
:102300000DD0D8F84000042807D1D8F800000068A4
:1023100050F40070D8F800100860012028E0ADB239
:10232000012D04D1E4B2D8F8000004611FE02100BF
:1023300089B2090AC9B2D8F8000001613A00310037
:10234000404600F077F900280DD0D8F84000042866
:1023500007D1D8F80000006850F40070D8F80010D9
:102360000860012004E0E4B2D8F800000461002015
:10237000BDE8F2832DE9FC478246884614001D0023
:102380000A9E0B9FDAF80000016851F48061DAF8C8
:1023900000000160DAF80000016851F48071DAF899
:1023A000000001600097330000225FF001115046E9
:1023B00000F09EF8002801D0012094E018F0FE0003
:1023C000DAF800100861DFF824913B00320049463A
:1023D000504600F0D2F8002801D0012083E0002010
:1023E0000090DAF8000040690090DAF80000806997
:1023F000009000983A003100504600F01BF9002888
:102400000DD0DAF84000042807D1DAF8000000689F
:1024100050F40070DAF800100860012063E0ADB2FB
:10242000012D04D1E4B2DAF8000004611FE02100BC
:1024300089B2090AC9B2DAF8000001613A00310034
:10244000504600F0F7F800280DD0DAF840000428D4
:1024500007D1DAF80000006850F40070DAF80010D4
:10246000086001203FE0E4B2DAF8000004613A00BD
:102470003100504600F0DEF800280DD0DAF84000B8
:10248000042807D1DAF80000006850F40070DAF888
:1024900000100860012026E0DAF80000016851F41D
:1024A0008071DAF8000001600097330000225FF0CD
:1024B0000111504600F01CF8002801D0012012E064
:1024C00058F001085FFA88F8DAF80000C0F81080C8
:1024D0003B0032004946504600F04FF8002801D03A
:1024E000012000E00020BDE8F687000002000100A6
:1024F0002DE9F04105000E0017001C00DDF81880E2
:102500003000000CC0B201280AD12868416931406E
:1025100089B2B0B2814201D101210BE0002109E072
:1025200028688169314089B2B0B2814201D101216C
:1025300000E000213800C0B281421BD114F1010F2C
:10254000DED001F0A3FFB0EB0800844201D3002CE1
:10255000D6D100202863202085F83D00002085F892
:102560003E00286C50F020002864002085F83C00D4
:10257000012000E00020BDE8F081F8B505000E0064
:1025800014001F003000000CC0B201280AD12868D6
:102590004169314089B2B0B2814201D101200BE0E2
:1025A000002009E028688169314089B2B0B28142D7
:1025B00001D1012000E00020002839D128684069BD
:1025C00040051AD52868016851F400712868016037
:1025D0007FF480612868416100202863202085F80D
:1025E0003D00002085F83E00286C50F0040028646F
:1025F000002085F83C0001201BE014F1010FC1D040
:1026000001F044FFC01B844201D3002CBAD100204A
:102610002863202085F83D00002085F83E00286CC6
:1026200050F020002864002085F83C00012000E0E4
:102630000020F2BD70B505000C0016002868406946
:10264000000621D4280000F087F8002801D00120DE
:102650001BE014F1010FF1D001F018FF801B844240
:1026600001D3002CEAD100202863202085F83D000A
:10267000002085F83E00286C50F0200028640020DF
:1026800085F83C00012000E0002070BD70B5050019
:102690000C00160028684069400721D4280000F08B
:1026A0005BF8002801D001201BE014F1010FF1D0EC
:1026B00001F0ECFE801B844201D3002CEAD1002003
:1026C0002863202085F83D00002085F83E00286C16
:1026D00050F020002864002085F83C00012000E034
:1026E000002070BD70B505000C0016002868406918
:1026F00040062FD428684069C00607D401F0C6FE02
:10270000801B844215D3002CF0D112E07FF0100121
:102710002868416100202863202085F83D000020C2
:1027200085F83E00286C2864002085F83C000120D4
:1027300011E000202863202085F83D00002085F866
:102740003E00286C50F020002864002085F83C00F2
:10275000012000E0002070BD01684969490514D5D9
:102760007FF4806201684A6100210163202180F8C2
:102770003D10002180F83E10016C51F0040101640D
:10278000002180F83C10012000E000207047010289
:1027900010F0004160B148BF4042B0FA80F2904072
:1027A000D21CC2F5846241EA025202EBD0214005FC
:1027B00070472E0080B50749086850F01000086087
:1027C000032001F0D0FE0F2001F0FCFE01F008FD17
:1027D000002002BD0020024010B50400002C01D1F1
:1027E000012014E094F83D00002805D1002084F871
:1027F0003C00200001F046FD022084F83D00211D30
:10280000206800F0B5F9012084F83D00002010BDDB
:1028100010B50400002C01D1012014E094F83D0013
:10282000002805D1002084F83C00200001F0F0FED3
:10283000022084F83D00211D206800F099F9012054
:1028400084F83D00002010BD10B50400012220686E
:1028500000F0B2FA2168DFF83000814205D120682B
:10286000416C51F40041206841642068806810F098
:102870000700062805D02068006850F00100216894
:102880000860002010BD0000002C014038B5040095
:102890000D00002C01D1012049E094F83D000028F2
:1028A00005D1002084F83C00200001F01AFD022030
:1028B00084F83D0020688168DFF8BC010140206891
:1028C0008160211D206800F053F92068816820682C
:1028D00083692068026A28680143DFF8A001034089
:1028E000A8680343A86953EA0023DFF89401034072
:1028F000DFF890010340E8680343E86953EA0023E6
:10290000286953EA0013286A53EA003332F022029E
:1029100068680243686952EA001220688160206892
:10292000836120680262012084F83D00002032BDEE
:1029300010B50400002902D0042906D00BE00122C2
:102940000021206800F038FA0FE0012204212068FD
:1029500000F032FA09E001220021206800F02CFA90
:1029600001220421206800F027FA2068006850F056
:10297000010021680860002010BD38B504000D007A
:1029800094F83C00012801D1022073E0012084F872
:102990003C00022084F83D00002A06D0042A1BD007
:1029A000082A31D00C2A46D05DE02900206800F0CA
:1029B00013F92068816951F008012068816120685D
:1029C000816931F00401206881612068816928698A
:1029D00001432068816146E02900206800F029F960
:1029E0002068816951F400612068816120688169F3
:1029F00031F480612068816120688069296950EA2A
:102A00000120216888612EE02900206800F042F949
:102A10002068C16951F008012068C1612068C1695E
:102A200031F004012068C1612068C169286901434F
:102A30002068C16117E02900206800F05BF9206878
:102A4000C06950F400602168C8612068C16931F430
:102A500080612068C1612068C069296950EA01204D
:102A60002168C861FFE7012084F83D00002084F858
:102A70003C00002032BD0000F8BFFFFFFCFCFFFF60
:102A8000F3F3FFFF0F0FFFFF10B5040094F83C00B5
:102A9000012801D102206AE0012084F83C000220D4
:102AA00084F83D002068826832F0770232F47F4279
:102AB00020688260086800284DD010284BD020285C
:102AC00049D0302847D040283BD0502825D0602816
:102AD0002DD0702807D0B0F5805F03D0B0F5005F2F
:102AE0000ED03DE03CE0CB684A688968206800F081
:102AF00058F92068816851F07701206881602FE0E3
:102B0000CB684A688968206800F04BF920688168C2
:102B100051F480412068816022E0CA6849682068D9
:102B200000F012F95021206800F033F918E0CA686B
:102B30004968206800F01AF96021206800F029F93E
:102B40000EE0CA684968206800F0FEF8402120685D
:102B500000F01FF904E00968206800F01AF9FFE7A7
:102B6000012084F83D00002084F83C00002010BDC6
:102B700010B40468714B984208D0B0F1804F05D072
:102B80006F4A904202D06F4A904204D134F07004F0
:102B900022004C681443984208D0B0F1804F05D011
:102BA000674A904202D0674A904204D134F440749C
:102BB0002200CC68144334F080044A691443046052
:102BC0008A68C2620A688262984201D10969016317
:102BD0000121416110BC704770B4026A5208520072
:102BE0000262056A4368846934F07004A408A40092
:102BF0000A68144335F002058A6815434F4EB04207
:102C000005D135F00805CA68154335F00405B04212
:102C100008D133F4807333F400734A6913431A0004
:102C20008B6913434360846149684163056270BCEA
:102C3000704770B4026A32F010020262056A42689C
:102C4000836933F4E04333F440730C6853EA04239C
:102C500035F020058C6855EA0415384EB04206D18F
:102C600035F08005CC6855EA041535F04005B042D2
:102C700009D132F4806232F400624C6952EA840273
:102C80008C6952EA8402426083614968816305620B
:102C900070BC704770B4026A32F480720262056AD6
:102CA0004368C46934F07004A408A4000A6814439B
:102CB00035F400758A6855EA0225204EB04206D1E7
:102CC00035F40065CA6855EA022535F48065B042DE
:102CD00009D133F4805333F400534A6953EA0213A1
:102CE0008A6953EA02134360C4614968C16305629B
:102CF00070BC704730B4026A32F480520262026AD9
:102D00004468C36933F4E04333F440730D6853EA15
:102D1000052332F400528D6852EA0532074DA8426D
:102D200004D134F480444D6954EA85144460C3618D
:102D300049680164026230BC70470000002C014009
:102D4000000400400008004010B4036A046A6408EC
:102D500064000462846934F0F00454EA021433F02D
:102D60000A0319438461016210BC704710B4036AFE
:102D700033F0100303628469036A34F4704454EA44
:102D8000023433F0A00353EA01138461036210BCE0
:102D90007047826832F07002114351F00701816080
:102DA000704710B4846834F47F442143114351EADE
:102DB0000321816010BC704710B4012411F01F037F
:102DC0009C40036A33EA04040462036A11F01F01A1
:102DD00012FA01F11943016210BC704738B50500C1
:102DE00001F054FB040015F1010F02D004480078F3
:102DF000451901F04BFB001BA842FAD331BD00BFBF
:102E00004C00002010F0004C68B148BF4042B0FABE
:102E100080F18840D1F19D014CEAC15C010671F15D
:102E200000414CEB1020704770B491EA030F4FF053
:102E3000004540F1BF806B40841A71EB030604D259
:102E40006E40001BB141121973414FF4001C1CEB82
:102E5000410F34BF7CEB430683E00C0DA4EB13560B
:102E6000362E00F37C80012E45EAC32341DC43EA81
:102E7000525312BFD20292025B08240545EAC121D7
:102E800041EA5051D2EBC020994125D407D1B0FA84
:102E900080F610FA06F162D00020203608E0B1FA80
:102EA00081F6B140C6F1200220FA02F21143B0408F
:102EB0004FEAF474B4EB465434F001064FEA74045C
:102EC0000AD8D6F50016760D04F00044F04061FAF9
:102ED00006F25040F1404840C00A40EA415021F01B
:102EE000004128BF5FEA500550F1000044EBD121BA
:102EF00035E0DB0A45EAC121C90AB6F120050EDD3D
:102F000042EA0242120CC5F1200603FA06F6EB4033
:102F100042EA06056D42984161F100010DE062FA56
:102F200006F5F240554063FA06FC82EA0C02F340D3
:102F30005A406D42904161EB030111F4801F05D1AD
:102F4000641E620502D06D004041494121F48011A8
:102F5000430875F1004350F1000041EB045170BC8F
:102F600070471CEB410F15D223F0004352EA430691
:102F70000BD04FEA4C0CBCEB410F04D80C0D661E75
:102F8000342EB7DDEBE7801A994150EA410608BFBD
:102F90000021E4E708BF1CEB430F28BF6FF00001DE
:102FA000DDE7000070B491EA030F4FF000457FF5B4
:102FB00043AF6B40841A71EB030603D2001BB1418F
:102FC000121973414FF4001C1CEB410F34BF7CEB12
:102FD000430442E00C0DA4EB1356352E4FDC45EABA
:102FE000C323DB0A45EAC121C912B6F120050DDD74
:102FF00063FA05F6EB4086EA0305124218BF45F076
:103000000105C01851F100010CD213E062FA06F577
:10301000F2405540F3415A40B340F3405A408018C3
:10302000594107D349085FEA30005FEA350528BFF8
:1030300045F0010501F58011420875F1004250F19B
:10304000000041EB04514E0016F5001F70BC38BF64
:1030500070470020090D090570471CEB410F10D285
:1030600052EA43060BD0BCEB410F05D80C0DAB4325
:10307000661E342EB6DD02E0AB438018594170BCA9
:10308000704770BC70470000C0F3C751D1F19E017A
:1030900008DD020242F00042CA4002EBE07282EA1E
:1030A000E07070477FEAE07080F0004070470000F9
:1030B000C1F30A5340F21E42D31A0CDDCA0283F355
:1030C000070342EA505242F00042DA4002EBE1725A
:1030D00082EAE17070476FEAE17203F2E13008B111
:1030E00082F000407047000030B540F2FF7C1CEADF
:1030F00011541DBF1CEA1355644565453FE0641932
:1031000081EA030C6FF35F530CF0004C43F480131F
:10311000C90241F0004141EA505EC5021100A5FB21
:10312000020200284FF00000EEFB01204FF00001EA
:10313000E3FB052118BF42F001024018002149417C
:10314000E3FB0E01A4F580640D0302D29218404106
:10315000494154F1010470DD450872F1004250F11B
:10316000000051EB0451A1F5801102D441EA0C0199
:1031700030BD40F2FF7E4CEA0E51002030BD0CEA1B
:103180001355644518BF654581EA030C0CF0004CEB
:1031900041D050EA410E1CBF52EA430E02E06146A4
:1031A000002030BD24422C441BD15FEA050EF6D02E
:1031B000090302BF01460020AEF1140EB1FA81F5F9
:1031C000AEEB050401FA05FE0C35C5F1200100FA4D
:1031D00005F5C8404EEA000E6FF35F5343F48013C9
:1031E0009CE733F00043B3FA83F504BFB2FA82FEE2
:1031F00075440B3D641BB5F1200E2FBF02FA0EF390
:10320000AB40C5F1200E22FA0EFE38BF43EA0E0392
:10321000AA40641C7CE750EA410E14BF52EA430EF8
:103220006FF000014FF4001515EB430F8EBF1946E8
:1032300015EB410F9DE7B4D830BDD4F10104B4F1D2
:1032400020050FDAC4F12005520828BF42F0010220
:1032500010FA05FE01FA05F57244E2BFE04028438A
:10326000E1400FE0352C9ADCC5F1200452EA40021F
:1032700020FA05F218BF42F0010231FA05F0A14030
:103280000A43002172F1004250F1000051EB0C01A1
:1032900030BD0000F8B502000023002514E0DFF87F
:1032A000CC61306830EA040434600CE0DFF8C061BF
:1032B0003068A043306048688002F0D5DFF8AC6128
:1032C0003068044334605B1C0868D840002800F074
:1032D000B88001269E400C683440B442F3D14F6858
:1032E000002F27D0012F1AD0022F1DD0032F2FD04F
:1032F000112F16D0122F1AD05E4887421AD05E487E
:10330000874217D05D48874214D05D48874211D06C
:103310005C4887420ED05C4887420BD01AE0CD68EB
:1033200018E0CD682D1D15E0CD68083512E0CD6898
:103330000C350FE08868002801D1042507E0886873
:10334000012802D10825166101E00825566101E037
:103350000025FFE7B4F5807F01D2170000E0171DBC
:10336000B4F5807F02D25FEA830C03E0B3F1080C6E
:103370005FEA8C0C0F26D7F800E016FA0CF03EEA54
:10338000000E15FA0CFC5CEA0E0CC7F800C0486889
:10339000C00098D53D4F386850F00100386038685B
:1033A00010F0010000900098394F1800800857F87D
:1033B00020C013F00300C0B2800086403CEA060C37
:1033C0003448824201D100260FE03348824201D1C5
:1033D00001260AE03148824201D1022605E0304848
:1033E000824201D1032600E0042613F00300C0B29C
:1033F0008000864056EA0C0C1800800847F820C070
:103400004868C00304D5274E30682043306003E08D
:1034100024480668A64306604868800304D522480D
:1034200006682643066003E01F4E3068A043306004
:103430004868C0027FF53AAF0D480668264306602B
:1034400039E7F1BD806889B2084201D0012000E06F
:103450000020C0B27047D2B2002A02D089B2016106
:1034600002E089B209040161704700000C040140C8
:10347000080401400000111000001210000021108B
:10348000000022100000311000003210181002401D
:103490000800014000080140000C014000100140FC
:1034A0000014014000040140040401400CB430B594
:1034B00083B00A4606A902910446002501940095AE
:1034C00002AB01A9084878441E3001F0A6F8019922
:1034D0000D7000284EBF04460198041B204603B01F
:1034E00030BC5DF80CFB00BF3BE7FFFF10B50400EC
:1034F000002C01D1012033E0A0690028FFD194F80D
:103500003900002805D1002084F83800200000F0A0
:1035100069FF242084F839002068C16831F4005123
:103520002068C160200000F006FA2068016931F4CB
:103530009041206801612068416931F02A012068CA
:1035400041612068C16851F400512068C1600020C9
:10355000E063202084F83900202084F83A0000201D
:1035600010BD2DE9FC4105000C0090461E00002016
:1035700095F83900202861D1002C03D0404680B254
:10358000002801D101205AE095F83800012801D126
:10359000022054E0012085F838000020E863212053
:1035A00085F8390000F072FF0700A5F82480A5F81F
:1035B000268003E0217828684160641CE88C00289C
:1035C00029D0E88C401EE884A868B0F5805F17D148
:1035D00000963B0000228021280000F0C3F800285C
:1035E00001D003202BE020000188C905C90D2868FF
:1035F00041602869002801D1A41CDFE7641CDDE7D5
:1036000000963B0000228021280000F0ABF8002843
:10361000D0D0032013E000963B0000224021280078
:1036200000F0A0F8002801D0032008E0202085F851
:103630003900002085F83800002000E00220BDE8B5
:10364000F68138B50400206801682068C2682068E7
:1036500043690020002011F00F00002807D18D06DB
:1036600005D5950603D5200000F011F979E0002872
:1036700067D0D80702D412F4907F62D00800C00748
:1036800005D5D00503D5E06B50F00100E063480795
:1036900006D51800C00703D5E06B50F00200E063C8
:1036A000880706D51800C00703D5E06B50F004006A
:1036B000E063080705D5D80703D5E06B50F0080094
:1036C000E063E06B00283BD0880604D5900602D565
:1036D000200000F0DCF820684069800910F001004B
:1036E000E16B090701D4002825D0200000F071F813
:1036F0002068406940061AD52068406930F04000D3
:1037000021684861606B00280DD00FF2E900616B01
:103710004863606B01F0E4FE002811D0606B616BC0
:10372000496B88470CE0200001F040FF08E02000D2
:1037300001F03CFF04E0200001F038FF0020E063CE
:103740000FE0080605D5100603D5200000F05CF850
:1037500007E0480605D5500603D5200000F089F89B
:10376000FFE731BD2DE9F04105000E0090461F0036
:10377000069C286800683040B04201D1012100E079
:1037800000214046C0B2814220D114F1010FF0D097
:10379000002C04D000F07AFEC01B8442E9D22868D5
:1037A000C16831F4D0712868C1602868416949084E
:1037B000490028684161202085F83900202085F8DB
:1037C0003A00002085F83800032000E00020BDE822
:1037D000F0810168CA6832F490720168CA600168B9
:1037E0004A695208520001684A61202180F83A1063
:1037F0007047000080B5406A0021C1850021C18466
:1038000001F0D4FE01BD000090F8391021292ED11D
:103810008168B1F5805F10D1016A0A88D205D20DA6
:1038200001684A600169002903D1016A891C0162AB
:1038300009E0016A491C016205E0026A511C01624B
:10384000127801684A60C18C491EC18489B200297E
:103850000BD10168CA6832F080020168CA60016851
:10386000C96851F040010068C160002000E00220FA
:10387000704780B50168CA6832F040020168CA60CA
:10388000202180F8391001F092FE002002BD80B5A1
:1038900090F83A1022294CD18168B1F5805F15D19A
:1038A000826A0169002908D101684968C905C90D02
:1038B0001180816A891C81621AE00168496801F0FF
:1038C000FF011180816A491C816211E001690029B0
:1038D00006D1816A4A1C8262026852680A7007E057
:1038E000816A4A1C82620268526812F07F020A7082
:1038F000C18D491EC18589B2002918D10168CA68E5
:1039000032F020020168CA600168CA6832F480722D
:103910000168CA6001684A695208520001684A6138
:10392000202180F83A1001F043FE002002E0002040
:1039300000E0022002BDF8B504002068016931F4FE
:103940004051E068014320680161A2682069024398
:10395000616911432068C2684B48024011432068E6
:10396000C1602068416931F44071A0690143206859
:10397000416121684548814242D100F09BFB7FF0C4
:103980006301192202FB00F36568AD00B3FBF5F398
:103990006425B3FBF5F302FB00F56668B600B5FBE2
:1039A000F6F502FB00F66768BF00B6FBF7F6642782
:1039B000B6FBF7F601FB06552E0132366425B6FB41
:1039C000F5F515F0F00515EB031502FB00F366683D
:1039D000B600B3FBF6F3504362689200B0FBF2F21C
:1039E0006420B2FBF0F001FB0031080132306421A9
:1039F000B0FBF1F010F00F0045192068856041E040
:103A000000F04DFB7FF06301192202FB00F36568B3
:103A1000AD00B3FBF5F36425B3FBF5F302FB00F552
:103A20006668B600B5FBF6F502FB00F66768BF00F6
:103A3000B6FBF7F76426B7FBF6F601FB06552E0139
:103A400032366425B6FBF5F515F0F00515EB0315D8
:103A500002FB00F36668B600B3FBF6F350436268FE
:103A60009200B0FBF2F26420B2FBF0F001FB0031F7
:103A7000090132316420B1FBF0F010F00F0045195C
:103A800020688560F1BD0000F3E9FFFF00380140C8
:103A900050B1B0FA80F18840C1F19D01C90502061C
:103AA00072F1004241EB10207047002848BF4042AD
:103AB0007047000062F30F2262F31F42401810F0BB
:103AC000030308D0C91A1FD3DB0748BF00F8012D34
:103AD00028BF20F8022D130030B4144615461039C3
:103AE00028BF20E93C00FAD8490728BF20E90C008C
:103AF00048BF40F8042D890028BF20F8022D48BF98
:103B000000F8012D30BC7047C91818BF00F8012D0E
:103B1000CB0728BF00F8012D704700002DE9FC41BC
:103B20000400002C01D10120DFE12078C0076BD513
:103B3000DFF8C005016811F00C01042907D0016805
:103B400011F00C0108290CD10068C00309D5DFF879
:103B5000A0050068800357D56068002854D1012073
:103B6000C3E16068B0F5803F06D1DFF884050168E5
:103B700051F48031016026E0606800280AD1DFF846
:103B80007005016831F480310160016831F48021F1
:103B9000016018E06068B0F5A02F0AD1DFF8500589
:103BA000016851F480210160016851F480310160A5
:103BB00009E0DFF83C05016831F4803101600168FB
:103BC00031F480210160606800280ED000F05EFCB6
:103BD0000500DFF81C050068800315D400F056FCD2
:103BE000401B6528F5D303207FE100F04FFC050062
:103BF000DFF8FC040068800306D500F047FC401B9A
:103C00006528F5D3032070E1207880071ED5DFF802
:103C1000E404016811F00C0F07D0016811F00C01E9
:103C200008292CD10068C00329D4DFF8C404016836
:103C3000890704D52169012901D0012055E10268D5
:103C400032F0F802616952EAC1020260207800078E
:103C500049D5A069002871D00121DFF8AC040160CA
:103C600000F014FC0500DFF89C040068800737D4DE
:103C700000F00CFC401B0328F5D3032035E120693C
:103C800000281AD00120DFF88414086000F0FEFB41
:103C90000500DFF85C040168890706D400F0F6FB34
:103CA000401B0328F5D303201FE1016831F0F80120
:103CB000626951EAC2010160C8E70020DFF84C14D4
:103CC000086000F0E3FB0500DFF8240400688007CB
:103CD000BCD500F0DBFB401B0328F5D3032004E137
:103CE000012000F0F2F92078400740F1968000268C
:103CF000DFF81C542868C00009D4286850F08050B0
:103D00002860286810F08050009000980126DFF8A5
:103D100004743868C00524D4386850F48070386062
:103D200000F0B4FB80463868C0051AD400F0AEFB42
:103D3000B0EB08006528F6D30320D6E00020DFF8BA
:103D4000C813086000F0A2FB0500DFF8B8030068A4
:103D50008007C8D500F09AFB401B0328F5D3032049
:103D6000C3E0E068012806D1DFF8AC03016851F038
:103D70000101016025E0E06800280AD1DFF898031E
:103D80000168490849000160016831F004010160DF
:103D900017E0E06805280AD1DFF87C03016851F0DC
:103DA00004010160016851F00101016009E0DFF8E0
:103DB00068030168490849000160016831F00401A5
:103DC0000160E068002810D000F060FB0700DFF819
:103DD00048030068800719D400F058FBC01B41F26B
:103DE00089318842F3D303207FE000F04FFB0700C6
:103DF000DFF824030068800708D500F047FBC01BEC
:103E000041F289318842F3D303206EE0F6B2012EED
:103E100003D1286830F080502860E069002863D022
:103E2000DFF8D052286810F00C0008284AD0E0696A
:103E3000022834D1DFF8E4620020306000F026FB75
:103E40008046DFF8AC723868800107D500F01EFBB1
:103E5000B0EB08000328F4D3032046E0206AB0F555
:103E6000803F05D1296831F40031A0680143296001
:103E7000296831F47411206A0143606A01432960A2
:103E80000120306000F002FB0400386880012BD470
:103E900000F0FCFA001B0328F7D3032025E00021E3
:103EA000DFF87802016000F0F1FA0400DFF8400268
:103EB0000068800118D500F0E9FA001B0328F5D34B
:103EC000032012E0E069012801D101200DE02868FB
:103ED00010F48032216A8A4204D110F47010616AB1
:103EE000884201D0012000E00020BDE8F6812DE9E4
:103EF000F04104000E00002C01D1012098E0DFF811
:103F00002052286810F00700B0420BD22868C00881
:103F1000C00030432860286810F00700B04201D08C
:103F2000012085E02078800716D52078400704D549
:103F30007048016851F4E06101602078000704D501
:103F40006C48016851F4605101606A490A6832F0B6
:103F5000F002A06802430A602078C00732D560688A
:103F6000012805D162480068800310D401205FE079
:103F70006068022805D15E480068800107D40120EE
:103F800056E05B480068800701D4012050E0594F9B
:103F900039688908890060680143396000F076FA61
:103FA0008046396811F00C016068B1EB800F09D0D0
:103FB00000F06CFAB0EB080041F289318842F0D38E
:103FC000032035E0286810F0070086420BD22868ED
:103FD000C008C00030432860286810F00700B042D5
:103FE00001D0012024E02078400706D541490A6825
:103FF00032F4E062E06802430A602078000707D5E7
:104000003C48016831F46051226951EAC201016003
:1040100000F010F84349374A1268C2F30312895C72
:10402000C840364908603648006800F0CBFA0020E6
:10403000BDE8F08100B585B001A83B49102201F030
:10404000C9FA3A480088ADF800000020002000209E
:1040500000200020274A106810F00C01042902D02B
:10406000082902D015E0244814E001ABC0F38341D5
:10407000595CC00309D568461268C2F34042825CAD
:104080001D484143B1FBF2F002E0294800FB01F07A
:1040900000E0194805B000BD18480068704780B5B9
:1040A000FFF7FAFF2349134A1268C2F30222895C20
:1040B000C84002BD80B5FFF7EFFF1E490D4A1268E8
:1040C000C2F3C222895CC84002BD81B00B490A68B4
:1040D000D2084FF47A71B2FBF1F14843009000BF6F
:1040E0000098411E00910028F9D101B070470000EE
:1040F000001002400410024000127A00100000205C
:104100000C00002024100240800442420000424281
:104110001C1002400070004020100240600042422B
:1041200000200240185E0008085E00088E27000884
:1041300000093D00385E000810B490F83C20012AC8
:1041400001D102201CE0012280F83C20022280F8EC
:104150003D20026853680268946833F070030A686F
:10416000134334F0800449680C4301684B600168D4
:104170008C60012180F83D10002180F83C10002067
:1041800010BC7047002390F83C20012A01D1022086
:1041900024E0012280F83C201B0A1B02CA6813435A
:1041A00033F440738A68134333F480634A681343DB
:1041B00033F400630A68134333F480530A691343EA
:1041C00033F400534A69134333F48043C9690B4302
:1041D00001684B64002180F83C100020704700000B
:1041E00081B0A049086850F001000860086810F02C
:1041F0000100009000989C49086850F080500860C9
:10420000086810F08050009000989848016831F0DC
:10421000E06151F08061016001B0704718B585B070
:1042200004001021002201A8FFF744FC21689048F7
:10423000814225D18B49086850F008000860086861
:1042400010F00800009000984FF440700190122088
:1042500002900320049001A98648FFF71BF88348C9
:10426000016851F0E06151F0020101607E49086887
:1042700050F400100860086810F4001000900098D6
:1042800006B010BD81B002687B498A420AD17549E7
:10429000086850F400600860086810F4006000903E
:1042A00000981CE00168B1F1804F0AD16E4908689E
:1042B00050F001000860086810F0010000900098BC
:1042C0000DE001686D48814209D16749086850F0E6
:1042D00004000860086810F004000090009801B025
:1042E000704718B585B004001021002201A8FFF71F
:1042F000E1FB2168624881421DD15B49086850F0AA
:1043000002000860086810F002000090009855490B
:10431000086850F004000860086810F0040000907D
:104320000098C0200190002002900020039001A975
:104330005448FEF7AFFF06B010BD18B585B00400B5
:10434000102100226846FFF7B5FB21684A488142E8
:1043500015D14449086850F004000860086810F05E
:104360000400049004984FF4106000900220019023
:104370000220039069464348FEF78CFF30E0206836
:10438000B0F1804F14D13748016851F00401016049
:10439000006810F00400049004980F2000900220A0
:1043A00001900220039069463648FEF773FF17E03C
:1043B00021683248814213D12A49086850F0080028
:1043C0000860086810F008000490049840200090ED
:1043D000022001900220039069462648FEF75AFF0A
:1043E00006B010BD18B585B0040010210022684643
:1043F000FFF760FB21682448814231D119480168E8
:1044000051F480410160016811F4804104910499E4
:10441000016851F004010160006810F0040004908C
:1044200004984FF400700090022001900320039044
:10443000144C69462000FEF72DFF4FF48060009079
:10444000002001900120029069462000FEF722FF23
:1044500000220121252000F08AF8252000F098F89C
:1044600006B010BD181002401C10024004000140AC
:1044700000540040000C0140002C014000080040A6
:104480000004004000080140003801400148006875
:10449000704700BFE402002010F00700414A136893
:1044A0004FF6FF010B4053EA00233F4803431360DC
:1044B00070473C480068C0F302207047010049B2D1
:1044C000002908D4012210F01F018A40374940B268
:1044D000400941F820207047020052B2002A04D45B
:1044E0000A01334940B20A5407E00901314A40B297
:1044F00010F00F00104400F8041C704710B410F0C6
:104500000700D0F10703052B01D3042301E0D0F10C
:104510000703041D072C01D2002000E0C01E012467
:1045200014FA03F35B1E1940814014FA00F0401E98
:104530001040084310BC704780B5411EB1F1807F28
:1045400001D301200EE0401E1B4908600F215FF0DF
:10455000FF30FFF7C1FF002118480160072118480C
:104560000160002002BD80B5FFF796FF01BD70B568
:1045700004000D0016000020FFF79BFF3200290009
:10458000FFF7BCFF0100200040B2FFF7A5FF70BDA0
:1045900080B540B2FFF792FF01BD80B5FFF7CCFFB9
:1045A00002BD00000CED00E00000FA0500E100E0B3
:1045B00000E400E018ED00E014E000E018E000E0A6
:1045C00010E000E010B504004FF47A700D4909784E
:1045D000B0FBF1F00C490968B1FBF0F0FFF7DDFF2B
:1045E000002801D001200CE0102C09D2002221006B
:1045F0005FF0FF30FFF7BBFF04480460002000E0DD
:10460000012010BD4C000020100000200C000020F4
:104610007047000040F0200070472DE9F14FB0B026
:10462000924604910DF142013A9A2B9199464A70B3
:1046300000200AE01AF8011B0498309A90470028DD
:10464000049000F043860D98401C0D909AF80000ED
:1046500050B12528EED1002200210792089109923D
:104660000A910B920C9104E00D9800F031BE41F0DC
:1046700001011AF8010F2028F9D023280CD02B288B
:1046800004D02D2805D0302809D00BE041F00201DC
:10469000EFE741F00401ECE741F00801E9E741F000
:1046A0001001E6E72A280FD1D9F8002052F8040BB0
:1046B000C9F8002000280F9003D540420F9041F028
:1046C00004010AF1010A14E00F92DFF80C0C0AE071
:1046D0000F9C844205DA04EB840302EB4302303A78
:1046E0000F920AF1010A9AF80020A2F130030A2B76
:1046F000EED39AF800202E2A03D04FF0FF300E9010
:1047000029E01AF8010F2A2809D1D9F8002052F817
:10471000040BC9F800200E900AF1010A1BE02D28B5
:104720000CBF0AF1010A002000220E92DFF8A85BFC
:104730000BE040B90E9BAB4205DA03EB830402EBBE
:104740004402303A0E920AF1010A9AF80020A2F1CE
:1047500030030A2BEDD3ADF840100FF680309AF8F5
:10476000001000F07BFF08B11AF8010B8DF8420031
:104770009DF84200682805D19AF8001068290CD1EC
:10478000622006E06C2804BF9AF800106C2904D15E
:1047900071208DF842000AF1010A12AA06921AF855
:1047A00001BBBBF125002CD01C3800F09781001F05
:1047B000022840F29381133800F0BA84093800F0DF
:1047C0008D81801E00F04F85401E00F0FC84401E4D
:1047D000022840F28381001F00F0F584401F00F0A2
:1047E000F280401E00F0A484401E00F0DA80C01E5B
:1047F0000ED0801E00F09C84C01E00F0998400F052
:104800003DBD0122252107928DF8481000F042BDE0
:10481000D9F8000050F8044BC9F80000002C0594AA
:1048200040F0AB802B994878002800F0A1804FF031
:10483000FF340FF6B02000F01DFF241A40F046852B
:1048400000F028BD01236A4602A9304600F00CFEA4
:10485000002840F03B85641EF4D13096079C12AED0
:1048600074B1309F16F8011B0498B84700280490D3
:1048700000F02C850D98401C641E0D90F2D13097ED
:104880000A9C3021002C8DF800100CDD309E012395
:104890006A4602A9304600F0E7FD002840F0168580
:1048A000641EF4D13096059E089C74B1309F16F8B2
:1048B000011B0498B8470028049000F007850D9864
:1048C000401C641E0D90F2D130970B9C3021002CBF
:1048D0008DF800100CDD309E01236A4602A9304697
:1048E00000F0C2FD002840F0F184641EF4D130963F
:1048F00005980899099C461874B1309F16F8011B59
:104900000498B8470028049000F0E0840D98401CFB
:10491000641E0D90F2D130970C9C3021002C8DF844
:1049200000100CDD309E01236A4602A9304600F0DB
:104930009BFD002840F0CA84641EF4D130969DF897
:10494000400041077FF582AE2020002D8DF8000049
:104950007FF77CAE309C01236A4602A9204600F016
:1049600083FD002840F0B2846D1EF4D130946DE6D2
:104970000FF65430059000F08DBC0E9D002D04D52F
:10498000204600F097FE044608E02A460021204613
:1049900000F0ACFE002814BF041B2C46089400F065
:1049A00079BCD9F8001051F8040BC9F8001020F0B8
:1049B0000002002121F0FF33CDE9022312AC05945F
:1049C000782100F04CBC2B99487820B14FF0FF348F
:1049D0000FF6C4202FE79DF84200622860D06828B7
:1049E00017D06A283FD06C2806D0712847D0742889
:1049F0002CD07A281DD062E0D9F8001051F8040BB1
:104A0000C9F80010002866D14FF0FF340FF6A0203F
:104A100011E7D9F8001051F8040BC9F8001020B9BB
:104A20004FF0FF340FF6882005E70D99018000F064
:104A300031BCD9F8001051F8040BC9F80010002857
:104A400049D14FF0FF340FF66820F4E6D9F8001092
:104A500051F8040BC9F8001000283CD14FF0FF3486
:104A60000FF64C20E7E6D9F8001051F8040BC9F80E
:104A7000001080B94FF0FF340FF63420DBE6D9F890
:104A8000001051F8040BC9F8001020B94FF0FF34A2
:104A90000FF61C20CFE60D9AD317C0E90023F9E3E7
:104AA000D9F8001051F8040BC9F8001020B94FF0E4
:104AB000FF340FF6FC10BEE60D990170EAE3D9F859
:104AC000001051F8040BC9F8001020B94FF0FF3462
:104AD0000FF6DC10AFE60D990160DBE39DF84200B4
:104AE0004C2807BFD9F80010CA1DD9F80000C21D14
:104AF00022F00702C9F80020D2E900010832C9F803
:104B00000020CDE90201C80F02D007982D210AE04C
:104B1000BDF84010880702D507982B2103E0C8078D
:104B200005D50798202112AA1154401C079012A8FD
:104B300007994BF0200300EB010CDDE90201CDE900
:104B40002C01612BCDF814C021AC0BD00E9800289D
:104B500048BF062105D404BF4BF02000672801D1CF
:104B600001210E91DDE902677B0043EAD6735A15F5
:104B7000DB174FF0FF30834208BF824210D13F0362
:104B800047EA16573603002F08BF002E08D0ABF1B6
:104B9000610503211A2D089118D30FF6341110E086
:104BA000DDE902014A00521512F1010F11D108038B
:104BB0000FD1ABF1610503211A2D08911FD30FF618
:104BC00018110322604600F0F5FC63E30FF6FC01C8
:104BD000F7E7DDE902016A4600F0B4FDCDE9020124
:104BE0004BF02000612811D1059830220270811C01
:104BF0000591BBF1610F0CBF7821582102E00FF63F
:104C0000D401DEE741700798801C0790DDE90201BE
:104C100020F0000231F0004308BF002A02D1002634
:104C2000002542E14BF02008B8F1610F40F093807D
:104C30000E98002847BF21210191401C0190019E40
:104C4000DDE92C01761C00220023DDE9024500F09D
:104C5000B1FD38BF85F0004500988DF88420001F15
:104C6000002E00900DF1850732DD204629460022F6
:104C7000002300F0B9FD2BD21C2200F0CFFD04462A
:104C80000D46FEF715FAF61F002E804609DDFDF7EA
:104C90007FFD02460B4620462946FEF783F904466F
:104CA0000D46F81D0721B8F1000F0CDD491E5EBF4F
:104CB00008F00F0200F8012D4FEA2818F3D502E0A2
:104CC000002200F8012D491EFAD5C71D002ECCDCAC
:104CD0000DF185003F1A01980DF185043E4687428B
:104CE000C8BF0646002E2FD4BE4206DA0DF185005D
:104CF000815D0829A8BF0F2000DA0020324621A9D3
:104D00008D1800E0761E15F80139521E8342F9D045
:104D10000F2804D10DF18501885C401C8854002ABD
:104D200004D50098001D21AC761C0090701E0BD499
:104D300021180B783033DAB23A2AA4BF5B443A3BED
:104D4000401E01F80139F4D50E99002940F1AC80DC
:104D5000701E0E90A8E00099DFF8FC2647F29750ED
:104D6000414391FBF2F20092DDE92C45C2F10702CA
:104D7000002A25F0004504DD2046294600F049FBC5
:104D80000BE052420020DFF8D41600F042FB02464E
:104D90000B4620462946FCF74DFC04460D46B8F16B
:104DA000660F06BF009E0A3606260E983618142E89
:104DB000C8BF142630208DF884000DF18507002E21
:104DC00034DD2046294600F0C7FD01460A4607F1BA
:104DD000080C04200A27B2FBF7FE0EEB8E03A2EBB1
:104DE000430230320CF8012C0A22BEFBF2F202EB35
:104DF0008203AEEB43033033401E0CF8023DE9D191
:104E0000083E002E0CF10807D9DD084600F0B6FD7B
:104E100002460B4620462946FEF7C4F80022DFF87A
:104E20004036FEF761F904460D46CAE70DF18500EC
:104E30003F1A0DF1850404E00098401E7F1E00908B
:104E4000641C20783028F7D0B8F1660F02D1009E9C
:104E5000761C04E0B8F1650F0CBF012600260E9801
:104E60003618B742B8BF7E1E002E1DD4BE4204DAEB
:104E7000A05D3428C8BF392000DC30203246611ED6
:104E80008D1800E0761E15F80179521E8742F9D080
:104E9000392802D1A05C401CA054002A04D50098F7
:104EA000401C0C46761C0090009D00F075FD406A89
:104EB0000778DDF8388030B2002802DC01260FF2D6
:104EC0001C644BF02000662808BF6D1C16D06728B4
:104ED00045D128B210F1040F47DB404545DA9DF873
:104EE00040106D1C080703D430B24045D8BF80463F
:104EF00028B2B8EB000848BF4FF000080FFA85FB56
:104F0000BBF1000F00F3B3800898411C08913022D8
:104F100005990A54B8F1000F03DC9DF8401008070A
:104F200004D50898411C089105990F5418EB0B0FF4
:104F3000B8BFC8F100052DB26842454432B20B90AB
:104F40009542B8BF2E46059B089836B20996324660
:104F50002146184400F02EFBAD1B0C95D1E0BBF1AF
:104F6000610F17D14FF0700B19E030B2404504DAF1
:104F70009DF840100A0758BF8046B8F1010848BFA5
:104F80004FF00008BBF1670F14BF4FF0450B4FF017
:104F9000650B04E0BBF1410F08BF4FF0500B0898C0
:104FA000411C0891B8F1000F059914F8012B0A541F
:104FB00003DC9DF8401008071AD50898411C089199
:104FC000B8F1000F05990F5412DD761E30B28045FE
:104FD000B8BF46460598089B32B22146184400F0F7
:104FE000E9FA089836B230180890A8EB06000B9042
:104FF00005980899014428B2002881F800B003D42C
:105000002B204870891C04E02D224A700546891C1B
:105010006D4200202CAA0AE02B460A2593FBF5F5E9
:1050200005EB8504A3EB440302F8013B401C2DB2C1
:10503000002DF1DC012806DC4BF02002652A04BFBC
:10504000302201F8012B00282CAB08D1302001F8C8
:10505000010B06E0401E1A5C303201F8012B0028DB
:10506000F8DC059A08981044091A099149E031B210
:1050700028B281421CDA059B089832B221461844B6
:1050800000F098FA089936B271180891ABEB060057
:10509000B8F1000F0B9003DC9DF84000020704D527
:1050A000059847540999491C0991CDF8308028E0AA
:1050B000059B08982AB22146184400F07BFA08980C
:1050C000761B5844B8F1000F089003DC9DF840109F
:1050D0000A0703D5411C089105990F5430B2804549
:1050E000B8BF46460598089B32B204EB0B01184442
:1050F00000F060FA089836B230180890A8EB060065
:105100000B909DF8400000F01400102840F0C28081
:10511000079A08980B99821809988A1882180C988F
:105120000F998018884280F2B580081A0A90B1E081
:105130009DF84200622808D068280ED06A2814D052
:105140006C281FD0712810D01CE0D9F8001051F83D
:10515000040BC9F80010C0B21AE0D9F8001051F8D9
:10516000040BC9F8001080B212E0D9F80000C21D8B
:1051700022F00702C9F80020D2E900010832C9F87C
:10518000002006E0D9F8001051F8040BC9F800100F
:105190000021CDE902019DF8400002075AD5DDE962
:1051A0000201002908BF002854D04BF02002782AC1
:1051B00050D1079912A830234354491C4A1C079226
:1051C00000F801B046E09DF84200622808D0682847
:1051D0000ED06A2814D06C281FD0712810D01CE083
:1051E000D9F8001051F8040BC9F8001040B21AE0C9
:1051F000D9F8001051F8040BC9F8001000B212E001
:10520000D9F80000C21D22F00702C9F80020D2E937
:1052100000010832C9F8002006E0D9F8001051F862
:10522000040BC9F80010C117CDE90201002902D50D
:1052300007982D220AE0BDF84000810702D50798A3
:105240002B2203E0C00705D50798202212A90A5493
:10525000401C079012A8079901440591594602A8DD
:1052600000F04EF816E001200790D9F8001051F830
:10527000040BC9F800108DF848000BE0012225212D
:10528000BBF1000F07928DF8481003D00220079061
:105290008DF849B00F9D07980A992D1A08986D1A34
:1052A0000B992D1A09986D1A0C992D1A9DF840002A
:1052B0006D1A41073FF5D2AA2020002D8DF800007D
:1052C0007FF7CCAA309E2C46FFF7BCBA4FF0FF30D8
:1052D00031B0BDE8F08F0000CBCCCC0C686A6C74A8
:1052E0007A4C00007072696E74665F733A20626176
:1052F0006420257320617267756D656E740000000F
:105300002DE9FE4C06468B46376958466F2808BF84
:10531000082205D0FFF77EF9782814BF0A22102250
:10532000D6E900013C2504468A46BBF1640F18BF4C
:10533000BBF1690F04D1002902D564426AEB4A0A25
:10534000BAF1000F08BF002C0CD1306B50B9082AFD
:105350003BD196F83810080737D530213B2587F820
:105360003B1032E08DF800B09346204651465A4635
:10537000002300F015FB3032D0B26D1E3A280195A3
:105380000DDA7A55204651465A46002300F008FBB4
:1053900004465FEA010A08BF002C05D108E09DF829
:1053A00000001218513AECE7F16878198142DCD319
:1053B000BBF1080F09D196F83800010705D5785DD3
:1053C000302802D06D1E30207855C5F13C02306B7C
:1053D000B26179198242F16007DA318F821A4FF691
:1053E000EF7001403262318710E000280ED596F848
:1053F000380000F01400102808D1736B7069316A0E
:105400001B1A5B1A9B1A002BC8BF336203B0BDE89E
:10541000F08C2DE9D04306460F4614464FF00008A5
:10542000DFF8409012E0E00707D542464B46304691
:105430003946FDF759FE06460F4640464946424664
:105440004B46FDF751FE641080468946002CEAD198
:1054500030463946BDE8D083A08601000000F03F09
:1054600084D7974100002440F8B505460E461746FC
:105470001C4600205CB117F8011BB068A847B0605B
:1054800030B1F06A401CF0620020641EF3D1F2BD1E
:105490004FF0FF30F2BD00007072696E74665F738A
:1054A0003A20256E20646973616C6C6F77656400C7
:1054B0007072696E74663A2062616420256E2061A4
:1054C0007267756D656E7400000000006E616E009D
:1054D0004E414E00696E6600494E460030000000A5
:1054E00010B5002490F82110022903D00421816313
:1054F000012449E001680A6832F00E0201680A607E
:1055000001680A685208520001680A600268DFF800
:1055100080108A4201D1012228E00268DFF874106D
:105520008A4201D1102221E00268DFF86C108A4221
:1055300002D14FF4807219E00268DFF860108A42ED
:1055400002D14FF4805211E00268DFF854108A4211
:1055500002D15FF4803209E00268DFF848108A4225
:1055600002D15FF4801201E05FF08072DFF8381042
:105570000A60012180F82110002180F82010416B81
:10558000002901D0416B88472000C0B210BD000047
:10559000080002401C00024030000240440002406B
:1055A000580002406C0002400400024070477047FF
:1055B0007047000062B38B0708D0521E11F8013B00
:1055C00000F8013B00F024808B07F6D1830740F000
:1055D000208000BF103A07D330B4B1E83810103A39
:1055E000A0E83810F9D230BC530724BFB1E8081046
:1055F000A0E8081044BF51F8043B40F8043BD20730
:1056000024BF31F8022B20F8022B44BF0B78037023
:105610007047121F17D35B0009D151F8043B20F8E3
:10562000023B1B0C121F20F8023BF6D20BE051F894
:10563000043B00F8013B1B0A20F8023B1B0C121F25
:1056400000F8013BF3D238BF121D521E24BF11F8DF
:10565000013B00F8013BF8D870470000C9B202785E
:105660008A421AB11CBF10F8012FF9E718BF0020B9
:105670007047000080B500B906A005490B681BB152
:1056800022220021984701E000F0A2FA222002BD68
:10569000E8020020636F6E73747261696E74206833
:1056A000616E646C65723A20626164206D6573732B
:1056B0006167650000F10103810704D010F8011B48
:1056C000820781B1FAD10268A2F10131914311F050
:1056D000803104BF50F8042FF6E709BAB1FA81F11E
:1056E00000EBD100401CC01A70470000C9B283070C
:1056F00006D0521E22D310F8013B9942F7D11FE089
:10570000083A13D302F1040241EA012141EA0141BE
:1057100050F8043B121F21BF4B40A3F1013C2CEA7F
:10572000030C1CF0803FF3D0C9B2001F083210F800
:10573000013B521E28BF91EA030FF8D818BF012081
:10574000401E704710B5144600F002F8226010BDEC
:10575000C1F30A5343B14A0012F5001F28D2A3F245
:10576000FE32A1EB0251704750EA410C20D001F00B
:10577000004C31EA0C01B1FA81F204BFB0FA80F3B7
:10578000D2180B3AB2F120032CBF00FA03F191407A
:1057900041EA0C013EBFC2F1200C20FA0CF3194380
:1057A0009040524240F2FD33D21A01EB0351704750
:1057B0000022704741EA030C50EA4C0C52EA0C0CF0
:1057C0004FF4001C09D307D01CEB410F9CBF1CEB0E
:1057D000430F8B4208BF824270471CEB430FFBD83C
:1057E000994208BF9042704741EA030C50EA4C0CC2
:1057F00052EA0C0C4FF4001C09D307D01CEB410FEC
:105800009CBF1CEB430F994208BF904270471CEBB2
:10581000410FFBD88B4208BF82427047124254D4DA
:1058200040F2FF7C1CEA11530FD0634531D09B1826
:1058300063453CBF01EB0251704701F0004141EA72
:105840000C510020AFF30080704750EA410320D094
:1058500001F0004C91EA0C011CD0B1FA81F30B3B32
:105860009A420DD9D21A994051EA0C01C3F1200C89
:1058700020FA0CFC61449840531C40F2FF7CD7E7AF
:10588000914041EA0C01C2F1200C20FA0CF31943BB
:1058900090407047B0FA80F31533202BE0D3202AD4
:1058A000EED3203A203B9A4209D9D21A00FA03F1EA
:1058B00041EA0C010020531C40F2FF7CB8E700FADB
:1058C00002F141EA0C0100207047524240F2FF7C95
:1058D0001CEA11530DD06345DBD0B2EB030C3CBF87
:1058E000A1EB025170470CF1010221EA035141F48E
:1058F000801150EA410CCCD001F0004C352A27DC55
:1059000030B481EA0C01B2F1200309DAC2F12003BC
:10591000044601FA03F5D0402843D1409C400CE0F6
:10592000C3F12002450020FA03F418BF44F001043B
:1059300021FA03F091400C43002174F1004550F12D
:10594000000051EB0C01244230BC7FF47BAF704768
:105950006146002076E70000400D40F21E4C40EA10
:10596000C120BCEB115C40F0004003D48CF3070174
:10597000C84070476FEAE1707047000050B1B0FA5C
:1059800080F18840C91CC1F58461090501EBD02173
:1059900040057047014670470048704714000020DA
:1059A000BBBBE1B1B2F5803F80F07E80022A1ED9F8
:1059B0008C46B1FBF2F102FB11C31B0443EA104316
:1059C000B3FBF2FC02FB1C3380B240EA0343B3FB9F
:1059D000F2F002FB103240EA0C4000237047022A2A
:1059E00005D98446B0FBF2F002FB10C270474AB101
:1059F00005D100F0010249085FEA3000704700223B
:105A00000023704700F0E8B80B00020000210020DE
:105A10007047904271EB030CF6D3B3F5803F2FD261
:105A2000F0B5B3FA83F7B1FA81F4A7F10F0E3D1B7D
:105A30005340CEF1200602FA0EF2F3415340B5F185
:105A40000F0746D80F3C2C444140C4F12006A0402B
:105A5000F1414140B1FBF3F603FB1611A2FB0645F1
:105A6000001BA94102D2761E8018594180EA01022A
:105A700021FA0EF362FA0EF200215A403046F0BDD0
:105A800030B4B1FBF3FC03FB1C11A2FB0C45001B63
:105A9000A94103D2ACF1010C8018594130BC024637
:105AA0000B46604600217047B2F1807F65D3F0B5A8
:105AB000B2FA82F7B1FA81F4C7F10F063D1B22FA60
:105AC00006F307F1110EF24120355A40B5F10F07E8
:105AD000B8D94140C4F12006A040F1414140B1FB9A
